{
  "_format": "hh-sol-artifact-1",
  "contractName": "Crowdfunding_Version1",
  "sourceName": "contracts/Crowdfunding_Version1.sol",
  "abi": [
    {
      "inputs": [],
      "stateMutability": "nonpayable",
      "type": "constructor"
    },
    {
      "anonymous": false,
      "inputs": [
        {
          "indexed": false,
          "internalType": "uint256",
          "name": "id",
          "type": "uint256"
        },
        {
          "indexed": false,
          "internalType": "string",
          "name": "message",
          "type": "string"
        }
      ],
      "name": "CampaignCancelled",
      "type": "event"
    },
    {
      "anonymous": false,
      "inputs": [
        {
          "indexed": false,
          "internalType": "uint256",
          "name": "id",
          "type": "uint256"
        },
        {
          "indexed": true,
          "internalType": "address",
          "name": "owner",
          "type": "address"
        },
        {
          "indexed": false,
          "internalType": "uint256",
          "name": "goal",
          "type": "uint256"
        },
        {
          "indexed": false,
          "internalType": "uint256",
          "name": "startCampaign",
          "type": "uint256"
        },
        {
          "indexed": false,
          "internalType": "uint256",
          "name": "endCampaign",
          "type": "uint256"
        },
        {
          "indexed": false,
          "internalType": "string",
          "name": "message",
          "type": "string"
        }
      ],
      "name": "CampaignCreated",
      "type": "event"
    },
    {
      "anonymous": false,
      "inputs": [
        {
          "indexed": false,
          "internalType": "uint256",
          "name": "id",
          "type": "uint256"
        },
        {
          "indexed": false,
          "internalType": "string",
          "name": "message",
          "type": "string"
        }
      ],
      "name": "Claim",
      "type": "event"
    },
    {
      "anonymous": false,
      "inputs": [
        {
          "indexed": false,
          "internalType": "uint8",
          "name": "version",
          "type": "uint8"
        }
      ],
      "name": "Initialized",
      "type": "event"
    },
    {
      "anonymous": false,
      "inputs": [
        {
          "indexed": true,
          "internalType": "uint256",
          "name": "id",
          "type": "uint256"
        },
        {
          "indexed": true,
          "internalType": "address",
          "name": "pledger",
          "type": "address"
        },
        {
          "indexed": false,
          "internalType": "uint256",
          "name": "amount",
          "type": "uint256"
        },
        {
          "indexed": false,
          "internalType": "string",
          "name": "message",
          "type": "string"
        }
      ],
      "name": "Pledge",
      "type": "event"
    },
    {
      "anonymous": false,
      "inputs": [
        {
          "indexed": false,
          "internalType": "uint256",
          "name": "id",
          "type": "uint256"
        },
        {
          "indexed": true,
          "internalType": "address",
          "name": "pledger",
          "type": "address"
        },
        {
          "indexed": false,
          "internalType": "uint256",
          "name": "amount",
          "type": "uint256"
        },
        {
          "indexed": false,
          "internalType": "string",
          "name": "message",
          "type": "string"
        }
      ],
      "name": "Refund",
      "type": "event"
    },
    {
      "anonymous": false,
      "inputs": [
        {
          "indexed": true,
          "internalType": "uint256",
          "name": "id",
          "type": "uint256"
        },
        {
          "indexed": true,
          "internalType": "address",
          "name": "pledger",
          "type": "address"
        },
        {
          "indexed": false,
          "internalType": "uint256",
          "name": "amount",
          "type": "uint256"
        },
        {
          "indexed": false,
          "internalType": "string",
          "name": "message",
          "type": "string"
        }
      ],
      "name": "Unpledge",
      "type": "event"
    },
    {
      "inputs": [
        {
          "internalType": "uint256",
          "name": "",
          "type": "uint256"
        }
      ],
      "name": "campaigns",
      "outputs": [
        {
          "internalType": "address",
          "name": "owner",
          "type": "address"
        },
        {
          "internalType": "string",
          "name": "title",
          "type": "string"
        },
        {
          "internalType": "string",
          "name": "description",
          "type": "string"
        },
        {
          "internalType": "string",
          "name": "campaignImage",
          "type": "string"
        },
        {
          "internalType": "uint256",
          "name": "goal",
          "type": "uint256"
        },
        {
          "internalType": "uint256",
          "name": "pledged",
          "type": "uint256"
        },
        {
          "internalType": "uint256",
          "name": "startCampaign",
          "type": "uint256"
        },
        {
          "internalType": "uint256",
          "name": "endCampaign",
          "type": "uint256"
        },
        {
          "internalType": "address",
          "name": "token",
          "type": "address"
        },
        {
          "internalType": "bool",
          "name": "claimed",
          "type": "bool"
        }
      ],
      "stateMutability": "view",
      "type": "function"
    },
    {
      "inputs": [
        {
          "internalType": "uint256",
          "name": "_id",
          "type": "uint256"
        }
      ],
      "name": "cancelCampaign",
      "outputs": [],
      "stateMutability": "nonpayable",
      "type": "function"
    },
    {
      "inputs": [
        {
          "internalType": "uint256",
          "name": "_id",
          "type": "uint256"
        }
      ],
      "name": "claim",
      "outputs": [],
      "stateMutability": "nonpayable",
      "type": "function"
    },
    {
      "inputs": [
        {
          "internalType": "string",
          "name": "_title",
          "type": "string"
        },
        {
          "internalType": "string",
          "name": "_description",
          "type": "string"
        },
        {
          "internalType": "string",
          "name": "_campaignImage",
          "type": "string"
        },
        {
          "internalType": "uint256",
          "name": "_goal",
          "type": "uint256"
        },
        {
          "internalType": "address",
          "name": "_token",
          "type": "address"
        },
        {
          "internalType": "uint256",
          "name": "_startCampaign",
          "type": "uint256"
        },
        {
          "internalType": "uint256",
          "name": "_endCampaign",
          "type": "uint256"
        }
      ],
      "name": "createCampaign",
      "outputs": [],
      "stateMutability": "nonpayable",
      "type": "function"
    },
    {
      "inputs": [],
      "name": "deadline",
      "outputs": [
        {
          "internalType": "uint256",
          "name": "",
          "type": "uint256"
        }
      ],
      "stateMutability": "view",
      "type": "function"
    },
    {
      "inputs": [
        {
          "internalType": "uint256",
          "name": "_deadline",
          "type": "uint256"
        }
      ],
      "name": "initialize",
      "outputs": [],
      "stateMutability": "nonpayable",
      "type": "function"
    },
    {
      "inputs": [],
      "name": "numberOfCampaigns",
      "outputs": [
        {
          "internalType": "uint256",
          "name": "",
          "type": "uint256"
        }
      ],
      "stateMutability": "view",
      "type": "function"
    },
    {
      "inputs": [
        {
          "internalType": "uint256",
          "name": "_id",
          "type": "uint256"
        },
        {
          "internalType": "uint256",
          "name": "_amount",
          "type": "uint256"
        }
      ],
      "name": "pledge",
      "outputs": [],
      "stateMutability": "nonpayable",
      "type": "function"
    },
    {
      "inputs": [
        {
          "internalType": "uint256",
          "name": "",
          "type": "uint256"
        },
        {
          "internalType": "address",
          "name": "",
          "type": "address"
        }
      ],
      "name": "pledgedAmount",
      "outputs": [
        {
          "internalType": "uint256",
          "name": "",
          "type": "uint256"
        }
      ],
      "stateMutability": "view",
      "type": "function"
    },
    {
      "inputs": [
        {
          "internalType": "uint256",
          "name": "_id",
          "type": "uint256"
        }
      ],
      "name": "refund",
      "outputs": [],
      "stateMutability": "nonpayable",
      "type": "function"
    },
    {
      "inputs": [
        {
          "internalType": "uint256",
          "name": "_id",
          "type": "uint256"
        },
        {
          "internalType": "uint256",
          "name": "_amount",
          "type": "uint256"
        }
      ],
      "name": "unPledge",
      "outputs": [],
      "stateMutability": "nonpayable",
      "type": "function"
    }
  ],
  "bytecode": "0x60806040523480156200001157600080fd5b50620000226200002860201b60201c565b620001d3565b600060019054906101000a900460ff16156200007b576040517f08c379a0000000000000000000000000000000000000000000000000000000008152600401620000729062000176565b60405180910390fd5b60ff801660008054906101000a900460ff1660ff161015620000ed5760ff6000806101000a81548160ff021916908360ff1602179055507f7f26b83ff96e1f2b6a682f133852f6798a09c465da95921460cefb384740249860ff604051620000e49190620001b6565b60405180910390a15b565b600082825260208201905092915050565b7f496e697469616c697a61626c653a20636f6e747261637420697320696e69746960008201527f616c697a696e6700000000000000000000000000000000000000000000000000602082015250565b60006200015e602783620000ef565b91506200016b8262000100565b604082019050919050565b6000602082019050818103600083015262000191816200014f565b9050919050565b600060ff82169050919050565b620001b08162000198565b82525050565b6000602082019050620001cd6000830184620001a5565b92915050565b612d8980620001e36000396000f3fe608060405234801561001057600080fd5b50600436106100a95760003560e01c806345598b4a1161007157806345598b4a1461015b578063a3a0e93614610177578063aa4fb63a14610193578063adb1be40146101c3578063fde327be146101df578063fe4b84df146101fb576100a9565b806307ca140d146100ae578063141961bc146100cc578063278ecde11461010557806329dcb0cf14610121578063379607f51461013f575b600080fd5b6100b6610217565b6040516100c39190611a2c565b60405180910390f35b6100e660048036038101906100e19190611a87565b61021d565b6040516100fc9a99989796959493929190611ba0565b60405180910390f35b61011f600480360381019061011a9190611a87565b610456565b005b610129610932565b6040516101369190611a2c565b60405180910390f35b61015960048036038101906101549190611a87565b610938565b005b61017560048036038101906101709190611a87565b610be7565b005b610191600480360381019061018c9190611c51565b61106a565b005b6101ad60048036038101906101a89190611cbd565b61131b565b6040516101ba9190611a2c565b60405180910390f35b6101dd60048036038101906101d89190611e32565b611340565b005b6101f960048036038101906101f49190611c51565b611635565b005b61021560048036038101906102109190611a87565b611855565b005b60015481565b60036020528060005260406000206000915090508060000160009054906101000a900473ffffffffffffffffffffffffffffffffffffffff169080600101805461026690611f57565b80601f016020809104026020016040519081016040528092919081815260200182805461029290611f57565b80156102df5780601f106102b4576101008083540402835291602001916102df565b820191906000526020600020905b8154815290600101906020018083116102c257829003601f168201915b5050505050908060020180546102f490611f57565b80601f016020809104026020016040519081016040528092919081815260200182805461032090611f57565b801561036d5780601f106103425761010080835404028352916020019161036d565b820191906000526020600020905b81548152906001019060200180831161035057829003601f168201915b50505050509080600301805461038290611f57565b80601f01602080910402602001604051908101604052809291908181526020018280546103ae90611f57565b80156103fb5780601f106103d0576101008083540402835291602001916103fb565b820191906000526020600020905b8154815290600101906020018083116103de57829003601f168201915b5050505050908060040154908060050154908060060154908060070154908060080160009054906101000a900473ffffffffffffffffffffffffffffffffffffffff16908060080160149054906101000a900460ff1690508a565b600060036000838152602001908152602001600020604051806101400160405290816000820160009054906101000a900473ffffffffffffffffffffffffffffffffffffffff1673ffffffffffffffffffffffffffffffffffffffff1673ffffffffffffffffffffffffffffffffffffffff1681526020016001820180546104dd90611f57565b80601f016020809104026020016040519081016040528092919081815260200182805461050990611f57565b80156105565780601f1061052b57610100808354040283529160200191610556565b820191906000526020600020905b81548152906001019060200180831161053957829003601f168201915b5050505050815260200160028201805461056f90611f57565b80601f016020809104026020016040519081016040528092919081815260200182805461059b90611f57565b80156105e85780601f106105bd576101008083540402835291602001916105e8565b820191906000526020600020905b8154815290600101906020018083116105cb57829003601f168201915b5050505050815260200160038201805461060190611f57565b80601f016020809104026020016040519081016040528092919081815260200182805461062d90611f57565b801561067a5780601f1061064f5761010080835404028352916020019161067a565b820191906000526020600020905b81548152906001019060200180831161065d57829003601f168201915b50505050508152602001600482015481526020016005820154815260200160068201548152602001600782015481526020016008820160009054906101000a900473ffffffffffffffffffffffffffffffffffffffff1673ffffffffffffffffffffffffffffffffffffffff1673ffffffffffffffffffffffffffffffffffffffff1681526020016008820160149054906101000a900460ff16151515158152505090508060e001514211610764576040517f08c379a000000000000000000000000000000000000000000000000000000000815260040161075b90611fd4565b60405180910390fd5b80608001518160a00151106107ae576040517f08c379a00000000000000000000000000000000000000000000000000000000081526004016107a590612066565b60405180910390fd5b60006004600084815260200190815260200160002060003373ffffffffffffffffffffffffffffffffffffffff1673ffffffffffffffffffffffffffffffffffffffff16815260200190815260200160002054905060006004600085815260200190815260200160002060003373ffffffffffffffffffffffffffffffffffffffff1673ffffffffffffffffffffffffffffffffffffffff1681526020019081526020016000208190555081610100015173ffffffffffffffffffffffffffffffffffffffff1663a9059cbb33836040518363ffffffff1660e01b8152600401610899929190612086565b6020604051808303816000875af11580156108b8573d6000803e3d6000fd5b505050506040513d601f19601f820116820180604052508101906108dc91906120db565b503373ffffffffffffffffffffffffffffffffffffffff167f8ece18c5319415fdd4c766cb302c9e3c7df75d2c2d72e628dc9f90234d532888848360405161092592919061217a565b60405180910390a2505050565b60025481565b60006003600083815260200190815260200160002090503373ffffffffffffffffffffffffffffffffffffffff168160000160009054906101000a900473ffffffffffffffffffffffffffffffffffffffff1673ffffffffffffffffffffffffffffffffffffffff16146109e1576040517f08c379a00000000000000000000000000000000000000000000000000000000081526004016109d890612202565b60405180910390fd5b80600701544211610a27576040517f08c379a0000000000000000000000000000000000000000000000000000000008152600401610a1e90611fd4565b60405180910390fd5b806004015481600501541015610a72576040517f08c379a0000000000000000000000000000000000000000000000000000000008152600401610a699061226e565b60405180910390fd5b8060080160149054906101000a900460ff1615610ac4576040517f08c379a0000000000000000000000000000000000000000000000000000000008152600401610abb906122da565b60405180910390fd5b60018160080160146101000a81548160ff0219169083151502179055508060080160009054906101000a900473ffffffffffffffffffffffffffffffffffffffff1673ffffffffffffffffffffffffffffffffffffffff1663a9059cbb8260000160009054906101000a900473ffffffffffffffffffffffffffffffffffffffff1683600501546040518363ffffffff1660e01b8152600401610b68929190612086565b6020604051808303816000875af1158015610b87573d6000803e3d6000fd5b505050506040513d601f19601f82011682018060405250810190610bab91906120db565b507feb319f97cf997e8e53ee0a45fd354ef78de6d5a4f8e78f1cfa61f6ddb87efadf82604051610bdb9190612346565b60405180910390a15050565b600060036000838152602001908152602001600020604051806101400160405290816000820160009054906101000a900473ffffffffffffffffffffffffffffffffffffffff1673ffffffffffffffffffffffffffffffffffffffff1673ffffffffffffffffffffffffffffffffffffffff168152602001600182018054610c6e90611f57565b80601f0160208091040260200160405190810160405280929190818152602001828054610c9a90611f57565b8015610ce75780601f10610cbc57610100808354040283529160200191610ce7565b820191906000526020600020905b815481529060010190602001808311610cca57829003601f168201915b50505050508152602001600282018054610d0090611f57565b80601f0160208091040260200160405190810160405280929190818152602001828054610d2c90611f57565b8015610d795780601f10610d4e57610100808354040283529160200191610d79565b820191906000526020600020905b815481529060010190602001808311610d5c57829003601f168201915b50505050508152602001600382018054610d9290611f57565b80601f0160208091040260200160405190810160405280929190818152602001828054610dbe90611f57565b8015610e0b5780601f10610de057610100808354040283529160200191610e0b565b820191906000526020600020905b815481529060010190602001808311610dee57829003601f168201915b50505050508152602001600482015481526020016005820154815260200160068201548152602001600782015481526020016008820160009054906101000a900473ffffffffffffffffffffffffffffffffffffffff1673ffffffffffffffffffffffffffffffffffffffff1673ffffffffffffffffffffffffffffffffffffffff1681526020016008820160149054906101000a900460ff16151515158152505090503373ffffffffffffffffffffffffffffffffffffffff16816000015173ffffffffffffffffffffffffffffffffffffffff1614610f21576040517f08c379a0000000000000000000000000000000000000000000000000000000008152600401610f1890612202565b60405180910390fd5b8060c001514210610f67576040517f08c379a0000000000000000000000000000000000000000000000000000000008152600401610f5e906123c0565b60405180910390fd5b60036000838152602001908152602001600020600080820160006101000a81549073ffffffffffffffffffffffffffffffffffffffff0219169055600182016000610fb291906119b6565b600282016000610fc291906119b6565b600382016000610fd291906119b6565b60048201600090556005820160009055600682016000905560078201600090556008820160006101000a81549073ffffffffffffffffffffffffffffffffffffffff02191690556008820160146101000a81549060ff021916905550507ff021e62333cdfbbd34d095d4f9914d4a723cc108f866fba75fc4581b1a34fa1f8260405161105e919061242c565b60405180910390a15050565b600060036000848152602001908152602001600020905080600601544210156110c8576040517f08c379a00000000000000000000000000000000000000000000000000000000081526004016110bf906124a6565b60405180910390fd5b806007015442111561110f576040517f08c379a000000000000000000000000000000000000000000000000000000000815260040161110690612512565b60405180910390fd5b816004600085815260200190815260200160002060003373ffffffffffffffffffffffffffffffffffffffff1673ffffffffffffffffffffffffffffffffffffffff1681526020019081526020016000205410156111a2576040517f08c379a0000000000000000000000000000000000000000000000000000000008152600401611199906125a4565b60405180910390fd5b818160050160008282546111b691906125f3565b92505081905550816004600085815260200190815260200160002060003373ffffffffffffffffffffffffffffffffffffffff1673ffffffffffffffffffffffffffffffffffffffff168152602001908152602001600020600082825461121d91906125f3565b925050819055508060080160009054906101000a900473ffffffffffffffffffffffffffffffffffffffff1673ffffffffffffffffffffffffffffffffffffffff1663a9059cbb33846040518363ffffffff1660e01b8152600401611283929190612086565b6020604051808303816000875af11580156112a2573d6000803e3d6000fd5b505050506040513d601f19601f820116820180604052508101906112c691906120db565b503373ffffffffffffffffffffffffffffffffffffffff16837f7fc41cf2a0f8c3cef90600a4ec4dbcb8f814b934f75969aac10cc061f30b6fc28460405161130e9190612673565b60405180910390a3505050565b6004602052816000526040600020602052806000526040600020600091509150505481565b42821015611383576040517f08c379a000000000000000000000000000000000000000000000000000000000815260040161137a90612713565b60405180910390fd5b8181116113c5576040517f08c379a00000000000000000000000000000000000000000000000000000000081526004016113bc906127a5565b60405180910390fd5b600254426113d391906127c5565b811115611415576040517f08c379a000000000000000000000000000000000000000000000000000000000815260040161140c9061286b565b60405180910390fd5b600180600082825461142791906127c5565b925050819055506040518061014001604052803373ffffffffffffffffffffffffffffffffffffffff168152602001888152602001878152602001868152602001858152602001600081526020018381526020018281526020018473ffffffffffffffffffffffffffffffffffffffff1681526020016000151581525060036000600154815260200190815260200160002060008201518160000160006101000a81548173ffffffffffffffffffffffffffffffffffffffff021916908373ffffffffffffffffffffffffffffffffffffffff16021790555060208201518160010190816115159190612a37565b50604082015181600201908161152b9190612a37565b5060608201518160030190816115419190612a37565b506080820151816004015560a0820151816005015560c0820151816006015560e082015181600701556101008201518160080160006101000a81548173ffffffffffffffffffffffffffffffffffffffff021916908373ffffffffffffffffffffffffffffffffffffffff1602179055506101208201518160080160146101000a81548160ff0219169083151502179055509050503373ffffffffffffffffffffffffffffffffffffffff167fa7693ff5485219625fe509f2f6231903e55cb8b439a8c76607c0bcd5ece3df8f6001548685856040516116249493929190612b55565b60405180910390a250505050505050565b60006003600084815260200190815260200160002090508060060154421015611693576040517f08c379a000000000000000000000000000000000000000000000000000000000815260040161168a906124a6565b60405180910390fd5b80600701544211156116da576040517f08c379a00000000000000000000000000000000000000000000000000000000081526004016116d190612512565b60405180910390fd5b818160050160008282546116ee91906127c5565b92505081905550816004600085815260200190815260200160002060003373ffffffffffffffffffffffffffffffffffffffff1673ffffffffffffffffffffffffffffffffffffffff168152602001908152602001600020600082825461175591906127c5565b925050819055508060080160009054906101000a900473ffffffffffffffffffffffffffffffffffffffff1673ffffffffffffffffffffffffffffffffffffffff166323b872dd3330856040518463ffffffff1660e01b81526004016117bd93929190612bad565b6020604051808303816000875af11580156117dc573d6000803e3d6000fd5b505050506040513d601f19601f8201168201806040525081019061180091906120db565b503373ffffffffffffffffffffffffffffffffffffffff16837ffebcae76329e8ea12af0eda54f161fdb1f34de201cd457d831c5836eadb6706d846040516118489190612c30565b60405180910390a3505050565b60008060019054906101000a900460ff161590508080156118865750600160008054906101000a900460ff1660ff16105b806118b3575061189530611993565b1580156118b25750600160008054906101000a900460ff1660ff16145b5b6118f2576040517f08c379a00000000000000000000000000000000000000000000000000000000081526004016118e990612cd0565b60405180910390fd5b60016000806101000a81548160ff021916908360ff160217905550801561192f576001600060016101000a81548160ff0219169083151502179055505b81600281905550801561198f5760008060016101000a81548160ff0219169083151502179055507f7f26b83ff96e1f2b6a682f133852f6798a09c465da95921460cefb384740249860016040516119869190612d38565b60405180910390a15b5050565b6000808273ffffffffffffffffffffffffffffffffffffffff163b119050919050565b5080546119c290611f57565b6000825580601f106119d457506119f3565b601f0160209004906000526020600020908101906119f291906119f6565b5b50565b5b80821115611a0f5760008160009055506001016119f7565b5090565b6000819050919050565b611a2681611a13565b82525050565b6000602082019050611a416000830184611a1d565b92915050565b6000604051905090565b600080fd5b600080fd5b611a6481611a13565b8114611a6f57600080fd5b50565b600081359050611a8181611a5b565b92915050565b600060208284031215611a9d57611a9c611a51565b5b6000611aab84828501611a72565b91505092915050565b600073ffffffffffffffffffffffffffffffffffffffff82169050919050565b6000611adf82611ab4565b9050919050565b611aef81611ad4565b82525050565b600081519050919050565b600082825260208201905092915050565b60005b83811015611b2f578082015181840152602081019050611b14565b60008484015250505050565b6000601f19601f8301169050919050565b6000611b5782611af5565b611b618185611b00565b9350611b71818560208601611b11565b611b7a81611b3b565b840191505092915050565b60008115159050919050565b611b9a81611b85565b82525050565b600061014082019050611bb6600083018d611ae6565b8181036020830152611bc8818c611b4c565b90508181036040830152611bdc818b611b4c565b90508181036060830152611bf0818a611b4c565b9050611bff6080830189611a1d565b611c0c60a0830188611a1d565b611c1960c0830187611a1d565b611c2660e0830186611a1d565b611c34610100830185611ae6565b611c42610120830184611b91565b9b9a5050505050505050505050565b60008060408385031215611c6857611c67611a51565b5b6000611c7685828601611a72565b9250506020611c8785828601611a72565b9150509250929050565b611c9a81611ad4565b8114611ca557600080fd5b50565b600081359050611cb781611c91565b92915050565b60008060408385031215611cd457611cd3611a51565b5b6000611ce285828601611a72565b9250506020611cf385828601611ca8565b9150509250929050565b600080fd5b600080fd5b7f4e487b7100000000000000000000000000000000000000000000000000000000600052604160045260246000fd5b611d3f82611b3b565b810181811067ffffffffffffffff82111715611d5e57611d5d611d07565b5b80604052505050565b6000611d71611a47565b9050611d7d8282611d36565b919050565b600067ffffffffffffffff821115611d9d57611d9c611d07565b5b611da682611b3b565b9050602081019050919050565b82818337600083830152505050565b6000611dd5611dd084611d82565b611d67565b905082815260208101848484011115611df157611df0611d02565b5b611dfc848285611db3565b509392505050565b600082601f830112611e1957611e18611cfd565b5b8135611e29848260208601611dc2565b91505092915050565b600080600080600080600060e0888a031215611e5157611e50611a51565b5b600088013567ffffffffffffffff811115611e6f57611e6e611a56565b5b611e7b8a828b01611e04565b975050602088013567ffffffffffffffff811115611e9c57611e9b611a56565b5b611ea88a828b01611e04565b965050604088013567ffffffffffffffff811115611ec957611ec8611a56565b5b611ed58a828b01611e04565b9550506060611ee68a828b01611a72565b9450506080611ef78a828b01611ca8565b93505060a0611f088a828b01611a72565b92505060c0611f198a828b01611a72565b91505092959891949750929550565b7f4e487b7100000000000000000000000000000000000000000000000000000000600052602260045260246000fd5b60006002820490506001821680611f6f57607f821691505b602082108103611f8257611f81611f28565b5b50919050565b7f43616d706169676e20686173206e6f7420656e64656400000000000000000000600082015250565b6000611fbe601683611b00565b9150611fc982611f88565b602082019050919050565b60006020820190508181036000830152611fed81611fb1565b9050919050565b7f596f752063616e6e6f742057697468647261772c2043616d706169676e20686160008201527f732073756363656564656420616e6420636c61696d6564000000000000000000602082015250565b6000612050603783611b00565b915061205b82611ff4565b604082019050919050565b6000602082019050818103600083015261207f81612043565b9050919050565b600060408201905061209b6000830185611ae6565b6120a86020830184611a1d565b9392505050565b6120b881611b85565b81146120c357600080fd5b50565b6000815190506120d5816120af565b92915050565b6000602082840312156120f1576120f0611a51565b5b60006120ff848285016120c6565b91505092915050565b7f596f757220546f6b656e732061726520726566756e646564207375636365737360008201527f66756c6c79000000000000000000000000000000000000000000000000000000602082015250565b6000612164602583611b00565b915061216f82612108565b604082019050919050565b600060608201905061218f6000830185611a1d565b61219c6020830184611a1d565b81810360408301526121ad81612157565b90509392505050565b7f596f7520646964206e6f742063726561746520746869732043616d706169676e600082015250565b60006121ec602083611b00565b91506121f7826121b6565b602082019050919050565b6000602082019050818103600083015261221b816121df565b9050919050565b7f43616d706169676e20676f616c2069732079657420746f207375636365656400600082015250565b6000612258601f83611b00565b915061226382612222565b602082019050919050565b600060208201905081810360008301526122878161224b565b9050919050565b7f46756e64732061726520616c726561647920636c61696d656400000000000000600082015250565b60006122c4601983611b00565b91506122cf8261228e565b602082019050919050565b600060208201905081810360008301526122f3816122b7565b9050919050565b7f546f6b656e732061726520636c61696d6564207375636365737366756c6c7900600082015250565b6000612330601f83611b00565b915061233b826122fa565b602082019050919050565b600060408201905061235b6000830184611a1d565b818103602083015261236c81612323565b905092915050565b7f43616d706169676e2068617320616c7265616479207374617274656400000000600082015250565b60006123aa601c83611b00565b91506123b582612374565b602082019050919050565b600060208201905081810360008301526123d98161239d565b9050919050565b7f43616d706169676e2063616e63656c6c6564207375636365737366756c6c7900600082015250565b6000612416601f83611b00565b9150612421826123e0565b602082019050919050565b60006040820190506124416000830184611a1d565b818103602083015261245281612409565b905092915050565b7f43616d706169676e20686173206e6f7420537461727465642079657400000000600082015250565b6000612490601c83611b00565b915061249b8261245a565b602082019050919050565b600060208201905081810360008301526124bf81612483565b9050919050565b7f43616d706169676e2068617320616c726561647920656e646564000000000000600082015250565b60006124fc601a83611b00565b9150612507826124c6565b602082019050919050565b6000602082019050818103600083015261252b816124ef565b9050919050565b7f596f7520646f206e6f74206861766520656e6f75676820746f6b656e7320506c60008201527f656467656420746f207769746872617700000000000000000000000000000000602082015250565b600061258e603083611b00565b915061259982612532565b604082019050919050565b600060208201905081810360008301526125bd81612581565b9050919050565b7f4e487b7100000000000000000000000000000000000000000000000000000000600052601160045260246000fd5b60006125fe82611a13565b915061260983611a13565b9250828203905081811115612621576126206125c4565b5b92915050565b7f546f6b656e2061726520756e706c6564676564207375636365737366756c6c79600082015250565b600061265d602083611b00565b915061266882612627565b602082019050919050565b60006040820190506126886000830184611a1d565b818103602083015261269981612650565b905092915050565b7f43616d706169676e2073746172742074696d65206973206c657373207468616e60008201527f2063757272656e7420426c6f636b2054696d657374616d700000000000000000602082015250565b60006126fd603883611b00565b9150612708826126a1565b604082019050919050565b6000602082019050818103600083015261272c816126f0565b9050919050565b7f43616d706169676e20656e642074696d65206973206c657373207468616e207360008201527f746172742074696d650000000000000000000000000000000000000000000000602082015250565b600061278f602983611b00565b915061279a82612733565b604082019050919050565b600060208201905081810360008301526127be81612782565b9050919050565b60006127d082611a13565b91506127db83611a13565b92508282019050808211156127f3576127f26125c4565b5b92915050565b7f43616d706169676e20656e642074696d6520657863656564732074686520646560008201527f61646c696e650000000000000000000000000000000000000000000000000000602082015250565b6000612855602683611b00565b9150612860826127f9565b604082019050919050565b6000602082019050818103600083015261288481612848565b9050919050565b60008190508160005260206000209050919050565b60006020601f8301049050919050565b600082821b905092915050565b6000600883026128ed7fffffffffffffffffffffffffffffffffffffffffffffffffffffffffffffffff826128b0565b6128f786836128b0565b95508019841693508086168417925050509392505050565b6000819050919050565b600061293461292f61292a84611a13565b61290f565b611a13565b9050919050565b6000819050919050565b61294e83612919565b61296261295a8261293b565b8484546128bd565b825550505050565b600090565b61297761296a565b612982818484612945565b505050565b5b818110156129a65761299b60008261296f565b600181019050612988565b5050565b601f8211156129eb576129bc8161288b565b6129c5846128a0565b810160208510156129d4578190505b6129e86129e0856128a0565b830182612987565b50505b505050565b600082821c905092915050565b6000612a0e600019846008026129f0565b1980831691505092915050565b6000612a2783836129fd565b9150826002028217905092915050565b612a4082611af5565b67ffffffffffffffff811115612a5957612a58611d07565b5b612a638254611f57565b612a6e8282856129aa565b600060209050601f831160018114612aa15760008415612a8f578287015190505b612a998582612a1b565b865550612b01565b601f198416612aaf8661288b565b60005b82811015612ad757848901518255600182019150602085019450602081019050612ab2565b86831015612af45784890151612af0601f8916826129fd565b8355505b6001600288020188555050505b505050505050565b7f43616d706169676e2063726561746564207375636365737366756c6c79000000600082015250565b6000612b3f601d83611b00565b9150612b4a82612b09565b602082019050919050565b600060a082019050612b6a6000830187611a1d565b612b776020830186611a1d565b612b846040830185611a1d565b612b916060830184611a1d565b8181036080830152612ba281612b32565b905095945050505050565b6000606082019050612bc26000830186611ae6565b612bcf6020830185611ae6565b612bdc6040830184611a1d565b949350505050565b7f546f6b656e732061726520706c6564676564207375636365737366756c6c7900600082015250565b6000612c1a601f83611b00565b9150612c2582612be4565b602082019050919050565b6000604082019050612c456000830184611a1d565b8181036020830152612c5681612c0d565b905092915050565b7f496e697469616c697a61626c653a20636f6e747261637420697320616c72656160008201527f647920696e697469616c697a6564000000000000000000000000000000000000602082015250565b6000612cba602e83611b00565b9150612cc582612c5e565b604082019050919050565b60006020820190508181036000830152612ce981612cad565b9050919050565b6000819050919050565b600060ff82169050919050565b6000612d22612d1d612d1884612cf0565b61290f565b612cfa565b9050919050565b612d3281612d07565b82525050565b6000602082019050612d4d6000830184612d29565b9291505056fea2646970667358221220f4a33559f25b60a9f878fbd1fe2bcbbf46b11e72a90625b8ea3ccf658ea9623b64736f6c63430008110033",
  "linkReferences": {},
  "deployedLinkReferences": {}
}