{"contracts/Crowdfunding_Version2.sol":{"Crowdfunding_Version2":{"abi":[{"inputs":[],"stateMutability":"nonpayable","type":"constructor"},{"anonymous":false,"inputs":[{"indexed":false,"internalType":"uint256","name":"id","type":"uint256"},{"indexed":false,"internalType":"string","name":"message","type":"string"}],"name":"CampaignCancelled","type":"event"},{"anonymous":false,"inputs":[{"indexed":false,"internalType":"uint256","name":"id","type":"uint256"},{"indexed":true,"internalType":"address","name":"owner","type":"address"},{"indexed":false,"internalType":"uint256","name":"goal","type":"uint256"},{"indexed":false,"internalType":"uint256","name":"startCampaign","type":"uint256"},{"indexed":false,"internalType":"uint256","name":"endCampaign","type":"uint256"},{"indexed":false,"internalType":"string","name":"message","type":"string"}],"name":"CampaignCreated","type":"event"},{"anonymous":false,"inputs":[{"indexed":false,"internalType":"uint256","name":"id","type":"uint256"},{"indexed":false,"internalType":"string","name":"message","type":"string"}],"name":"Claim","type":"event"},{"anonymous":false,"inputs":[{"indexed":false,"internalType":"uint8","name":"version","type":"uint8"}],"name":"Initialized","type":"event"},{"anonymous":false,"inputs":[{"indexed":true,"internalType":"uint256","name":"id","type":"uint256"},{"indexed":true,"internalType":"address","name":"pledger","type":"address"},{"indexed":false,"internalType":"uint256","name":"amount","type":"uint256"},{"indexed":false,"internalType":"string","name":"message","type":"string"}],"name":"Pledge","type":"event"},{"anonymous":false,"inputs":[{"indexed":false,"internalType":"uint256","name":"id","type":"uint256"},{"indexed":true,"internalType":"address","name":"pledger","type":"address"},{"indexed":false,"internalType":"uint256","name":"amount","type":"uint256"},{"indexed":false,"internalType":"string","name":"message","type":"string"}],"name":"Refund","type":"event"},{"anonymous":false,"inputs":[{"indexed":true,"internalType":"uint256","name":"id","type":"uint256"},{"indexed":true,"internalType":"address","name":"pledger","type":"address"},{"indexed":false,"internalType":"uint256","name":"amount","type":"uint256"},{"indexed":false,"internalType":"string","name":"message","type":"string"}],"name":"Unpledge","type":"event"},{"inputs":[{"internalType":"uint256","name":"","type":"uint256"}],"name":"campaigns","outputs":[{"internalType":"address","name":"owner","type":"address"},{"internalType":"string","name":"title","type":"string"},{"internalType":"string","name":"description","type":"string"},{"internalType":"string","name":"campaignImage","type":"string"},{"internalType":"uint256","name":"goal","type":"uint256"},{"internalType":"uint256","name":"pledged","type":"uint256"},{"internalType":"uint256","name":"startCampaign","type":"uint256"},{"internalType":"uint256","name":"endCampaign","type":"uint256"},{"internalType":"address","name":"token","type":"address"},{"internalType":"bool","name":"claimed","type":"bool"}],"stateMutability":"view","type":"function"},{"inputs":[{"internalType":"uint256","name":"_id","type":"uint256"}],"name":"cancelCampaign","outputs":[],"stateMutability":"nonpayable","type":"function"},{"inputs":[{"internalType":"uint256","name":"_newDeadline","type":"uint256"}],"name":"changeDeadline","outputs":[],"stateMutability":"nonpayable","type":"function"},{"inputs":[{"internalType":"uint256","name":"_id","type":"uint256"}],"name":"claim","outputs":[],"stateMutability":"nonpayable","type":"function"},{"inputs":[{"internalType":"string","name":"_title","type":"string"},{"internalType":"string","name":"_description","type":"string"},{"internalType":"string","name":"_campaignImage","type":"string"},{"internalType":"uint256","name":"_goal","type":"uint256"},{"internalType":"address","name":"_token","type":"address"},{"internalType":"uint256","name":"_startCampaign","type":"uint256"},{"internalType":"uint256","name":"_endCampaign","type":"uint256"}],"name":"createCampaign","outputs":[],"stateMutability":"nonpayable","type":"function"},{"inputs":[],"name":"deadline","outputs":[{"internalType":"uint256","name":"","type":"uint256"}],"stateMutability":"view","type":"function"},{"inputs":[{"internalType":"uint256","name":"_deadline","type":"uint256"}],"name":"initialize","outputs":[],"stateMutability":"nonpayable","type":"function"},{"inputs":[],"name":"numberOfCampaigns","outputs":[{"internalType":"uint256","name":"","type":"uint256"}],"stateMutability":"view","type":"function"},{"inputs":[{"internalType":"uint256","name":"_id","type":"uint256"},{"internalType":"uint256","name":"_amount","type":"uint256"}],"name":"pledge","outputs":[],"stateMutability":"nonpayable","type":"function"},{"inputs":[{"internalType":"uint256","name":"","type":"uint256"},{"internalType":"address","name":"","type":"address"}],"name":"pledgedAmount","outputs":[{"internalType":"uint256","name":"","type":"uint256"}],"stateMutability":"view","type":"function"},{"inputs":[{"internalType":"uint256","name":"_id","type":"uint256"}],"name":"refund","outputs":[],"stateMutability":"nonpayable","type":"function"},{"inputs":[{"internalType":"uint256","name":"_id","type":"uint256"},{"internalType":"uint256","name":"_amount","type":"uint256"}],"name":"unPledge","outputs":[],"stateMutability":"nonpayable","type":"function"}],"evm":{"bytecode":{"linkReferences":{},"object":"60806040523480156200001157600080fd5b50620000226200002860201b60201c565b620001d3565b600060019054906101000a900460ff16156200007b576040517f08c379a0000000000000000000000000000000000000000000000000000000008152600401620000729062000176565b60405180910390fd5b60ff801660008054906101000a900460ff1660ff161015620000ed5760ff6000806101000a81548160ff021916908360ff1602179055507f7f26b83ff96e1f2b6a682f133852f6798a09c465da95921460cefb384740249860ff604051620000e49190620001b6565b60405180910390a15b565b600082825260208201905092915050565b7f496e697469616c697a61626c653a20636f6e747261637420697320696e69746960008201527f616c697a696e6700000000000000000000000000000000000000000000000000602082015250565b60006200015e602783620000ef565b91506200016b8262000100565b604082019050919050565b6000602082019050818103600083015262000191816200014f565b9050919050565b600060ff82169050919050565b620001b08162000198565b82525050565b6000602082019050620001cd6000830184620001a5565b92915050565b612dba80620001e36000396000f3fe608060405234801561001057600080fd5b50600436106100b45760003560e01c80637aca97b5116100715780637aca97b514610182578063a3a0e9361461019e578063aa4fb63a146101ba578063adb1be40146101ea578063fde327be14610206578063fe4b84df14610222576100b4565b806307ca140d146100b9578063141961bc146100d7578063278ecde11461011057806329dcb0cf1461012c578063379607f51461014a57806345598b4a14610166575b600080fd5b6100c161023e565b6040516100ce9190611a5d565b60405180910390f35b6100f160048036038101906100ec9190611ab8565b610244565b6040516101079a99989796959493929190611bd1565b60405180910390f35b61012a60048036038101906101259190611ab8565b61047d565b005b610134610959565b6040516101419190611a5d565b60405180910390f35b610164600480360381019061015f9190611ab8565b61095f565b005b610180600480360381019061017b9190611ab8565b610c0e565b005b61019c60048036038101906101979190611ab8565b611091565b005b6101b860048036038101906101b39190611c82565b61109b565b005b6101d460048036038101906101cf9190611cee565b61134c565b6040516101e19190611a5d565b60405180910390f35b61020460048036038101906101ff9190611e63565b611371565b005b610220600480360381019061021b9190611c82565b611666565b005b61023c60048036038101906102379190611ab8565b611886565b005b60015481565b60036020528060005260406000206000915090508060000160009054906101000a900473ffffffffffffffffffffffffffffffffffffffff169080600101805461028d90611f88565b80601f01602080910402602001604051908101604052809291908181526020018280546102b990611f88565b80156103065780601f106102db57610100808354040283529160200191610306565b820191906000526020600020905b8154815290600101906020018083116102e957829003601f168201915b50505050509080600201805461031b90611f88565b80601f016020809104026020016040519081016040528092919081815260200182805461034790611f88565b80156103945780601f1061036957610100808354040283529160200191610394565b820191906000526020600020905b81548152906001019060200180831161037757829003601f168201915b5050505050908060030180546103a990611f88565b80601f01602080910402602001604051908101604052809291908181526020018280546103d590611f88565b80156104225780601f106103f757610100808354040283529160200191610422565b820191906000526020600020905b81548152906001019060200180831161040557829003601f168201915b5050505050908060040154908060050154908060060154908060070154908060080160009054906101000a900473ffffffffffffffffffffffffffffffffffffffff16908060080160149054906101000a900460ff1690508a565b600060036000838152602001908152602001600020604051806101400160405290816000820160009054906101000a900473ffffffffffffffffffffffffffffffffffffffff1673ffffffffffffffffffffffffffffffffffffffff1673ffffffffffffffffffffffffffffffffffffffff16815260200160018201805461050490611f88565b80601f016020809104026020016040519081016040528092919081815260200182805461053090611f88565b801561057d5780601f106105525761010080835404028352916020019161057d565b820191906000526020600020905b81548152906001019060200180831161056057829003601f168201915b5050505050815260200160028201805461059690611f88565b80601f01602080910402602001604051908101604052809291908181526020018280546105c290611f88565b801561060f5780601f106105e45761010080835404028352916020019161060f565b820191906000526020600020905b8154815290600101906020018083116105f257829003601f168201915b5050505050815260200160038201805461062890611f88565b80601f016020809104026020016040519081016040528092919081815260200182805461065490611f88565b80156106a15780601f10610676576101008083540402835291602001916106a1565b820191906000526020600020905b81548152906001019060200180831161068457829003601f168201915b50505050508152602001600482015481526020016005820154815260200160068201548152602001600782015481526020016008820160009054906101000a900473ffffffffffffffffffffffffffffffffffffffff1673ffffffffffffffffffffffffffffffffffffffff1673ffffffffffffffffffffffffffffffffffffffff1681526020016008820160149054906101000a900460ff16151515158152505090508060e00151421161078b576040517f08c379a000000000000000000000000000000000000000000000000000000000815260040161078290612005565b60405180910390fd5b80608001518160a00151106107d5576040517f08c379a00000000000000000000000000000000000000000000000000000000081526004016107cc90612097565b60405180910390fd5b60006004600084815260200190815260200160002060003373ffffffffffffffffffffffffffffffffffffffff1673ffffffffffffffffffffffffffffffffffffffff16815260200190815260200160002054905060006004600085815260200190815260200160002060003373ffffffffffffffffffffffffffffffffffffffff1673ffffffffffffffffffffffffffffffffffffffff1681526020019081526020016000208190555081610100015173ffffffffffffffffffffffffffffffffffffffff1663a9059cbb33836040518363ffffffff1660e01b81526004016108c09291906120b7565b6020604051808303816000875af11580156108df573d6000803e3d6000fd5b505050506040513d601f19601f82011682018060405250810190610903919061210c565b503373ffffffffffffffffffffffffffffffffffffffff167f8ece18c5319415fdd4c766cb302c9e3c7df75d2c2d72e628dc9f90234d532888848360405161094c9291906121ab565b60405180910390a2505050565b60025481565b60006003600083815260200190815260200160002090503373ffffffffffffffffffffffffffffffffffffffff168160000160009054906101000a900473ffffffffffffffffffffffffffffffffffffffff1673ffffffffffffffffffffffffffffffffffffffff1614610a08576040517f08c379a00000000000000000000000000000000000000000000000000000000081526004016109ff90612233565b60405180910390fd5b80600701544211610a4e576040517f08c379a0000000000000000000000000000000000000000000000000000000008152600401610a4590612005565b60405180910390fd5b806004015481600501541015610a99576040517f08c379a0000000000000000000000000000000000000000000000000000000008152600401610a909061229f565b60405180910390fd5b8060080160149054906101000a900460ff1615610aeb576040517f08c379a0000000000000000000000000000000000000000000000000000000008152600401610ae29061230b565b60405180910390fd5b60018160080160146101000a81548160ff0219169083151502179055508060080160009054906101000a900473ffffffffffffffffffffffffffffffffffffffff1673ffffffffffffffffffffffffffffffffffffffff1663a9059cbb8260000160009054906101000a900473ffffffffffffffffffffffffffffffffffffffff1683600501546040518363ffffffff1660e01b8152600401610b8f9291906120b7565b6020604051808303816000875af1158015610bae573d6000803e3d6000fd5b505050506040513d601f19601f82011682018060405250810190610bd2919061210c565b507feb319f97cf997e8e53ee0a45fd354ef78de6d5a4f8e78f1cfa61f6ddb87efadf82604051610c029190612377565b60405180910390a15050565b600060036000838152602001908152602001600020604051806101400160405290816000820160009054906101000a900473ffffffffffffffffffffffffffffffffffffffff1673ffffffffffffffffffffffffffffffffffffffff1673ffffffffffffffffffffffffffffffffffffffff168152602001600182018054610c9590611f88565b80601f0160208091040260200160405190810160405280929190818152602001828054610cc190611f88565b8015610d0e5780601f10610ce357610100808354040283529160200191610d0e565b820191906000526020600020905b815481529060010190602001808311610cf157829003601f168201915b50505050508152602001600282018054610d2790611f88565b80601f0160208091040260200160405190810160405280929190818152602001828054610d5390611f88565b8015610da05780601f10610d7557610100808354040283529160200191610da0565b820191906000526020600020905b815481529060010190602001808311610d8357829003601f168201915b50505050508152602001600382018054610db990611f88565b80601f0160208091040260200160405190810160405280929190818152602001828054610de590611f88565b8015610e325780601f10610e0757610100808354040283529160200191610e32565b820191906000526020600020905b815481529060010190602001808311610e1557829003601f168201915b50505050508152602001600482015481526020016005820154815260200160068201548152602001600782015481526020016008820160009054906101000a900473ffffffffffffffffffffffffffffffffffffffff1673ffffffffffffffffffffffffffffffffffffffff1673ffffffffffffffffffffffffffffffffffffffff1681526020016008820160149054906101000a900460ff16151515158152505090503373ffffffffffffffffffffffffffffffffffffffff16816000015173ffffffffffffffffffffffffffffffffffffffff1614610f48576040517f08c379a0000000000000000000000000000000000000000000000000000000008152600401610f3f90612233565b60405180910390fd5b8060c001514210610f8e576040517f08c379a0000000000000000000000000000000000000000000000000000000008152600401610f85906123f1565b60405180910390fd5b60036000838152602001908152602001600020600080820160006101000a81549073ffffffffffffffffffffffffffffffffffffffff0219169055600182016000610fd991906119e7565b600282016000610fe991906119e7565b600382016000610ff991906119e7565b60048201600090556005820160009055600682016000905560078201600090556008820160006101000a81549073ffffffffffffffffffffffffffffffffffffffff02191690556008820160146101000a81549060ff021916905550507ff021e62333cdfbbd34d095d4f9914d4a723cc108f866fba75fc4581b1a34fa1f82604051611085919061245d565b60405180910390a15050565b8060028190555050565b600060036000848152602001908152602001600020905080600601544210156110f9576040517f08c379a00000000000000000000000000000000000000000000000000000000081526004016110f0906124d7565b60405180910390fd5b8060070154421115611140576040517f08c379a000000000000000000000000000000000000000000000000000000000815260040161113790612543565b60405180910390fd5b816004600085815260200190815260200160002060003373ffffffffffffffffffffffffffffffffffffffff1673ffffffffffffffffffffffffffffffffffffffff1681526020019081526020016000205410156111d3576040517f08c379a00000000000000000000000000000000000000000000000000000000081526004016111ca906125d5565b60405180910390fd5b818160050160008282546111e79190612624565b92505081905550816004600085815260200190815260200160002060003373ffffffffffffffffffffffffffffffffffffffff1673ffffffffffffffffffffffffffffffffffffffff168152602001908152602001600020600082825461124e9190612624565b925050819055508060080160009054906101000a900473ffffffffffffffffffffffffffffffffffffffff1673ffffffffffffffffffffffffffffffffffffffff1663a9059cbb33846040518363ffffffff1660e01b81526004016112b49291906120b7565b6020604051808303816000875af11580156112d3573d6000803e3d6000fd5b505050506040513d601f19601f820116820180604052508101906112f7919061210c565b503373ffffffffffffffffffffffffffffffffffffffff16837f7fc41cf2a0f8c3cef90600a4ec4dbcb8f814b934f75969aac10cc061f30b6fc28460405161133f91906126a4565b60405180910390a3505050565b6004602052816000526040600020602052806000526040600020600091509150505481565b428210156113b4576040517f08c379a00000000000000000000000000000000000000000000000000000000081526004016113ab90612744565b60405180910390fd5b8181116113f6576040517f08c379a00000000000000000000000000000000000000000000000000000000081526004016113ed906127d6565b60405180910390fd5b6002544261140491906127f6565b811115611446576040517f08c379a000000000000000000000000000000000000000000000000000000000815260040161143d9061289c565b60405180910390fd5b600180600082825461145891906127f6565b925050819055506040518061014001604052803373ffffffffffffffffffffffffffffffffffffffff168152602001888152602001878152602001868152602001858152602001600081526020018381526020018281526020018473ffffffffffffffffffffffffffffffffffffffff1681526020016000151581525060036000600154815260200190815260200160002060008201518160000160006101000a81548173ffffffffffffffffffffffffffffffffffffffff021916908373ffffffffffffffffffffffffffffffffffffffff16021790555060208201518160010190816115469190612a68565b50604082015181600201908161155c9190612a68565b5060608201518160030190816115729190612a68565b506080820151816004015560a0820151816005015560c0820151816006015560e082015181600701556101008201518160080160006101000a81548173ffffffffffffffffffffffffffffffffffffffff021916908373ffffffffffffffffffffffffffffffffffffffff1602179055506101208201518160080160146101000a81548160ff0219169083151502179055509050503373ffffffffffffffffffffffffffffffffffffffff167fa7693ff5485219625fe509f2f6231903e55cb8b439a8c76607c0bcd5ece3df8f6001548685856040516116559493929190612b86565b60405180910390a250505050505050565b600060036000848152602001908152602001600020905080600601544210156116c4576040517f08c379a00000000000000000000000000000000000000000000000000000000081526004016116bb906124d7565b60405180910390fd5b806007015442111561170b576040517f08c379a000000000000000000000000000000000000000000000000000000000815260040161170290612543565b60405180910390fd5b8181600501600082825461171f91906127f6565b92505081905550816004600085815260200190815260200160002060003373ffffffffffffffffffffffffffffffffffffffff1673ffffffffffffffffffffffffffffffffffffffff168152602001908152602001600020600082825461178691906127f6565b925050819055508060080160009054906101000a900473ffffffffffffffffffffffffffffffffffffffff1673ffffffffffffffffffffffffffffffffffffffff166323b872dd3330856040518463ffffffff1660e01b81526004016117ee93929190612bde565b6020604051808303816000875af115801561180d573d6000803e3d6000fd5b505050506040513d601f19601f82011682018060405250810190611831919061210c565b503373ffffffffffffffffffffffffffffffffffffffff16837ffebcae76329e8ea12af0eda54f161fdb1f34de201cd457d831c5836eadb6706d846040516118799190612c61565b60405180910390a3505050565b60008060019054906101000a900460ff161590508080156118b75750600160008054906101000a900460ff1660ff16105b806118e457506118c6306119c4565b1580156118e35750600160008054906101000a900460ff1660ff16145b5b611923576040517f08c379a000000000000000000000000000000000000000000000000000000000815260040161191a90612d01565b60405180910390fd5b60016000806101000a81548160ff021916908360ff1602179055508015611960576001600060016101000a81548160ff0219169083151502179055505b8160028190555080156119c05760008060016101000a81548160ff0219169083151502179055507f7f26b83ff96e1f2b6a682f133852f6798a09c465da95921460cefb384740249860016040516119b79190612d69565b60405180910390a15b5050565b6000808273ffffffffffffffffffffffffffffffffffffffff163b119050919050565b5080546119f390611f88565b6000825580601f10611a055750611a24565b601f016020900490600052602060002090810190611a239190611a27565b5b50565b5b80821115611a40576000816000905550600101611a28565b5090565b6000819050919050565b611a5781611a44565b82525050565b6000602082019050611a726000830184611a4e565b92915050565b6000604051905090565b600080fd5b600080fd5b611a9581611a44565b8114611aa057600080fd5b50565b600081359050611ab281611a8c565b92915050565b600060208284031215611ace57611acd611a82565b5b6000611adc84828501611aa3565b91505092915050565b600073ffffffffffffffffffffffffffffffffffffffff82169050919050565b6000611b1082611ae5565b9050919050565b611b2081611b05565b82525050565b600081519050919050565b600082825260208201905092915050565b60005b83811015611b60578082015181840152602081019050611b45565b60008484015250505050565b6000601f19601f8301169050919050565b6000611b8882611b26565b611b928185611b31565b9350611ba2818560208601611b42565b611bab81611b6c565b840191505092915050565b60008115159050919050565b611bcb81611bb6565b82525050565b600061014082019050611be7600083018d611b17565b8181036020830152611bf9818c611b7d565b90508181036040830152611c0d818b611b7d565b90508181036060830152611c21818a611b7d565b9050611c306080830189611a4e565b611c3d60a0830188611a4e565b611c4a60c0830187611a4e565b611c5760e0830186611a4e565b611c65610100830185611b17565b611c73610120830184611bc2565b9b9a5050505050505050505050565b60008060408385031215611c9957611c98611a82565b5b6000611ca785828601611aa3565b9250506020611cb885828601611aa3565b9150509250929050565b611ccb81611b05565b8114611cd657600080fd5b50565b600081359050611ce881611cc2565b92915050565b60008060408385031215611d0557611d04611a82565b5b6000611d1385828601611aa3565b9250506020611d2485828601611cd9565b9150509250929050565b600080fd5b600080fd5b7f4e487b7100000000000000000000000000000000000000000000000000000000600052604160045260246000fd5b611d7082611b6c565b810181811067ffffffffffffffff82111715611d8f57611d8e611d38565b5b80604052505050565b6000611da2611a78565b9050611dae8282611d67565b919050565b600067ffffffffffffffff821115611dce57611dcd611d38565b5b611dd782611b6c565b9050602081019050919050565b82818337600083830152505050565b6000611e06611e0184611db3565b611d98565b905082815260208101848484011115611e2257611e21611d33565b5b611e2d848285611de4565b509392505050565b600082601f830112611e4a57611e49611d2e565b5b8135611e5a848260208601611df3565b91505092915050565b600080600080600080600060e0888a031215611e8257611e81611a82565b5b600088013567ffffffffffffffff811115611ea057611e9f611a87565b5b611eac8a828b01611e35565b975050602088013567ffffffffffffffff811115611ecd57611ecc611a87565b5b611ed98a828b01611e35565b965050604088013567ffffffffffffffff811115611efa57611ef9611a87565b5b611f068a828b01611e35565b9550506060611f178a828b01611aa3565b9450506080611f288a828b01611cd9565b93505060a0611f398a828b01611aa3565b92505060c0611f4a8a828b01611aa3565b91505092959891949750929550565b7f4e487b7100000000000000000000000000000000000000000000000000000000600052602260045260246000fd5b60006002820490506001821680611fa057607f821691505b602082108103611fb357611fb2611f59565b5b50919050565b7f43616d706169676e20686173206e6f7420656e64656400000000000000000000600082015250565b6000611fef601683611b31565b9150611ffa82611fb9565b602082019050919050565b6000602082019050818103600083015261201e81611fe2565b9050919050565b7f596f752063616e6e6f742057697468647261772c2043616d706169676e20686160008201527f732073756363656564656420616e6420636c61696d6564000000000000000000602082015250565b6000612081603783611b31565b915061208c82612025565b604082019050919050565b600060208201905081810360008301526120b081612074565b9050919050565b60006040820190506120cc6000830185611b17565b6120d96020830184611a4e565b9392505050565b6120e981611bb6565b81146120f457600080fd5b50565b600081519050612106816120e0565b92915050565b60006020828403121561212257612121611a82565b5b6000612130848285016120f7565b91505092915050565b7f596f757220546f6b656e732061726520726566756e646564207375636365737360008201527f66756c6c79000000000000000000000000000000000000000000000000000000602082015250565b6000612195602583611b31565b91506121a082612139565b604082019050919050565b60006060820190506121c06000830185611a4e565b6121cd6020830184611a4e565b81810360408301526121de81612188565b90509392505050565b7f596f7520646964206e6f742063726561746520746869732043616d706169676e600082015250565b600061221d602083611b31565b9150612228826121e7565b602082019050919050565b6000602082019050818103600083015261224c81612210565b9050919050565b7f43616d706169676e20676f616c2069732079657420746f207375636365656400600082015250565b6000612289601f83611b31565b915061229482612253565b602082019050919050565b600060208201905081810360008301526122b88161227c565b9050919050565b7f46756e64732061726520616c726561647920636c61696d656400000000000000600082015250565b60006122f5601983611b31565b9150612300826122bf565b602082019050919050565b60006020820190508181036000830152612324816122e8565b9050919050565b7f546f6b656e732061726520636c61696d6564207375636365737366756c6c7900600082015250565b6000612361601f83611b31565b915061236c8261232b565b602082019050919050565b600060408201905061238c6000830184611a4e565b818103602083015261239d81612354565b905092915050565b7f43616d706169676e2068617320616c7265616479207374617274656400000000600082015250565b60006123db601c83611b31565b91506123e6826123a5565b602082019050919050565b6000602082019050818103600083015261240a816123ce565b9050919050565b7f43616d706169676e2063616e63656c6c6564207375636365737366756c6c7900600082015250565b6000612447601f83611b31565b915061245282612411565b602082019050919050565b60006040820190506124726000830184611a4e565b81810360208301526124838161243a565b905092915050565b7f43616d706169676e20686173206e6f7420537461727465642079657400000000600082015250565b60006124c1601c83611b31565b91506124cc8261248b565b602082019050919050565b600060208201905081810360008301526124f0816124b4565b9050919050565b7f43616d706169676e2068617320616c726561647920656e646564000000000000600082015250565b600061252d601a83611b31565b9150612538826124f7565b602082019050919050565b6000602082019050818103600083015261255c81612520565b9050919050565b7f596f7520646f206e6f74206861766520656e6f75676820746f6b656e7320506c60008201527f656467656420746f207769746872617700000000000000000000000000000000602082015250565b60006125bf603083611b31565b91506125ca82612563565b604082019050919050565b600060208201905081810360008301526125ee816125b2565b9050919050565b7f4e487b7100000000000000000000000000000000000000000000000000000000600052601160045260246000fd5b600061262f82611a44565b915061263a83611a44565b9250828203905081811115612652576126516125f5565b5b92915050565b7f546f6b656e2061726520756e706c6564676564207375636365737366756c6c79600082015250565b600061268e602083611b31565b915061269982612658565b602082019050919050565b60006040820190506126b96000830184611a4e565b81810360208301526126ca81612681565b905092915050565b7f43616d706169676e2073746172742074696d65206973206c657373207468616e60008201527f2063757272656e7420426c6f636b2054696d657374616d700000000000000000602082015250565b600061272e603883611b31565b9150612739826126d2565b604082019050919050565b6000602082019050818103600083015261275d81612721565b9050919050565b7f43616d706169676e20656e642074696d65206973206c657373207468616e207360008201527f746172742074696d650000000000000000000000000000000000000000000000602082015250565b60006127c0602983611b31565b91506127cb82612764565b604082019050919050565b600060208201905081810360008301526127ef816127b3565b9050919050565b600061280182611a44565b915061280c83611a44565b9250828201905080821115612824576128236125f5565b5b92915050565b7f43616d706169676e20656e642074696d6520657863656564732074686520646560008201527f61646c696e650000000000000000000000000000000000000000000000000000602082015250565b6000612886602683611b31565b91506128918261282a565b604082019050919050565b600060208201905081810360008301526128b581612879565b9050919050565b60008190508160005260206000209050919050565b60006020601f8301049050919050565b600082821b905092915050565b60006008830261291e7fffffffffffffffffffffffffffffffffffffffffffffffffffffffffffffffff826128e1565b61292886836128e1565b95508019841693508086168417925050509392505050565b6000819050919050565b600061296561296061295b84611a44565b612940565b611a44565b9050919050565b6000819050919050565b61297f8361294a565b61299361298b8261296c565b8484546128ee565b825550505050565b600090565b6129a861299b565b6129b3818484612976565b505050565b5b818110156129d7576129cc6000826129a0565b6001810190506129b9565b5050565b601f821115612a1c576129ed816128bc565b6129f6846128d1565b81016020851015612a05578190505b612a19612a11856128d1565b8301826129b8565b50505b505050565b600082821c905092915050565b6000612a3f60001984600802612a21565b1980831691505092915050565b6000612a588383612a2e565b9150826002028217905092915050565b612a7182611b26565b67ffffffffffffffff811115612a8a57612a89611d38565b5b612a948254611f88565b612a9f8282856129db565b600060209050601f831160018114612ad25760008415612ac0578287015190505b612aca8582612a4c565b865550612b32565b601f198416612ae0866128bc565b60005b82811015612b0857848901518255600182019150602085019450602081019050612ae3565b86831015612b255784890151612b21601f891682612a2e565b8355505b6001600288020188555050505b505050505050565b7f43616d706169676e2063726561746564207375636365737366756c6c79000000600082015250565b6000612b70601d83611b31565b9150612b7b82612b3a565b602082019050919050565b600060a082019050612b9b6000830187611a4e565b612ba86020830186611a4e565b612bb56040830185611a4e565b612bc26060830184611a4e565b8181036080830152612bd381612b63565b905095945050505050565b6000606082019050612bf36000830186611b17565b612c006020830185611b17565b612c0d6040830184611a4e565b949350505050565b7f546f6b656e732061726520706c6564676564207375636365737366756c6c7900600082015250565b6000612c4b601f83611b31565b9150612c5682612c15565b602082019050919050565b6000604082019050612c766000830184611a4e565b8181036020830152612c8781612c3e565b905092915050565b7f496e697469616c697a61626c653a20636f6e747261637420697320616c72656160008201527f647920696e697469616c697a6564000000000000000000000000000000000000602082015250565b6000612ceb602e83611b31565b9150612cf682612c8f565b604082019050919050565b60006020820190508181036000830152612d1a81612cde565b9050919050565b6000819050919050565b600060ff82169050919050565b6000612d53612d4e612d4984612d21565b612940565b612d2b565b9050919050565b612d6381612d38565b82525050565b6000602082019050612d7e6000830184612d5a565b9291505056fea2646970667358221220d5e95d382b745ace374f80a338ffc191d13fcce13f021538ade446b0634691d064736f6c63430008110033","opcodes":"PUSH1 0x80 PUSH1 0x40 MSTORE CALLVALUE DUP1 ISZERO PUSH3 0x11 JUMPI PUSH1 0x0 DUP1 REVERT JUMPDEST POP PUSH3 0x22 PUSH3 0x28 PUSH1 0x20 SHL PUSH1 0x20 SHR JUMP JUMPDEST PUSH3 0x1D3 JUMP JUMPDEST PUSH1 0x0 PUSH1 0x1 SWAP1 SLOAD SWAP1 PUSH2 0x100 EXP SWAP1 DIV PUSH1 0xFF AND ISZERO PUSH3 0x7B JUMPI PUSH1 0x40 MLOAD PUSH32 0x8C379A000000000000000000000000000000000000000000000000000000000 DUP2 MSTORE PUSH1 0x4 ADD PUSH3 0x72 SWAP1 PUSH3 0x176 JUMP JUMPDEST PUSH1 0x40 MLOAD DUP1 SWAP2 SUB SWAP1 REVERT JUMPDEST PUSH1 0xFF DUP1 AND PUSH1 0x0 DUP1 SLOAD SWAP1 PUSH2 0x100 EXP SWAP1 DIV PUSH1 0xFF AND PUSH1 0xFF AND LT ISZERO PUSH3 0xED JUMPI PUSH1 0xFF PUSH1 0x0 DUP1 PUSH2 0x100 EXP DUP2 SLOAD DUP2 PUSH1 0xFF MUL NOT AND SWAP1 DUP4 PUSH1 0xFF AND MUL OR SWAP1 SSTORE POP PUSH32 0x7F26B83FF96E1F2B6A682F133852F6798A09C465DA95921460CEFB3847402498 PUSH1 0xFF PUSH1 0x40 MLOAD PUSH3 0xE4 SWAP2 SWAP1 PUSH3 0x1B6 JUMP JUMPDEST PUSH1 0x40 MLOAD DUP1 SWAP2 SUB SWAP1 LOG1 JUMPDEST JUMP JUMPDEST PUSH1 0x0 DUP3 DUP3 MSTORE PUSH1 0x20 DUP3 ADD SWAP1 POP SWAP3 SWAP2 POP POP JUMP JUMPDEST PUSH32 0x496E697469616C697A61626C653A20636F6E747261637420697320696E697469 PUSH1 0x0 DUP3 ADD MSTORE PUSH32 0x616C697A696E6700000000000000000000000000000000000000000000000000 PUSH1 0x20 DUP3 ADD MSTORE POP JUMP JUMPDEST PUSH1 0x0 PUSH3 0x15E PUSH1 0x27 DUP4 PUSH3 0xEF JUMP JUMPDEST SWAP2 POP PUSH3 0x16B DUP3 PUSH3 0x100 JUMP JUMPDEST PUSH1 0x40 DUP3 ADD SWAP1 POP SWAP2 SWAP1 POP JUMP JUMPDEST PUSH1 0x0 PUSH1 0x20 DUP3 ADD SWAP1 POP DUP2 DUP2 SUB PUSH1 0x0 DUP4 ADD MSTORE PUSH3 0x191 DUP2 PUSH3 0x14F JUMP JUMPDEST SWAP1 POP SWAP2 SWAP1 POP JUMP JUMPDEST PUSH1 0x0 PUSH1 0xFF DUP3 AND SWAP1 POP SWAP2 SWAP1 POP JUMP JUMPDEST PUSH3 0x1B0 DUP2 PUSH3 0x198 JUMP JUMPDEST DUP3 MSTORE POP POP JUMP JUMPDEST PUSH1 0x0 PUSH1 0x20 DUP3 ADD SWAP1 POP PUSH3 0x1CD PUSH1 0x0 DUP4 ADD DUP5 PUSH3 0x1A5 JUMP JUMPDEST SWAP3 SWAP2 POP POP JUMP JUMPDEST PUSH2 0x2DBA DUP1 PUSH3 0x1E3 PUSH1 0x0 CODECOPY PUSH1 0x0 RETURN INVALID PUSH1 0x80 PUSH1 0x40 MSTORE CALLVALUE DUP1 ISZERO PUSH2 0x10 JUMPI PUSH1 0x0 DUP1 REVERT JUMPDEST POP PUSH1 0x4 CALLDATASIZE LT PUSH2 0xB4 JUMPI PUSH1 0x0 CALLDATALOAD PUSH1 0xE0 SHR DUP1 PUSH4 0x7ACA97B5 GT PUSH2 0x71 JUMPI DUP1 PUSH4 0x7ACA97B5 EQ PUSH2 0x182 JUMPI DUP1 PUSH4 0xA3A0E936 EQ PUSH2 0x19E JUMPI DUP1 PUSH4 0xAA4FB63A EQ PUSH2 0x1BA JUMPI DUP1 PUSH4 0xADB1BE40 EQ PUSH2 0x1EA JUMPI DUP1 PUSH4 0xFDE327BE EQ PUSH2 0x206 JUMPI DUP1 PUSH4 0xFE4B84DF EQ PUSH2 0x222 JUMPI PUSH2 0xB4 JUMP JUMPDEST DUP1 PUSH4 0x7CA140D EQ PUSH2 0xB9 JUMPI DUP1 PUSH4 0x141961BC EQ PUSH2 0xD7 JUMPI DUP1 PUSH4 0x278ECDE1 EQ PUSH2 0x110 JUMPI DUP1 PUSH4 0x29DCB0CF EQ PUSH2 0x12C JUMPI DUP1 PUSH4 0x379607F5 EQ PUSH2 0x14A JUMPI DUP1 PUSH4 0x45598B4A EQ PUSH2 0x166 JUMPI JUMPDEST PUSH1 0x0 DUP1 REVERT JUMPDEST PUSH2 0xC1 PUSH2 0x23E JUMP JUMPDEST PUSH1 0x40 MLOAD PUSH2 0xCE SWAP2 SWAP1 PUSH2 0x1A5D JUMP JUMPDEST PUSH1 0x40 MLOAD DUP1 SWAP2 SUB SWAP1 RETURN JUMPDEST PUSH2 0xF1 PUSH1 0x4 DUP1 CALLDATASIZE SUB DUP2 ADD SWAP1 PUSH2 0xEC SWAP2 SWAP1 PUSH2 0x1AB8 JUMP JUMPDEST PUSH2 0x244 JUMP JUMPDEST PUSH1 0x40 MLOAD PUSH2 0x107 SWAP11 SWAP10 SWAP9 SWAP8 SWAP7 SWAP6 SWAP5 SWAP4 SWAP3 SWAP2 SWAP1 PUSH2 0x1BD1 JUMP JUMPDEST PUSH1 0x40 MLOAD DUP1 SWAP2 SUB SWAP1 RETURN JUMPDEST PUSH2 0x12A PUSH1 0x4 DUP1 CALLDATASIZE SUB DUP2 ADD SWAP1 PUSH2 0x125 SWAP2 SWAP1 PUSH2 0x1AB8 JUMP JUMPDEST PUSH2 0x47D JUMP JUMPDEST STOP JUMPDEST PUSH2 0x134 PUSH2 0x959 JUMP JUMPDEST PUSH1 0x40 MLOAD PUSH2 0x141 SWAP2 SWAP1 PUSH2 0x1A5D JUMP JUMPDEST PUSH1 0x40 MLOAD DUP1 SWAP2 SUB SWAP1 RETURN JUMPDEST PUSH2 0x164 PUSH1 0x4 DUP1 CALLDATASIZE SUB DUP2 ADD SWAP1 PUSH2 0x15F SWAP2 SWAP1 PUSH2 0x1AB8 JUMP JUMPDEST PUSH2 0x95F JUMP JUMPDEST STOP JUMPDEST PUSH2 0x180 PUSH1 0x4 DUP1 CALLDATASIZE SUB DUP2 ADD SWAP1 PUSH2 0x17B SWAP2 SWAP1 PUSH2 0x1AB8 JUMP JUMPDEST PUSH2 0xC0E JUMP JUMPDEST STOP JUMPDEST PUSH2 0x19C PUSH1 0x4 DUP1 CALLDATASIZE SUB DUP2 ADD SWAP1 PUSH2 0x197 SWAP2 SWAP1 PUSH2 0x1AB8 JUMP JUMPDEST PUSH2 0x1091 JUMP JUMPDEST STOP JUMPDEST PUSH2 0x1B8 PUSH1 0x4 DUP1 CALLDATASIZE SUB DUP2 ADD SWAP1 PUSH2 0x1B3 SWAP2 SWAP1 PUSH2 0x1C82 JUMP JUMPDEST PUSH2 0x109B JUMP JUMPDEST STOP JUMPDEST PUSH2 0x1D4 PUSH1 0x4 DUP1 CALLDATASIZE SUB DUP2 ADD SWAP1 PUSH2 0x1CF SWAP2 SWAP1 PUSH2 0x1CEE JUMP JUMPDEST PUSH2 0x134C JUMP JUMPDEST PUSH1 0x40 MLOAD PUSH2 0x1E1 SWAP2 SWAP1 PUSH2 0x1A5D JUMP JUMPDEST PUSH1 0x40 MLOAD DUP1 SWAP2 SUB SWAP1 RETURN JUMPDEST PUSH2 0x204 PUSH1 0x4 DUP1 CALLDATASIZE SUB DUP2 ADD SWAP1 PUSH2 0x1FF SWAP2 SWAP1 PUSH2 0x1E63 JUMP JUMPDEST PUSH2 0x1371 JUMP JUMPDEST STOP JUMPDEST PUSH2 0x220 PUSH1 0x4 DUP1 CALLDATASIZE SUB DUP2 ADD SWAP1 PUSH2 0x21B SWAP2 SWAP1 PUSH2 0x1C82 JUMP JUMPDEST PUSH2 0x1666 JUMP JUMPDEST STOP JUMPDEST PUSH2 0x23C PUSH1 0x4 DUP1 CALLDATASIZE SUB DUP2 ADD SWAP1 PUSH2 0x237 SWAP2 SWAP1 PUSH2 0x1AB8 JUMP JUMPDEST PUSH2 0x1886 JUMP JUMPDEST STOP JUMPDEST PUSH1 0x1 SLOAD DUP2 JUMP JUMPDEST PUSH1 0x3 PUSH1 0x20 MSTORE DUP1 PUSH1 0x0 MSTORE PUSH1 0x40 PUSH1 0x0 KECCAK256 PUSH1 0x0 SWAP2 POP SWAP1 POP DUP1 PUSH1 0x0 ADD PUSH1 0x0 SWAP1 SLOAD SWAP1 PUSH2 0x100 EXP SWAP1 DIV PUSH20 0xFFFFFFFFFFFFFFFFFFFFFFFFFFFFFFFFFFFFFFFF AND SWAP1 DUP1 PUSH1 0x1 ADD DUP1 SLOAD PUSH2 0x28D SWAP1 PUSH2 0x1F88 JUMP JUMPDEST DUP1 PUSH1 0x1F ADD PUSH1 0x20 DUP1 SWAP2 DIV MUL PUSH1 0x20 ADD PUSH1 0x40 MLOAD SWAP1 DUP2 ADD PUSH1 0x40 MSTORE DUP1 SWAP3 SWAP2 SWAP1 DUP2 DUP2 MSTORE PUSH1 0x20 ADD DUP3 DUP1 SLOAD PUSH2 0x2B9 SWAP1 PUSH2 0x1F88 JUMP JUMPDEST DUP1 ISZERO PUSH2 0x306 JUMPI DUP1 PUSH1 0x1F LT PUSH2 0x2DB JUMPI PUSH2 0x100 DUP1 DUP4 SLOAD DIV MUL DUP4 MSTORE SWAP2 PUSH1 0x20 ADD SWAP2 PUSH2 0x306 JUMP JUMPDEST DUP3 ADD SWAP2 SWAP1 PUSH1 0x0 MSTORE PUSH1 0x20 PUSH1 0x0 KECCAK256 SWAP1 JUMPDEST DUP2 SLOAD DUP2 MSTORE SWAP1 PUSH1 0x1 ADD SWAP1 PUSH1 0x20 ADD DUP1 DUP4 GT PUSH2 0x2E9 JUMPI DUP3 SWAP1 SUB PUSH1 0x1F AND DUP3 ADD SWAP2 JUMPDEST POP POP POP POP POP SWAP1 DUP1 PUSH1 0x2 ADD DUP1 SLOAD PUSH2 0x31B SWAP1 PUSH2 0x1F88 JUMP JUMPDEST DUP1 PUSH1 0x1F ADD PUSH1 0x20 DUP1 SWAP2 DIV MUL PUSH1 0x20 ADD PUSH1 0x40 MLOAD SWAP1 DUP2 ADD PUSH1 0x40 MSTORE DUP1 SWAP3 SWAP2 SWAP1 DUP2 DUP2 MSTORE PUSH1 0x20 ADD DUP3 DUP1 SLOAD PUSH2 0x347 SWAP1 PUSH2 0x1F88 JUMP JUMPDEST DUP1 ISZERO PUSH2 0x394 JUMPI DUP1 PUSH1 0x1F LT PUSH2 0x369 JUMPI PUSH2 0x100 DUP1 DUP4 SLOAD DIV MUL DUP4 MSTORE SWAP2 PUSH1 0x20 ADD SWAP2 PUSH2 0x394 JUMP JUMPDEST DUP3 ADD SWAP2 SWAP1 PUSH1 0x0 MSTORE PUSH1 0x20 PUSH1 0x0 KECCAK256 SWAP1 JUMPDEST DUP2 SLOAD DUP2 MSTORE SWAP1 PUSH1 0x1 ADD SWAP1 PUSH1 0x20 ADD DUP1 DUP4 GT PUSH2 0x377 JUMPI DUP3 SWAP1 SUB PUSH1 0x1F AND DUP3 ADD SWAP2 JUMPDEST POP POP POP POP POP SWAP1 DUP1 PUSH1 0x3 ADD DUP1 SLOAD PUSH2 0x3A9 SWAP1 PUSH2 0x1F88 JUMP JUMPDEST DUP1 PUSH1 0x1F ADD PUSH1 0x20 DUP1 SWAP2 DIV MUL PUSH1 0x20 ADD PUSH1 0x40 MLOAD SWAP1 DUP2 ADD PUSH1 0x40 MSTORE DUP1 SWAP3 SWAP2 SWAP1 DUP2 DUP2 MSTORE PUSH1 0x20 ADD DUP3 DUP1 SLOAD PUSH2 0x3D5 SWAP1 PUSH2 0x1F88 JUMP JUMPDEST DUP1 ISZERO PUSH2 0x422 JUMPI DUP1 PUSH1 0x1F LT PUSH2 0x3F7 JUMPI PUSH2 0x100 DUP1 DUP4 SLOAD DIV MUL DUP4 MSTORE SWAP2 PUSH1 0x20 ADD SWAP2 PUSH2 0x422 JUMP JUMPDEST DUP3 ADD SWAP2 SWAP1 PUSH1 0x0 MSTORE PUSH1 0x20 PUSH1 0x0 KECCAK256 SWAP1 JUMPDEST DUP2 SLOAD DUP2 MSTORE SWAP1 PUSH1 0x1 ADD SWAP1 PUSH1 0x20 ADD DUP1 DUP4 GT PUSH2 0x405 JUMPI DUP3 SWAP1 SUB PUSH1 0x1F AND DUP3 ADD SWAP2 JUMPDEST POP POP POP POP POP SWAP1 DUP1 PUSH1 0x4 ADD SLOAD SWAP1 DUP1 PUSH1 0x5 ADD SLOAD SWAP1 DUP1 PUSH1 0x6 ADD SLOAD SWAP1 DUP1 PUSH1 0x7 ADD SLOAD SWAP1 DUP1 PUSH1 0x8 ADD PUSH1 0x0 SWAP1 SLOAD SWAP1 PUSH2 0x100 EXP SWAP1 DIV PUSH20 0xFFFFFFFFFFFFFFFFFFFFFFFFFFFFFFFFFFFFFFFF AND SWAP1 DUP1 PUSH1 0x8 ADD PUSH1 0x14 SWAP1 SLOAD SWAP1 PUSH2 0x100 EXP SWAP1 DIV PUSH1 0xFF AND SWAP1 POP DUP11 JUMP JUMPDEST PUSH1 0x0 PUSH1 0x3 PUSH1 0x0 DUP4 DUP2 MSTORE PUSH1 0x20 ADD SWAP1 DUP2 MSTORE PUSH1 0x20 ADD PUSH1 0x0 KECCAK256 PUSH1 0x40 MLOAD DUP1 PUSH2 0x140 ADD PUSH1 0x40 MSTORE SWAP1 DUP2 PUSH1 0x0 DUP3 ADD PUSH1 0x0 SWAP1 SLOAD SWAP1 PUSH2 0x100 EXP SWAP1 DIV PUSH20 0xFFFFFFFFFFFFFFFFFFFFFFFFFFFFFFFFFFFFFFFF AND PUSH20 0xFFFFFFFFFFFFFFFFFFFFFFFFFFFFFFFFFFFFFFFF AND PUSH20 0xFFFFFFFFFFFFFFFFFFFFFFFFFFFFFFFFFFFFFFFF AND DUP2 MSTORE PUSH1 0x20 ADD PUSH1 0x1 DUP3 ADD DUP1 SLOAD PUSH2 0x504 SWAP1 PUSH2 0x1F88 JUMP JUMPDEST DUP1 PUSH1 0x1F ADD PUSH1 0x20 DUP1 SWAP2 DIV MUL PUSH1 0x20 ADD PUSH1 0x40 MLOAD SWAP1 DUP2 ADD PUSH1 0x40 MSTORE DUP1 SWAP3 SWAP2 SWAP1 DUP2 DUP2 MSTORE PUSH1 0x20 ADD DUP3 DUP1 SLOAD PUSH2 0x530 SWAP1 PUSH2 0x1F88 JUMP JUMPDEST DUP1 ISZERO PUSH2 0x57D JUMPI DUP1 PUSH1 0x1F LT PUSH2 0x552 JUMPI PUSH2 0x100 DUP1 DUP4 SLOAD DIV MUL DUP4 MSTORE SWAP2 PUSH1 0x20 ADD SWAP2 PUSH2 0x57D JUMP JUMPDEST DUP3 ADD SWAP2 SWAP1 PUSH1 0x0 MSTORE PUSH1 0x20 PUSH1 0x0 KECCAK256 SWAP1 JUMPDEST DUP2 SLOAD DUP2 MSTORE SWAP1 PUSH1 0x1 ADD SWAP1 PUSH1 0x20 ADD DUP1 DUP4 GT PUSH2 0x560 JUMPI DUP3 SWAP1 SUB PUSH1 0x1F AND DUP3 ADD SWAP2 JUMPDEST POP POP POP POP POP DUP2 MSTORE PUSH1 0x20 ADD PUSH1 0x2 DUP3 ADD DUP1 SLOAD PUSH2 0x596 SWAP1 PUSH2 0x1F88 JUMP JUMPDEST DUP1 PUSH1 0x1F ADD PUSH1 0x20 DUP1 SWAP2 DIV MUL PUSH1 0x20 ADD PUSH1 0x40 MLOAD SWAP1 DUP2 ADD PUSH1 0x40 MSTORE DUP1 SWAP3 SWAP2 SWAP1 DUP2 DUP2 MSTORE PUSH1 0x20 ADD DUP3 DUP1 SLOAD PUSH2 0x5C2 SWAP1 PUSH2 0x1F88 JUMP JUMPDEST DUP1 ISZERO PUSH2 0x60F JUMPI DUP1 PUSH1 0x1F LT PUSH2 0x5E4 JUMPI PUSH2 0x100 DUP1 DUP4 SLOAD DIV MUL DUP4 MSTORE SWAP2 PUSH1 0x20 ADD SWAP2 PUSH2 0x60F JUMP JUMPDEST DUP3 ADD SWAP2 SWAP1 PUSH1 0x0 MSTORE PUSH1 0x20 PUSH1 0x0 KECCAK256 SWAP1 JUMPDEST DUP2 SLOAD DUP2 MSTORE SWAP1 PUSH1 0x1 ADD SWAP1 PUSH1 0x20 ADD DUP1 DUP4 GT PUSH2 0x5F2 JUMPI DUP3 SWAP1 SUB PUSH1 0x1F AND DUP3 ADD SWAP2 JUMPDEST POP POP POP POP POP DUP2 MSTORE PUSH1 0x20 ADD PUSH1 0x3 DUP3 ADD DUP1 SLOAD PUSH2 0x628 SWAP1 PUSH2 0x1F88 JUMP JUMPDEST DUP1 PUSH1 0x1F ADD PUSH1 0x20 DUP1 SWAP2 DIV MUL PUSH1 0x20 ADD PUSH1 0x40 MLOAD SWAP1 DUP2 ADD PUSH1 0x40 MSTORE DUP1 SWAP3 SWAP2 SWAP1 DUP2 DUP2 MSTORE PUSH1 0x20 ADD DUP3 DUP1 SLOAD PUSH2 0x654 SWAP1 PUSH2 0x1F88 JUMP JUMPDEST DUP1 ISZERO PUSH2 0x6A1 JUMPI DUP1 PUSH1 0x1F LT PUSH2 0x676 JUMPI PUSH2 0x100 DUP1 DUP4 SLOAD DIV MUL DUP4 MSTORE SWAP2 PUSH1 0x20 ADD SWAP2 PUSH2 0x6A1 JUMP JUMPDEST DUP3 ADD SWAP2 SWAP1 PUSH1 0x0 MSTORE PUSH1 0x20 PUSH1 0x0 KECCAK256 SWAP1 JUMPDEST DUP2 SLOAD DUP2 MSTORE SWAP1 PUSH1 0x1 ADD SWAP1 PUSH1 0x20 ADD DUP1 DUP4 GT PUSH2 0x684 JUMPI DUP3 SWAP1 SUB PUSH1 0x1F AND DUP3 ADD SWAP2 JUMPDEST POP POP POP POP POP DUP2 MSTORE PUSH1 0x20 ADD PUSH1 0x4 DUP3 ADD SLOAD DUP2 MSTORE PUSH1 0x20 ADD PUSH1 0x5 DUP3 ADD SLOAD DUP2 MSTORE PUSH1 0x20 ADD PUSH1 0x6 DUP3 ADD SLOAD DUP2 MSTORE PUSH1 0x20 ADD PUSH1 0x7 DUP3 ADD SLOAD DUP2 MSTORE PUSH1 0x20 ADD PUSH1 0x8 DUP3 ADD PUSH1 0x0 SWAP1 SLOAD SWAP1 PUSH2 0x100 EXP SWAP1 DIV PUSH20 0xFFFFFFFFFFFFFFFFFFFFFFFFFFFFFFFFFFFFFFFF AND PUSH20 0xFFFFFFFFFFFFFFFFFFFFFFFFFFFFFFFFFFFFFFFF AND PUSH20 0xFFFFFFFFFFFFFFFFFFFFFFFFFFFFFFFFFFFFFFFF AND DUP2 MSTORE PUSH1 0x20 ADD PUSH1 0x8 DUP3 ADD PUSH1 0x14 SWAP1 SLOAD SWAP1 PUSH2 0x100 EXP SWAP1 DIV PUSH1 0xFF AND ISZERO ISZERO ISZERO ISZERO DUP2 MSTORE POP POP SWAP1 POP DUP1 PUSH1 0xE0 ADD MLOAD TIMESTAMP GT PUSH2 0x78B JUMPI PUSH1 0x40 MLOAD PUSH32 0x8C379A000000000000000000000000000000000000000000000000000000000 DUP2 MSTORE PUSH1 0x4 ADD PUSH2 0x782 SWAP1 PUSH2 0x2005 JUMP JUMPDEST PUSH1 0x40 MLOAD DUP1 SWAP2 SUB SWAP1 REVERT JUMPDEST DUP1 PUSH1 0x80 ADD MLOAD DUP2 PUSH1 0xA0 ADD MLOAD LT PUSH2 0x7D5 JUMPI PUSH1 0x40 MLOAD PUSH32 0x8C379A000000000000000000000000000000000000000000000000000000000 DUP2 MSTORE PUSH1 0x4 ADD PUSH2 0x7CC SWAP1 PUSH2 0x2097 JUMP JUMPDEST PUSH1 0x40 MLOAD DUP1 SWAP2 SUB SWAP1 REVERT JUMPDEST PUSH1 0x0 PUSH1 0x4 PUSH1 0x0 DUP5 DUP2 MSTORE PUSH1 0x20 ADD SWAP1 DUP2 MSTORE PUSH1 0x20 ADD PUSH1 0x0 KECCAK256 PUSH1 0x0 CALLER PUSH20 0xFFFFFFFFFFFFFFFFFFFFFFFFFFFFFFFFFFFFFFFF AND PUSH20 0xFFFFFFFFFFFFFFFFFFFFFFFFFFFFFFFFFFFFFFFF AND DUP2 MSTORE PUSH1 0x20 ADD SWAP1 DUP2 MSTORE PUSH1 0x20 ADD PUSH1 0x0 KECCAK256 SLOAD SWAP1 POP PUSH1 0x0 PUSH1 0x4 PUSH1 0x0 DUP6 DUP2 MSTORE PUSH1 0x20 ADD SWAP1 DUP2 MSTORE PUSH1 0x20 ADD PUSH1 0x0 KECCAK256 PUSH1 0x0 CALLER PUSH20 0xFFFFFFFFFFFFFFFFFFFFFFFFFFFFFFFFFFFFFFFF AND PUSH20 0xFFFFFFFFFFFFFFFFFFFFFFFFFFFFFFFFFFFFFFFF AND DUP2 MSTORE PUSH1 0x20 ADD SWAP1 DUP2 MSTORE PUSH1 0x20 ADD PUSH1 0x0 KECCAK256 DUP2 SWAP1 SSTORE POP DUP2 PUSH2 0x100 ADD MLOAD PUSH20 0xFFFFFFFFFFFFFFFFFFFFFFFFFFFFFFFFFFFFFFFF AND PUSH4 0xA9059CBB CALLER DUP4 PUSH1 0x40 MLOAD DUP4 PUSH4 0xFFFFFFFF AND PUSH1 0xE0 SHL DUP2 MSTORE PUSH1 0x4 ADD PUSH2 0x8C0 SWAP3 SWAP2 SWAP1 PUSH2 0x20B7 JUMP JUMPDEST PUSH1 0x20 PUSH1 0x40 MLOAD DUP1 DUP4 SUB DUP2 PUSH1 0x0 DUP8 GAS CALL ISZERO DUP1 ISZERO PUSH2 0x8DF JUMPI RETURNDATASIZE PUSH1 0x0 DUP1 RETURNDATACOPY RETURNDATASIZE PUSH1 0x0 REVERT JUMPDEST POP POP POP POP PUSH1 0x40 MLOAD RETURNDATASIZE PUSH1 0x1F NOT PUSH1 0x1F DUP3 ADD AND DUP3 ADD DUP1 PUSH1 0x40 MSTORE POP DUP2 ADD SWAP1 PUSH2 0x903 SWAP2 SWAP1 PUSH2 0x210C JUMP JUMPDEST POP CALLER PUSH20 0xFFFFFFFFFFFFFFFFFFFFFFFFFFFFFFFFFFFFFFFF AND PUSH32 0x8ECE18C5319415FDD4C766CB302C9E3C7DF75D2C2D72E628DC9F90234D532888 DUP5 DUP4 PUSH1 0x40 MLOAD PUSH2 0x94C SWAP3 SWAP2 SWAP1 PUSH2 0x21AB JUMP JUMPDEST PUSH1 0x40 MLOAD DUP1 SWAP2 SUB SWAP1 LOG2 POP POP POP JUMP JUMPDEST PUSH1 0x2 SLOAD DUP2 JUMP JUMPDEST PUSH1 0x0 PUSH1 0x3 PUSH1 0x0 DUP4 DUP2 MSTORE PUSH1 0x20 ADD SWAP1 DUP2 MSTORE PUSH1 0x20 ADD PUSH1 0x0 KECCAK256 SWAP1 POP CALLER PUSH20 0xFFFFFFFFFFFFFFFFFFFFFFFFFFFFFFFFFFFFFFFF AND DUP2 PUSH1 0x0 ADD PUSH1 0x0 SWAP1 SLOAD SWAP1 PUSH2 0x100 EXP SWAP1 DIV PUSH20 0xFFFFFFFFFFFFFFFFFFFFFFFFFFFFFFFFFFFFFFFF AND PUSH20 0xFFFFFFFFFFFFFFFFFFFFFFFFFFFFFFFFFFFFFFFF AND EQ PUSH2 0xA08 JUMPI PUSH1 0x40 MLOAD PUSH32 0x8C379A000000000000000000000000000000000000000000000000000000000 DUP2 MSTORE PUSH1 0x4 ADD PUSH2 0x9FF SWAP1 PUSH2 0x2233 JUMP JUMPDEST PUSH1 0x40 MLOAD DUP1 SWAP2 SUB SWAP1 REVERT JUMPDEST DUP1 PUSH1 0x7 ADD SLOAD TIMESTAMP GT PUSH2 0xA4E JUMPI PUSH1 0x40 MLOAD PUSH32 0x8C379A000000000000000000000000000000000000000000000000000000000 DUP2 MSTORE PUSH1 0x4 ADD PUSH2 0xA45 SWAP1 PUSH2 0x2005 JUMP JUMPDEST PUSH1 0x40 MLOAD DUP1 SWAP2 SUB SWAP1 REVERT JUMPDEST DUP1 PUSH1 0x4 ADD SLOAD DUP2 PUSH1 0x5 ADD SLOAD LT ISZERO PUSH2 0xA99 JUMPI PUSH1 0x40 MLOAD PUSH32 0x8C379A000000000000000000000000000000000000000000000000000000000 DUP2 MSTORE PUSH1 0x4 ADD PUSH2 0xA90 SWAP1 PUSH2 0x229F JUMP JUMPDEST PUSH1 0x40 MLOAD DUP1 SWAP2 SUB SWAP1 REVERT JUMPDEST DUP1 PUSH1 0x8 ADD PUSH1 0x14 SWAP1 SLOAD SWAP1 PUSH2 0x100 EXP SWAP1 DIV PUSH1 0xFF AND ISZERO PUSH2 0xAEB JUMPI PUSH1 0x40 MLOAD PUSH32 0x8C379A000000000000000000000000000000000000000000000000000000000 DUP2 MSTORE PUSH1 0x4 ADD PUSH2 0xAE2 SWAP1 PUSH2 0x230B JUMP JUMPDEST PUSH1 0x40 MLOAD DUP1 SWAP2 SUB SWAP1 REVERT JUMPDEST PUSH1 0x1 DUP2 PUSH1 0x8 ADD PUSH1 0x14 PUSH2 0x100 EXP DUP2 SLOAD DUP2 PUSH1 0xFF MUL NOT AND SWAP1 DUP4 ISZERO ISZERO MUL OR SWAP1 SSTORE POP DUP1 PUSH1 0x8 ADD PUSH1 0x0 SWAP1 SLOAD SWAP1 PUSH2 0x100 EXP SWAP1 DIV PUSH20 0xFFFFFFFFFFFFFFFFFFFFFFFFFFFFFFFFFFFFFFFF AND PUSH20 0xFFFFFFFFFFFFFFFFFFFFFFFFFFFFFFFFFFFFFFFF AND PUSH4 0xA9059CBB DUP3 PUSH1 0x0 ADD PUSH1 0x0 SWAP1 SLOAD SWAP1 PUSH2 0x100 EXP SWAP1 DIV PUSH20 0xFFFFFFFFFFFFFFFFFFFFFFFFFFFFFFFFFFFFFFFF AND DUP4 PUSH1 0x5 ADD SLOAD PUSH1 0x40 MLOAD DUP4 PUSH4 0xFFFFFFFF AND PUSH1 0xE0 SHL DUP2 MSTORE PUSH1 0x4 ADD PUSH2 0xB8F SWAP3 SWAP2 SWAP1 PUSH2 0x20B7 JUMP JUMPDEST PUSH1 0x20 PUSH1 0x40 MLOAD DUP1 DUP4 SUB DUP2 PUSH1 0x0 DUP8 GAS CALL ISZERO DUP1 ISZERO PUSH2 0xBAE JUMPI RETURNDATASIZE PUSH1 0x0 DUP1 RETURNDATACOPY RETURNDATASIZE PUSH1 0x0 REVERT JUMPDEST POP POP POP POP PUSH1 0x40 MLOAD RETURNDATASIZE PUSH1 0x1F NOT PUSH1 0x1F DUP3 ADD AND DUP3 ADD DUP1 PUSH1 0x40 MSTORE POP DUP2 ADD SWAP1 PUSH2 0xBD2 SWAP2 SWAP1 PUSH2 0x210C JUMP JUMPDEST POP PUSH32 0xEB319F97CF997E8E53EE0A45FD354EF78DE6D5A4F8E78F1CFA61F6DDB87EFADF DUP3 PUSH1 0x40 MLOAD PUSH2 0xC02 SWAP2 SWAP1 PUSH2 0x2377 JUMP JUMPDEST PUSH1 0x40 MLOAD DUP1 SWAP2 SUB SWAP1 LOG1 POP POP JUMP JUMPDEST PUSH1 0x0 PUSH1 0x3 PUSH1 0x0 DUP4 DUP2 MSTORE PUSH1 0x20 ADD SWAP1 DUP2 MSTORE PUSH1 0x20 ADD PUSH1 0x0 KECCAK256 PUSH1 0x40 MLOAD DUP1 PUSH2 0x140 ADD PUSH1 0x40 MSTORE SWAP1 DUP2 PUSH1 0x0 DUP3 ADD PUSH1 0x0 SWAP1 SLOAD SWAP1 PUSH2 0x100 EXP SWAP1 DIV PUSH20 0xFFFFFFFFFFFFFFFFFFFFFFFFFFFFFFFFFFFFFFFF AND PUSH20 0xFFFFFFFFFFFFFFFFFFFFFFFFFFFFFFFFFFFFFFFF AND PUSH20 0xFFFFFFFFFFFFFFFFFFFFFFFFFFFFFFFFFFFFFFFF AND DUP2 MSTORE PUSH1 0x20 ADD PUSH1 0x1 DUP3 ADD DUP1 SLOAD PUSH2 0xC95 SWAP1 PUSH2 0x1F88 JUMP JUMPDEST DUP1 PUSH1 0x1F ADD PUSH1 0x20 DUP1 SWAP2 DIV MUL PUSH1 0x20 ADD PUSH1 0x40 MLOAD SWAP1 DUP2 ADD PUSH1 0x40 MSTORE DUP1 SWAP3 SWAP2 SWAP1 DUP2 DUP2 MSTORE PUSH1 0x20 ADD DUP3 DUP1 SLOAD PUSH2 0xCC1 SWAP1 PUSH2 0x1F88 JUMP JUMPDEST DUP1 ISZERO PUSH2 0xD0E JUMPI DUP1 PUSH1 0x1F LT PUSH2 0xCE3 JUMPI PUSH2 0x100 DUP1 DUP4 SLOAD DIV MUL DUP4 MSTORE SWAP2 PUSH1 0x20 ADD SWAP2 PUSH2 0xD0E JUMP JUMPDEST DUP3 ADD SWAP2 SWAP1 PUSH1 0x0 MSTORE PUSH1 0x20 PUSH1 0x0 KECCAK256 SWAP1 JUMPDEST DUP2 SLOAD DUP2 MSTORE SWAP1 PUSH1 0x1 ADD SWAP1 PUSH1 0x20 ADD DUP1 DUP4 GT PUSH2 0xCF1 JUMPI DUP3 SWAP1 SUB PUSH1 0x1F AND DUP3 ADD SWAP2 JUMPDEST POP POP POP POP POP DUP2 MSTORE PUSH1 0x20 ADD PUSH1 0x2 DUP3 ADD DUP1 SLOAD PUSH2 0xD27 SWAP1 PUSH2 0x1F88 JUMP JUMPDEST DUP1 PUSH1 0x1F ADD PUSH1 0x20 DUP1 SWAP2 DIV MUL PUSH1 0x20 ADD PUSH1 0x40 MLOAD SWAP1 DUP2 ADD PUSH1 0x40 MSTORE DUP1 SWAP3 SWAP2 SWAP1 DUP2 DUP2 MSTORE PUSH1 0x20 ADD DUP3 DUP1 SLOAD PUSH2 0xD53 SWAP1 PUSH2 0x1F88 JUMP JUMPDEST DUP1 ISZERO PUSH2 0xDA0 JUMPI DUP1 PUSH1 0x1F LT PUSH2 0xD75 JUMPI PUSH2 0x100 DUP1 DUP4 SLOAD DIV MUL DUP4 MSTORE SWAP2 PUSH1 0x20 ADD SWAP2 PUSH2 0xDA0 JUMP JUMPDEST DUP3 ADD SWAP2 SWAP1 PUSH1 0x0 MSTORE PUSH1 0x20 PUSH1 0x0 KECCAK256 SWAP1 JUMPDEST DUP2 SLOAD DUP2 MSTORE SWAP1 PUSH1 0x1 ADD SWAP1 PUSH1 0x20 ADD DUP1 DUP4 GT PUSH2 0xD83 JUMPI DUP3 SWAP1 SUB PUSH1 0x1F AND DUP3 ADD SWAP2 JUMPDEST POP POP POP POP POP DUP2 MSTORE PUSH1 0x20 ADD PUSH1 0x3 DUP3 ADD DUP1 SLOAD PUSH2 0xDB9 SWAP1 PUSH2 0x1F88 JUMP JUMPDEST DUP1 PUSH1 0x1F ADD PUSH1 0x20 DUP1 SWAP2 DIV MUL PUSH1 0x20 ADD PUSH1 0x40 MLOAD SWAP1 DUP2 ADD PUSH1 0x40 MSTORE DUP1 SWAP3 SWAP2 SWAP1 DUP2 DUP2 MSTORE PUSH1 0x20 ADD DUP3 DUP1 SLOAD PUSH2 0xDE5 SWAP1 PUSH2 0x1F88 JUMP JUMPDEST DUP1 ISZERO PUSH2 0xE32 JUMPI DUP1 PUSH1 0x1F LT PUSH2 0xE07 JUMPI PUSH2 0x100 DUP1 DUP4 SLOAD DIV MUL DUP4 MSTORE SWAP2 PUSH1 0x20 ADD SWAP2 PUSH2 0xE32 JUMP JUMPDEST DUP3 ADD SWAP2 SWAP1 PUSH1 0x0 MSTORE PUSH1 0x20 PUSH1 0x0 KECCAK256 SWAP1 JUMPDEST DUP2 SLOAD DUP2 MSTORE SWAP1 PUSH1 0x1 ADD SWAP1 PUSH1 0x20 ADD DUP1 DUP4 GT PUSH2 0xE15 JUMPI DUP3 SWAP1 SUB PUSH1 0x1F AND DUP3 ADD SWAP2 JUMPDEST POP POP POP POP POP DUP2 MSTORE PUSH1 0x20 ADD PUSH1 0x4 DUP3 ADD SLOAD DUP2 MSTORE PUSH1 0x20 ADD PUSH1 0x5 DUP3 ADD SLOAD DUP2 MSTORE PUSH1 0x20 ADD PUSH1 0x6 DUP3 ADD SLOAD DUP2 MSTORE PUSH1 0x20 ADD PUSH1 0x7 DUP3 ADD SLOAD DUP2 MSTORE PUSH1 0x20 ADD PUSH1 0x8 DUP3 ADD PUSH1 0x0 SWAP1 SLOAD SWAP1 PUSH2 0x100 EXP SWAP1 DIV PUSH20 0xFFFFFFFFFFFFFFFFFFFFFFFFFFFFFFFFFFFFFFFF AND PUSH20 0xFFFFFFFFFFFFFFFFFFFFFFFFFFFFFFFFFFFFFFFF AND PUSH20 0xFFFFFFFFFFFFFFFFFFFFFFFFFFFFFFFFFFFFFFFF AND DUP2 MSTORE PUSH1 0x20 ADD PUSH1 0x8 DUP3 ADD PUSH1 0x14 SWAP1 SLOAD SWAP1 PUSH2 0x100 EXP SWAP1 DIV PUSH1 0xFF AND ISZERO ISZERO ISZERO ISZERO DUP2 MSTORE POP POP SWAP1 POP CALLER PUSH20 0xFFFFFFFFFFFFFFFFFFFFFFFFFFFFFFFFFFFFFFFF AND DUP2 PUSH1 0x0 ADD MLOAD PUSH20 0xFFFFFFFFFFFFFFFFFFFFFFFFFFFFFFFFFFFFFFFF AND EQ PUSH2 0xF48 JUMPI PUSH1 0x40 MLOAD PUSH32 0x8C379A000000000000000000000000000000000000000000000000000000000 DUP2 MSTORE PUSH1 0x4 ADD PUSH2 0xF3F SWAP1 PUSH2 0x2233 JUMP JUMPDEST PUSH1 0x40 MLOAD DUP1 SWAP2 SUB SWAP1 REVERT JUMPDEST DUP1 PUSH1 0xC0 ADD MLOAD TIMESTAMP LT PUSH2 0xF8E JUMPI PUSH1 0x40 MLOAD PUSH32 0x8C379A000000000000000000000000000000000000000000000000000000000 DUP2 MSTORE PUSH1 0x4 ADD PUSH2 0xF85 SWAP1 PUSH2 0x23F1 JUMP JUMPDEST PUSH1 0x40 MLOAD DUP1 SWAP2 SUB SWAP1 REVERT JUMPDEST PUSH1 0x3 PUSH1 0x0 DUP4 DUP2 MSTORE PUSH1 0x20 ADD SWAP1 DUP2 MSTORE PUSH1 0x20 ADD PUSH1 0x0 KECCAK256 PUSH1 0x0 DUP1 DUP3 ADD PUSH1 0x0 PUSH2 0x100 EXP DUP2 SLOAD SWAP1 PUSH20 0xFFFFFFFFFFFFFFFFFFFFFFFFFFFFFFFFFFFFFFFF MUL NOT AND SWAP1 SSTORE PUSH1 0x1 DUP3 ADD PUSH1 0x0 PUSH2 0xFD9 SWAP2 SWAP1 PUSH2 0x19E7 JUMP JUMPDEST PUSH1 0x2 DUP3 ADD PUSH1 0x0 PUSH2 0xFE9 SWAP2 SWAP1 PUSH2 0x19E7 JUMP JUMPDEST PUSH1 0x3 DUP3 ADD PUSH1 0x0 PUSH2 0xFF9 SWAP2 SWAP1 PUSH2 0x19E7 JUMP JUMPDEST PUSH1 0x4 DUP3 ADD PUSH1 0x0 SWAP1 SSTORE PUSH1 0x5 DUP3 ADD PUSH1 0x0 SWAP1 SSTORE PUSH1 0x6 DUP3 ADD PUSH1 0x0 SWAP1 SSTORE PUSH1 0x7 DUP3 ADD PUSH1 0x0 SWAP1 SSTORE PUSH1 0x8 DUP3 ADD PUSH1 0x0 PUSH2 0x100 EXP DUP2 SLOAD SWAP1 PUSH20 0xFFFFFFFFFFFFFFFFFFFFFFFFFFFFFFFFFFFFFFFF MUL NOT AND SWAP1 SSTORE PUSH1 0x8 DUP3 ADD PUSH1 0x14 PUSH2 0x100 EXP DUP2 SLOAD SWAP1 PUSH1 0xFF MUL NOT AND SWAP1 SSTORE POP POP PUSH32 0xF021E62333CDFBBD34D095D4F9914D4A723CC108F866FBA75FC4581B1A34FA1F DUP3 PUSH1 0x40 MLOAD PUSH2 0x1085 SWAP2 SWAP1 PUSH2 0x245D JUMP JUMPDEST PUSH1 0x40 MLOAD DUP1 SWAP2 SUB SWAP1 LOG1 POP POP JUMP JUMPDEST DUP1 PUSH1 0x2 DUP2 SWAP1 SSTORE POP POP JUMP JUMPDEST PUSH1 0x0 PUSH1 0x3 PUSH1 0x0 DUP5 DUP2 MSTORE PUSH1 0x20 ADD SWAP1 DUP2 MSTORE PUSH1 0x20 ADD PUSH1 0x0 KECCAK256 SWAP1 POP DUP1 PUSH1 0x6 ADD SLOAD TIMESTAMP LT ISZERO PUSH2 0x10F9 JUMPI PUSH1 0x40 MLOAD PUSH32 0x8C379A000000000000000000000000000000000000000000000000000000000 DUP2 MSTORE PUSH1 0x4 ADD PUSH2 0x10F0 SWAP1 PUSH2 0x24D7 JUMP JUMPDEST PUSH1 0x40 MLOAD DUP1 SWAP2 SUB SWAP1 REVERT JUMPDEST DUP1 PUSH1 0x7 ADD SLOAD TIMESTAMP GT ISZERO PUSH2 0x1140 JUMPI PUSH1 0x40 MLOAD PUSH32 0x8C379A000000000000000000000000000000000000000000000000000000000 DUP2 MSTORE PUSH1 0x4 ADD PUSH2 0x1137 SWAP1 PUSH2 0x2543 JUMP JUMPDEST PUSH1 0x40 MLOAD DUP1 SWAP2 SUB SWAP1 REVERT JUMPDEST DUP2 PUSH1 0x4 PUSH1 0x0 DUP6 DUP2 MSTORE PUSH1 0x20 ADD SWAP1 DUP2 MSTORE PUSH1 0x20 ADD PUSH1 0x0 KECCAK256 PUSH1 0x0 CALLER PUSH20 0xFFFFFFFFFFFFFFFFFFFFFFFFFFFFFFFFFFFFFFFF AND PUSH20 0xFFFFFFFFFFFFFFFFFFFFFFFFFFFFFFFFFFFFFFFF AND DUP2 MSTORE PUSH1 0x20 ADD SWAP1 DUP2 MSTORE PUSH1 0x20 ADD PUSH1 0x0 KECCAK256 SLOAD LT ISZERO PUSH2 0x11D3 JUMPI PUSH1 0x40 MLOAD PUSH32 0x8C379A000000000000000000000000000000000000000000000000000000000 DUP2 MSTORE PUSH1 0x4 ADD PUSH2 0x11CA SWAP1 PUSH2 0x25D5 JUMP JUMPDEST PUSH1 0x40 MLOAD DUP1 SWAP2 SUB SWAP1 REVERT JUMPDEST DUP2 DUP2 PUSH1 0x5 ADD PUSH1 0x0 DUP3 DUP3 SLOAD PUSH2 0x11E7 SWAP2 SWAP1 PUSH2 0x2624 JUMP JUMPDEST SWAP3 POP POP DUP2 SWAP1 SSTORE POP DUP2 PUSH1 0x4 PUSH1 0x0 DUP6 DUP2 MSTORE PUSH1 0x20 ADD SWAP1 DUP2 MSTORE PUSH1 0x20 ADD PUSH1 0x0 KECCAK256 PUSH1 0x0 CALLER PUSH20 0xFFFFFFFFFFFFFFFFFFFFFFFFFFFFFFFFFFFFFFFF AND PUSH20 0xFFFFFFFFFFFFFFFFFFFFFFFFFFFFFFFFFFFFFFFF AND DUP2 MSTORE PUSH1 0x20 ADD SWAP1 DUP2 MSTORE PUSH1 0x20 ADD PUSH1 0x0 KECCAK256 PUSH1 0x0 DUP3 DUP3 SLOAD PUSH2 0x124E SWAP2 SWAP1 PUSH2 0x2624 JUMP JUMPDEST SWAP3 POP POP DUP2 SWAP1 SSTORE POP DUP1 PUSH1 0x8 ADD PUSH1 0x0 SWAP1 SLOAD SWAP1 PUSH2 0x100 EXP SWAP1 DIV PUSH20 0xFFFFFFFFFFFFFFFFFFFFFFFFFFFFFFFFFFFFFFFF AND PUSH20 0xFFFFFFFFFFFFFFFFFFFFFFFFFFFFFFFFFFFFFFFF AND PUSH4 0xA9059CBB CALLER DUP5 PUSH1 0x40 MLOAD DUP4 PUSH4 0xFFFFFFFF AND PUSH1 0xE0 SHL DUP2 MSTORE PUSH1 0x4 ADD PUSH2 0x12B4 SWAP3 SWAP2 SWAP1 PUSH2 0x20B7 JUMP JUMPDEST PUSH1 0x20 PUSH1 0x40 MLOAD DUP1 DUP4 SUB DUP2 PUSH1 0x0 DUP8 GAS CALL ISZERO DUP1 ISZERO PUSH2 0x12D3 JUMPI RETURNDATASIZE PUSH1 0x0 DUP1 RETURNDATACOPY RETURNDATASIZE PUSH1 0x0 REVERT JUMPDEST POP POP POP POP PUSH1 0x40 MLOAD RETURNDATASIZE PUSH1 0x1F NOT PUSH1 0x1F DUP3 ADD AND DUP3 ADD DUP1 PUSH1 0x40 MSTORE POP DUP2 ADD SWAP1 PUSH2 0x12F7 SWAP2 SWAP1 PUSH2 0x210C JUMP JUMPDEST POP CALLER PUSH20 0xFFFFFFFFFFFFFFFFFFFFFFFFFFFFFFFFFFFFFFFF AND DUP4 PUSH32 0x7FC41CF2A0F8C3CEF90600A4EC4DBCB8F814B934F75969AAC10CC061F30B6FC2 DUP5 PUSH1 0x40 MLOAD PUSH2 0x133F SWAP2 SWAP1 PUSH2 0x26A4 JUMP JUMPDEST PUSH1 0x40 MLOAD DUP1 SWAP2 SUB SWAP1 LOG3 POP POP POP JUMP JUMPDEST PUSH1 0x4 PUSH1 0x20 MSTORE DUP2 PUSH1 0x0 MSTORE PUSH1 0x40 PUSH1 0x0 KECCAK256 PUSH1 0x20 MSTORE DUP1 PUSH1 0x0 MSTORE PUSH1 0x40 PUSH1 0x0 KECCAK256 PUSH1 0x0 SWAP2 POP SWAP2 POP POP SLOAD DUP2 JUMP JUMPDEST TIMESTAMP DUP3 LT ISZERO PUSH2 0x13B4 JUMPI PUSH1 0x40 MLOAD PUSH32 0x8C379A000000000000000000000000000000000000000000000000000000000 DUP2 MSTORE PUSH1 0x4 ADD PUSH2 0x13AB SWAP1 PUSH2 0x2744 JUMP JUMPDEST PUSH1 0x40 MLOAD DUP1 SWAP2 SUB SWAP1 REVERT JUMPDEST DUP2 DUP2 GT PUSH2 0x13F6 JUMPI PUSH1 0x40 MLOAD PUSH32 0x8C379A000000000000000000000000000000000000000000000000000000000 DUP2 MSTORE PUSH1 0x4 ADD PUSH2 0x13ED SWAP1 PUSH2 0x27D6 JUMP JUMPDEST PUSH1 0x40 MLOAD DUP1 SWAP2 SUB SWAP1 REVERT JUMPDEST PUSH1 0x2 SLOAD TIMESTAMP PUSH2 0x1404 SWAP2 SWAP1 PUSH2 0x27F6 JUMP JUMPDEST DUP2 GT ISZERO PUSH2 0x1446 JUMPI PUSH1 0x40 MLOAD PUSH32 0x8C379A000000000000000000000000000000000000000000000000000000000 DUP2 MSTORE PUSH1 0x4 ADD PUSH2 0x143D SWAP1 PUSH2 0x289C JUMP JUMPDEST PUSH1 0x40 MLOAD DUP1 SWAP2 SUB SWAP1 REVERT JUMPDEST PUSH1 0x1 DUP1 PUSH1 0x0 DUP3 DUP3 SLOAD PUSH2 0x1458 SWAP2 SWAP1 PUSH2 0x27F6 JUMP JUMPDEST SWAP3 POP POP DUP2 SWAP1 SSTORE POP PUSH1 0x40 MLOAD DUP1 PUSH2 0x140 ADD PUSH1 0x40 MSTORE DUP1 CALLER PUSH20 0xFFFFFFFFFFFFFFFFFFFFFFFFFFFFFFFFFFFFFFFF AND DUP2 MSTORE PUSH1 0x20 ADD DUP9 DUP2 MSTORE PUSH1 0x20 ADD DUP8 DUP2 MSTORE PUSH1 0x20 ADD DUP7 DUP2 MSTORE PUSH1 0x20 ADD DUP6 DUP2 MSTORE PUSH1 0x20 ADD PUSH1 0x0 DUP2 MSTORE PUSH1 0x20 ADD DUP4 DUP2 MSTORE PUSH1 0x20 ADD DUP3 DUP2 MSTORE PUSH1 0x20 ADD DUP5 PUSH20 0xFFFFFFFFFFFFFFFFFFFFFFFFFFFFFFFFFFFFFFFF AND DUP2 MSTORE PUSH1 0x20 ADD PUSH1 0x0 ISZERO ISZERO DUP2 MSTORE POP PUSH1 0x3 PUSH1 0x0 PUSH1 0x1 SLOAD DUP2 MSTORE PUSH1 0x20 ADD SWAP1 DUP2 MSTORE PUSH1 0x20 ADD PUSH1 0x0 KECCAK256 PUSH1 0x0 DUP3 ADD MLOAD DUP2 PUSH1 0x0 ADD PUSH1 0x0 PUSH2 0x100 EXP DUP2 SLOAD DUP2 PUSH20 0xFFFFFFFFFFFFFFFFFFFFFFFFFFFFFFFFFFFFFFFF MUL NOT AND SWAP1 DUP4 PUSH20 0xFFFFFFFFFFFFFFFFFFFFFFFFFFFFFFFFFFFFFFFF AND MUL OR SWAP1 SSTORE POP PUSH1 0x20 DUP3 ADD MLOAD DUP2 PUSH1 0x1 ADD SWAP1 DUP2 PUSH2 0x1546 SWAP2 SWAP1 PUSH2 0x2A68 JUMP JUMPDEST POP PUSH1 0x40 DUP3 ADD MLOAD DUP2 PUSH1 0x2 ADD SWAP1 DUP2 PUSH2 0x155C SWAP2 SWAP1 PUSH2 0x2A68 JUMP JUMPDEST POP PUSH1 0x60 DUP3 ADD MLOAD DUP2 PUSH1 0x3 ADD SWAP1 DUP2 PUSH2 0x1572 SWAP2 SWAP1 PUSH2 0x2A68 JUMP JUMPDEST POP PUSH1 0x80 DUP3 ADD MLOAD DUP2 PUSH1 0x4 ADD SSTORE PUSH1 0xA0 DUP3 ADD MLOAD DUP2 PUSH1 0x5 ADD SSTORE PUSH1 0xC0 DUP3 ADD MLOAD DUP2 PUSH1 0x6 ADD SSTORE PUSH1 0xE0 DUP3 ADD MLOAD DUP2 PUSH1 0x7 ADD SSTORE PUSH2 0x100 DUP3 ADD MLOAD DUP2 PUSH1 0x8 ADD PUSH1 0x0 PUSH2 0x100 EXP DUP2 SLOAD DUP2 PUSH20 0xFFFFFFFFFFFFFFFFFFFFFFFFFFFFFFFFFFFFFFFF MUL NOT AND SWAP1 DUP4 PUSH20 0xFFFFFFFFFFFFFFFFFFFFFFFFFFFFFFFFFFFFFFFF AND MUL OR SWAP1 SSTORE POP PUSH2 0x120 DUP3 ADD MLOAD DUP2 PUSH1 0x8 ADD PUSH1 0x14 PUSH2 0x100 EXP DUP2 SLOAD DUP2 PUSH1 0xFF MUL NOT AND SWAP1 DUP4 ISZERO ISZERO MUL OR SWAP1 SSTORE POP SWAP1 POP POP CALLER PUSH20 0xFFFFFFFFFFFFFFFFFFFFFFFFFFFFFFFFFFFFFFFF AND PUSH32 0xA7693FF5485219625FE509F2F6231903E55CB8B439A8C76607C0BCD5ECE3DF8F PUSH1 0x1 SLOAD DUP7 DUP6 DUP6 PUSH1 0x40 MLOAD PUSH2 0x1655 SWAP5 SWAP4 SWAP3 SWAP2 SWAP1 PUSH2 0x2B86 JUMP JUMPDEST PUSH1 0x40 MLOAD DUP1 SWAP2 SUB SWAP1 LOG2 POP POP POP POP POP POP POP JUMP JUMPDEST PUSH1 0x0 PUSH1 0x3 PUSH1 0x0 DUP5 DUP2 MSTORE PUSH1 0x20 ADD SWAP1 DUP2 MSTORE PUSH1 0x20 ADD PUSH1 0x0 KECCAK256 SWAP1 POP DUP1 PUSH1 0x6 ADD SLOAD TIMESTAMP LT ISZERO PUSH2 0x16C4 JUMPI PUSH1 0x40 MLOAD PUSH32 0x8C379A000000000000000000000000000000000000000000000000000000000 DUP2 MSTORE PUSH1 0x4 ADD PUSH2 0x16BB SWAP1 PUSH2 0x24D7 JUMP JUMPDEST PUSH1 0x40 MLOAD DUP1 SWAP2 SUB SWAP1 REVERT JUMPDEST DUP1 PUSH1 0x7 ADD SLOAD TIMESTAMP GT ISZERO PUSH2 0x170B JUMPI PUSH1 0x40 MLOAD PUSH32 0x8C379A000000000000000000000000000000000000000000000000000000000 DUP2 MSTORE PUSH1 0x4 ADD PUSH2 0x1702 SWAP1 PUSH2 0x2543 JUMP JUMPDEST PUSH1 0x40 MLOAD DUP1 SWAP2 SUB SWAP1 REVERT JUMPDEST DUP2 DUP2 PUSH1 0x5 ADD PUSH1 0x0 DUP3 DUP3 SLOAD PUSH2 0x171F SWAP2 SWAP1 PUSH2 0x27F6 JUMP JUMPDEST SWAP3 POP POP DUP2 SWAP1 SSTORE POP DUP2 PUSH1 0x4 PUSH1 0x0 DUP6 DUP2 MSTORE PUSH1 0x20 ADD SWAP1 DUP2 MSTORE PUSH1 0x20 ADD PUSH1 0x0 KECCAK256 PUSH1 0x0 CALLER PUSH20 0xFFFFFFFFFFFFFFFFFFFFFFFFFFFFFFFFFFFFFFFF AND PUSH20 0xFFFFFFFFFFFFFFFFFFFFFFFFFFFFFFFFFFFFFFFF AND DUP2 MSTORE PUSH1 0x20 ADD SWAP1 DUP2 MSTORE PUSH1 0x20 ADD PUSH1 0x0 KECCAK256 PUSH1 0x0 DUP3 DUP3 SLOAD PUSH2 0x1786 SWAP2 SWAP1 PUSH2 0x27F6 JUMP JUMPDEST SWAP3 POP POP DUP2 SWAP1 SSTORE POP DUP1 PUSH1 0x8 ADD PUSH1 0x0 SWAP1 SLOAD SWAP1 PUSH2 0x100 EXP SWAP1 DIV PUSH20 0xFFFFFFFFFFFFFFFFFFFFFFFFFFFFFFFFFFFFFFFF AND PUSH20 0xFFFFFFFFFFFFFFFFFFFFFFFFFFFFFFFFFFFFFFFF AND PUSH4 0x23B872DD CALLER ADDRESS DUP6 PUSH1 0x40 MLOAD DUP5 PUSH4 0xFFFFFFFF AND PUSH1 0xE0 SHL DUP2 MSTORE PUSH1 0x4 ADD PUSH2 0x17EE SWAP4 SWAP3 SWAP2 SWAP1 PUSH2 0x2BDE JUMP JUMPDEST PUSH1 0x20 PUSH1 0x40 MLOAD DUP1 DUP4 SUB DUP2 PUSH1 0x0 DUP8 GAS CALL ISZERO DUP1 ISZERO PUSH2 0x180D JUMPI RETURNDATASIZE PUSH1 0x0 DUP1 RETURNDATACOPY RETURNDATASIZE PUSH1 0x0 REVERT JUMPDEST POP POP POP POP PUSH1 0x40 MLOAD RETURNDATASIZE PUSH1 0x1F NOT PUSH1 0x1F DUP3 ADD AND DUP3 ADD DUP1 PUSH1 0x40 MSTORE POP DUP2 ADD SWAP1 PUSH2 0x1831 SWAP2 SWAP1 PUSH2 0x210C JUMP JUMPDEST POP CALLER PUSH20 0xFFFFFFFFFFFFFFFFFFFFFFFFFFFFFFFFFFFFFFFF AND DUP4 PUSH32 0xFEBCAE76329E8EA12AF0EDA54F161FDB1F34DE201CD457D831C5836EADB6706D DUP5 PUSH1 0x40 MLOAD PUSH2 0x1879 SWAP2 SWAP1 PUSH2 0x2C61 JUMP JUMPDEST PUSH1 0x40 MLOAD DUP1 SWAP2 SUB SWAP1 LOG3 POP POP POP JUMP JUMPDEST PUSH1 0x0 DUP1 PUSH1 0x1 SWAP1 SLOAD SWAP1 PUSH2 0x100 EXP SWAP1 DIV PUSH1 0xFF AND ISZERO SWAP1 POP DUP1 DUP1 ISZERO PUSH2 0x18B7 JUMPI POP PUSH1 0x1 PUSH1 0x0 DUP1 SLOAD SWAP1 PUSH2 0x100 EXP SWAP1 DIV PUSH1 0xFF AND PUSH1 0xFF AND LT JUMPDEST DUP1 PUSH2 0x18E4 JUMPI POP PUSH2 0x18C6 ADDRESS PUSH2 0x19C4 JUMP JUMPDEST ISZERO DUP1 ISZERO PUSH2 0x18E3 JUMPI POP PUSH1 0x1 PUSH1 0x0 DUP1 SLOAD SWAP1 PUSH2 0x100 EXP SWAP1 DIV PUSH1 0xFF AND PUSH1 0xFF AND EQ JUMPDEST JUMPDEST PUSH2 0x1923 JUMPI PUSH1 0x40 MLOAD PUSH32 0x8C379A000000000000000000000000000000000000000000000000000000000 DUP2 MSTORE PUSH1 0x4 ADD PUSH2 0x191A SWAP1 PUSH2 0x2D01 JUMP JUMPDEST PUSH1 0x40 MLOAD DUP1 SWAP2 SUB SWAP1 REVERT JUMPDEST PUSH1 0x1 PUSH1 0x0 DUP1 PUSH2 0x100 EXP DUP2 SLOAD DUP2 PUSH1 0xFF MUL NOT AND SWAP1 DUP4 PUSH1 0xFF AND MUL OR SWAP1 SSTORE POP DUP1 ISZERO PUSH2 0x1960 JUMPI PUSH1 0x1 PUSH1 0x0 PUSH1 0x1 PUSH2 0x100 EXP DUP2 SLOAD DUP2 PUSH1 0xFF MUL NOT AND SWAP1 DUP4 ISZERO ISZERO MUL OR SWAP1 SSTORE POP JUMPDEST DUP2 PUSH1 0x2 DUP2 SWAP1 SSTORE POP DUP1 ISZERO PUSH2 0x19C0 JUMPI PUSH1 0x0 DUP1 PUSH1 0x1 PUSH2 0x100 EXP DUP2 SLOAD DUP2 PUSH1 0xFF MUL NOT AND SWAP1 DUP4 ISZERO ISZERO MUL OR SWAP1 SSTORE POP PUSH32 0x7F26B83FF96E1F2B6A682F133852F6798A09C465DA95921460CEFB3847402498 PUSH1 0x1 PUSH1 0x40 MLOAD PUSH2 0x19B7 SWAP2 SWAP1 PUSH2 0x2D69 JUMP JUMPDEST PUSH1 0x40 MLOAD DUP1 SWAP2 SUB SWAP1 LOG1 JUMPDEST POP POP JUMP JUMPDEST PUSH1 0x0 DUP1 DUP3 PUSH20 0xFFFFFFFFFFFFFFFFFFFFFFFFFFFFFFFFFFFFFFFF AND EXTCODESIZE GT SWAP1 POP SWAP2 SWAP1 POP JUMP JUMPDEST POP DUP1 SLOAD PUSH2 0x19F3 SWAP1 PUSH2 0x1F88 JUMP JUMPDEST PUSH1 0x0 DUP3 SSTORE DUP1 PUSH1 0x1F LT PUSH2 0x1A05 JUMPI POP PUSH2 0x1A24 JUMP JUMPDEST PUSH1 0x1F ADD PUSH1 0x20 SWAP1 DIV SWAP1 PUSH1 0x0 MSTORE PUSH1 0x20 PUSH1 0x0 KECCAK256 SWAP1 DUP2 ADD SWAP1 PUSH2 0x1A23 SWAP2 SWAP1 PUSH2 0x1A27 JUMP JUMPDEST JUMPDEST POP JUMP JUMPDEST JUMPDEST DUP1 DUP3 GT ISZERO PUSH2 0x1A40 JUMPI PUSH1 0x0 DUP2 PUSH1 0x0 SWAP1 SSTORE POP PUSH1 0x1 ADD PUSH2 0x1A28 JUMP JUMPDEST POP SWAP1 JUMP JUMPDEST PUSH1 0x0 DUP2 SWAP1 POP SWAP2 SWAP1 POP JUMP JUMPDEST PUSH2 0x1A57 DUP2 PUSH2 0x1A44 JUMP JUMPDEST DUP3 MSTORE POP POP JUMP JUMPDEST PUSH1 0x0 PUSH1 0x20 DUP3 ADD SWAP1 POP PUSH2 0x1A72 PUSH1 0x0 DUP4 ADD DUP5 PUSH2 0x1A4E JUMP JUMPDEST SWAP3 SWAP2 POP POP JUMP JUMPDEST PUSH1 0x0 PUSH1 0x40 MLOAD SWAP1 POP SWAP1 JUMP JUMPDEST PUSH1 0x0 DUP1 REVERT JUMPDEST PUSH1 0x0 DUP1 REVERT JUMPDEST PUSH2 0x1A95 DUP2 PUSH2 0x1A44 JUMP JUMPDEST DUP2 EQ PUSH2 0x1AA0 JUMPI PUSH1 0x0 DUP1 REVERT JUMPDEST POP JUMP JUMPDEST PUSH1 0x0 DUP2 CALLDATALOAD SWAP1 POP PUSH2 0x1AB2 DUP2 PUSH2 0x1A8C JUMP JUMPDEST SWAP3 SWAP2 POP POP JUMP JUMPDEST PUSH1 0x0 PUSH1 0x20 DUP3 DUP5 SUB SLT ISZERO PUSH2 0x1ACE JUMPI PUSH2 0x1ACD PUSH2 0x1A82 JUMP JUMPDEST JUMPDEST PUSH1 0x0 PUSH2 0x1ADC DUP5 DUP3 DUP6 ADD PUSH2 0x1AA3 JUMP JUMPDEST SWAP2 POP POP SWAP3 SWAP2 POP POP JUMP JUMPDEST PUSH1 0x0 PUSH20 0xFFFFFFFFFFFFFFFFFFFFFFFFFFFFFFFFFFFFFFFF DUP3 AND SWAP1 POP SWAP2 SWAP1 POP JUMP JUMPDEST PUSH1 0x0 PUSH2 0x1B10 DUP3 PUSH2 0x1AE5 JUMP JUMPDEST SWAP1 POP SWAP2 SWAP1 POP JUMP JUMPDEST PUSH2 0x1B20 DUP2 PUSH2 0x1B05 JUMP JUMPDEST DUP3 MSTORE POP POP JUMP JUMPDEST PUSH1 0x0 DUP2 MLOAD SWAP1 POP SWAP2 SWAP1 POP JUMP JUMPDEST PUSH1 0x0 DUP3 DUP3 MSTORE PUSH1 0x20 DUP3 ADD SWAP1 POP SWAP3 SWAP2 POP POP JUMP JUMPDEST PUSH1 0x0 JUMPDEST DUP4 DUP2 LT ISZERO PUSH2 0x1B60 JUMPI DUP1 DUP3 ADD MLOAD DUP2 DUP5 ADD MSTORE PUSH1 0x20 DUP2 ADD SWAP1 POP PUSH2 0x1B45 JUMP JUMPDEST PUSH1 0x0 DUP5 DUP5 ADD MSTORE POP POP POP POP JUMP JUMPDEST PUSH1 0x0 PUSH1 0x1F NOT PUSH1 0x1F DUP4 ADD AND SWAP1 POP SWAP2 SWAP1 POP JUMP JUMPDEST PUSH1 0x0 PUSH2 0x1B88 DUP3 PUSH2 0x1B26 JUMP JUMPDEST PUSH2 0x1B92 DUP2 DUP6 PUSH2 0x1B31 JUMP JUMPDEST SWAP4 POP PUSH2 0x1BA2 DUP2 DUP6 PUSH1 0x20 DUP7 ADD PUSH2 0x1B42 JUMP JUMPDEST PUSH2 0x1BAB DUP2 PUSH2 0x1B6C JUMP JUMPDEST DUP5 ADD SWAP2 POP POP SWAP3 SWAP2 POP POP JUMP JUMPDEST PUSH1 0x0 DUP2 ISZERO ISZERO SWAP1 POP SWAP2 SWAP1 POP JUMP JUMPDEST PUSH2 0x1BCB DUP2 PUSH2 0x1BB6 JUMP JUMPDEST DUP3 MSTORE POP POP JUMP JUMPDEST PUSH1 0x0 PUSH2 0x140 DUP3 ADD SWAP1 POP PUSH2 0x1BE7 PUSH1 0x0 DUP4 ADD DUP14 PUSH2 0x1B17 JUMP JUMPDEST DUP2 DUP2 SUB PUSH1 0x20 DUP4 ADD MSTORE PUSH2 0x1BF9 DUP2 DUP13 PUSH2 0x1B7D JUMP JUMPDEST SWAP1 POP DUP2 DUP2 SUB PUSH1 0x40 DUP4 ADD MSTORE PUSH2 0x1C0D DUP2 DUP12 PUSH2 0x1B7D JUMP JUMPDEST SWAP1 POP DUP2 DUP2 SUB PUSH1 0x60 DUP4 ADD MSTORE PUSH2 0x1C21 DUP2 DUP11 PUSH2 0x1B7D JUMP JUMPDEST SWAP1 POP PUSH2 0x1C30 PUSH1 0x80 DUP4 ADD DUP10 PUSH2 0x1A4E JUMP JUMPDEST PUSH2 0x1C3D PUSH1 0xA0 DUP4 ADD DUP9 PUSH2 0x1A4E JUMP JUMPDEST PUSH2 0x1C4A PUSH1 0xC0 DUP4 ADD DUP8 PUSH2 0x1A4E JUMP JUMPDEST PUSH2 0x1C57 PUSH1 0xE0 DUP4 ADD DUP7 PUSH2 0x1A4E JUMP JUMPDEST PUSH2 0x1C65 PUSH2 0x100 DUP4 ADD DUP6 PUSH2 0x1B17 JUMP JUMPDEST PUSH2 0x1C73 PUSH2 0x120 DUP4 ADD DUP5 PUSH2 0x1BC2 JUMP JUMPDEST SWAP12 SWAP11 POP POP POP POP POP POP POP POP POP POP POP JUMP JUMPDEST PUSH1 0x0 DUP1 PUSH1 0x40 DUP4 DUP6 SUB SLT ISZERO PUSH2 0x1C99 JUMPI PUSH2 0x1C98 PUSH2 0x1A82 JUMP JUMPDEST JUMPDEST PUSH1 0x0 PUSH2 0x1CA7 DUP6 DUP3 DUP7 ADD PUSH2 0x1AA3 JUMP JUMPDEST SWAP3 POP POP PUSH1 0x20 PUSH2 0x1CB8 DUP6 DUP3 DUP7 ADD PUSH2 0x1AA3 JUMP JUMPDEST SWAP2 POP POP SWAP3 POP SWAP3 SWAP1 POP JUMP JUMPDEST PUSH2 0x1CCB DUP2 PUSH2 0x1B05 JUMP JUMPDEST DUP2 EQ PUSH2 0x1CD6 JUMPI PUSH1 0x0 DUP1 REVERT JUMPDEST POP JUMP JUMPDEST PUSH1 0x0 DUP2 CALLDATALOAD SWAP1 POP PUSH2 0x1CE8 DUP2 PUSH2 0x1CC2 JUMP JUMPDEST SWAP3 SWAP2 POP POP JUMP JUMPDEST PUSH1 0x0 DUP1 PUSH1 0x40 DUP4 DUP6 SUB SLT ISZERO PUSH2 0x1D05 JUMPI PUSH2 0x1D04 PUSH2 0x1A82 JUMP JUMPDEST JUMPDEST PUSH1 0x0 PUSH2 0x1D13 DUP6 DUP3 DUP7 ADD PUSH2 0x1AA3 JUMP JUMPDEST SWAP3 POP POP PUSH1 0x20 PUSH2 0x1D24 DUP6 DUP3 DUP7 ADD PUSH2 0x1CD9 JUMP JUMPDEST SWAP2 POP POP SWAP3 POP SWAP3 SWAP1 POP JUMP JUMPDEST PUSH1 0x0 DUP1 REVERT JUMPDEST PUSH1 0x0 DUP1 REVERT JUMPDEST PUSH32 0x4E487B7100000000000000000000000000000000000000000000000000000000 PUSH1 0x0 MSTORE PUSH1 0x41 PUSH1 0x4 MSTORE PUSH1 0x24 PUSH1 0x0 REVERT JUMPDEST PUSH2 0x1D70 DUP3 PUSH2 0x1B6C JUMP JUMPDEST DUP2 ADD DUP2 DUP2 LT PUSH8 0xFFFFFFFFFFFFFFFF DUP3 GT OR ISZERO PUSH2 0x1D8F JUMPI PUSH2 0x1D8E PUSH2 0x1D38 JUMP JUMPDEST JUMPDEST DUP1 PUSH1 0x40 MSTORE POP POP POP JUMP JUMPDEST PUSH1 0x0 PUSH2 0x1DA2 PUSH2 0x1A78 JUMP JUMPDEST SWAP1 POP PUSH2 0x1DAE DUP3 DUP3 PUSH2 0x1D67 JUMP JUMPDEST SWAP2 SWAP1 POP JUMP JUMPDEST PUSH1 0x0 PUSH8 0xFFFFFFFFFFFFFFFF DUP3 GT ISZERO PUSH2 0x1DCE JUMPI PUSH2 0x1DCD PUSH2 0x1D38 JUMP JUMPDEST JUMPDEST PUSH2 0x1DD7 DUP3 PUSH2 0x1B6C JUMP JUMPDEST SWAP1 POP PUSH1 0x20 DUP2 ADD SWAP1 POP SWAP2 SWAP1 POP JUMP JUMPDEST DUP3 DUP2 DUP4 CALLDATACOPY PUSH1 0x0 DUP4 DUP4 ADD MSTORE POP POP POP JUMP JUMPDEST PUSH1 0x0 PUSH2 0x1E06 PUSH2 0x1E01 DUP5 PUSH2 0x1DB3 JUMP JUMPDEST PUSH2 0x1D98 JUMP JUMPDEST SWAP1 POP DUP3 DUP2 MSTORE PUSH1 0x20 DUP2 ADD DUP5 DUP5 DUP5 ADD GT ISZERO PUSH2 0x1E22 JUMPI PUSH2 0x1E21 PUSH2 0x1D33 JUMP JUMPDEST JUMPDEST PUSH2 0x1E2D DUP5 DUP3 DUP6 PUSH2 0x1DE4 JUMP JUMPDEST POP SWAP4 SWAP3 POP POP POP JUMP JUMPDEST PUSH1 0x0 DUP3 PUSH1 0x1F DUP4 ADD SLT PUSH2 0x1E4A JUMPI PUSH2 0x1E49 PUSH2 0x1D2E JUMP JUMPDEST JUMPDEST DUP2 CALLDATALOAD PUSH2 0x1E5A DUP5 DUP3 PUSH1 0x20 DUP7 ADD PUSH2 0x1DF3 JUMP JUMPDEST SWAP2 POP POP SWAP3 SWAP2 POP POP JUMP JUMPDEST PUSH1 0x0 DUP1 PUSH1 0x0 DUP1 PUSH1 0x0 DUP1 PUSH1 0x0 PUSH1 0xE0 DUP9 DUP11 SUB SLT ISZERO PUSH2 0x1E82 JUMPI PUSH2 0x1E81 PUSH2 0x1A82 JUMP JUMPDEST JUMPDEST PUSH1 0x0 DUP9 ADD CALLDATALOAD PUSH8 0xFFFFFFFFFFFFFFFF DUP2 GT ISZERO PUSH2 0x1EA0 JUMPI PUSH2 0x1E9F PUSH2 0x1A87 JUMP JUMPDEST JUMPDEST PUSH2 0x1EAC DUP11 DUP3 DUP12 ADD PUSH2 0x1E35 JUMP JUMPDEST SWAP8 POP POP PUSH1 0x20 DUP9 ADD CALLDATALOAD PUSH8 0xFFFFFFFFFFFFFFFF DUP2 GT ISZERO PUSH2 0x1ECD JUMPI PUSH2 0x1ECC PUSH2 0x1A87 JUMP JUMPDEST JUMPDEST PUSH2 0x1ED9 DUP11 DUP3 DUP12 ADD PUSH2 0x1E35 JUMP JUMPDEST SWAP7 POP POP PUSH1 0x40 DUP9 ADD CALLDATALOAD PUSH8 0xFFFFFFFFFFFFFFFF DUP2 GT ISZERO PUSH2 0x1EFA JUMPI PUSH2 0x1EF9 PUSH2 0x1A87 JUMP JUMPDEST JUMPDEST PUSH2 0x1F06 DUP11 DUP3 DUP12 ADD PUSH2 0x1E35 JUMP JUMPDEST SWAP6 POP POP PUSH1 0x60 PUSH2 0x1F17 DUP11 DUP3 DUP12 ADD PUSH2 0x1AA3 JUMP JUMPDEST SWAP5 POP POP PUSH1 0x80 PUSH2 0x1F28 DUP11 DUP3 DUP12 ADD PUSH2 0x1CD9 JUMP JUMPDEST SWAP4 POP POP PUSH1 0xA0 PUSH2 0x1F39 DUP11 DUP3 DUP12 ADD PUSH2 0x1AA3 JUMP JUMPDEST SWAP3 POP POP PUSH1 0xC0 PUSH2 0x1F4A DUP11 DUP3 DUP12 ADD PUSH2 0x1AA3 JUMP JUMPDEST SWAP2 POP POP SWAP3 SWAP6 SWAP9 SWAP2 SWAP5 SWAP8 POP SWAP3 SWAP6 POP JUMP JUMPDEST PUSH32 0x4E487B7100000000000000000000000000000000000000000000000000000000 PUSH1 0x0 MSTORE PUSH1 0x22 PUSH1 0x4 MSTORE PUSH1 0x24 PUSH1 0x0 REVERT JUMPDEST PUSH1 0x0 PUSH1 0x2 DUP3 DIV SWAP1 POP PUSH1 0x1 DUP3 AND DUP1 PUSH2 0x1FA0 JUMPI PUSH1 0x7F DUP3 AND SWAP2 POP JUMPDEST PUSH1 0x20 DUP3 LT DUP2 SUB PUSH2 0x1FB3 JUMPI PUSH2 0x1FB2 PUSH2 0x1F59 JUMP JUMPDEST JUMPDEST POP SWAP2 SWAP1 POP JUMP JUMPDEST PUSH32 0x43616D706169676E20686173206E6F7420656E64656400000000000000000000 PUSH1 0x0 DUP3 ADD MSTORE POP JUMP JUMPDEST PUSH1 0x0 PUSH2 0x1FEF PUSH1 0x16 DUP4 PUSH2 0x1B31 JUMP JUMPDEST SWAP2 POP PUSH2 0x1FFA DUP3 PUSH2 0x1FB9 JUMP JUMPDEST PUSH1 0x20 DUP3 ADD SWAP1 POP SWAP2 SWAP1 POP JUMP JUMPDEST PUSH1 0x0 PUSH1 0x20 DUP3 ADD SWAP1 POP DUP2 DUP2 SUB PUSH1 0x0 DUP4 ADD MSTORE PUSH2 0x201E DUP2 PUSH2 0x1FE2 JUMP JUMPDEST SWAP1 POP SWAP2 SWAP1 POP JUMP JUMPDEST PUSH32 0x596F752063616E6E6F742057697468647261772C2043616D706169676E206861 PUSH1 0x0 DUP3 ADD MSTORE PUSH32 0x732073756363656564656420616E6420636C61696D6564000000000000000000 PUSH1 0x20 DUP3 ADD MSTORE POP JUMP JUMPDEST PUSH1 0x0 PUSH2 0x2081 PUSH1 0x37 DUP4 PUSH2 0x1B31 JUMP JUMPDEST SWAP2 POP PUSH2 0x208C DUP3 PUSH2 0x2025 JUMP JUMPDEST PUSH1 0x40 DUP3 ADD SWAP1 POP SWAP2 SWAP1 POP JUMP JUMPDEST PUSH1 0x0 PUSH1 0x20 DUP3 ADD SWAP1 POP DUP2 DUP2 SUB PUSH1 0x0 DUP4 ADD MSTORE PUSH2 0x20B0 DUP2 PUSH2 0x2074 JUMP JUMPDEST SWAP1 POP SWAP2 SWAP1 POP JUMP JUMPDEST PUSH1 0x0 PUSH1 0x40 DUP3 ADD SWAP1 POP PUSH2 0x20CC PUSH1 0x0 DUP4 ADD DUP6 PUSH2 0x1B17 JUMP JUMPDEST PUSH2 0x20D9 PUSH1 0x20 DUP4 ADD DUP5 PUSH2 0x1A4E JUMP JUMPDEST SWAP4 SWAP3 POP POP POP JUMP JUMPDEST PUSH2 0x20E9 DUP2 PUSH2 0x1BB6 JUMP JUMPDEST DUP2 EQ PUSH2 0x20F4 JUMPI PUSH1 0x0 DUP1 REVERT JUMPDEST POP JUMP JUMPDEST PUSH1 0x0 DUP2 MLOAD SWAP1 POP PUSH2 0x2106 DUP2 PUSH2 0x20E0 JUMP JUMPDEST SWAP3 SWAP2 POP POP JUMP JUMPDEST PUSH1 0x0 PUSH1 0x20 DUP3 DUP5 SUB SLT ISZERO PUSH2 0x2122 JUMPI PUSH2 0x2121 PUSH2 0x1A82 JUMP JUMPDEST JUMPDEST PUSH1 0x0 PUSH2 0x2130 DUP5 DUP3 DUP6 ADD PUSH2 0x20F7 JUMP JUMPDEST SWAP2 POP POP SWAP3 SWAP2 POP POP JUMP JUMPDEST PUSH32 0x596F757220546F6B656E732061726520726566756E6465642073756363657373 PUSH1 0x0 DUP3 ADD MSTORE PUSH32 0x66756C6C79000000000000000000000000000000000000000000000000000000 PUSH1 0x20 DUP3 ADD MSTORE POP JUMP JUMPDEST PUSH1 0x0 PUSH2 0x2195 PUSH1 0x25 DUP4 PUSH2 0x1B31 JUMP JUMPDEST SWAP2 POP PUSH2 0x21A0 DUP3 PUSH2 0x2139 JUMP JUMPDEST PUSH1 0x40 DUP3 ADD SWAP1 POP SWAP2 SWAP1 POP JUMP JUMPDEST PUSH1 0x0 PUSH1 0x60 DUP3 ADD SWAP1 POP PUSH2 0x21C0 PUSH1 0x0 DUP4 ADD DUP6 PUSH2 0x1A4E JUMP JUMPDEST PUSH2 0x21CD PUSH1 0x20 DUP4 ADD DUP5 PUSH2 0x1A4E JUMP JUMPDEST DUP2 DUP2 SUB PUSH1 0x40 DUP4 ADD MSTORE PUSH2 0x21DE DUP2 PUSH2 0x2188 JUMP JUMPDEST SWAP1 POP SWAP4 SWAP3 POP POP POP JUMP JUMPDEST PUSH32 0x596F7520646964206E6F742063726561746520746869732043616D706169676E PUSH1 0x0 DUP3 ADD MSTORE POP JUMP JUMPDEST PUSH1 0x0 PUSH2 0x221D PUSH1 0x20 DUP4 PUSH2 0x1B31 JUMP JUMPDEST SWAP2 POP PUSH2 0x2228 DUP3 PUSH2 0x21E7 JUMP JUMPDEST PUSH1 0x20 DUP3 ADD SWAP1 POP SWAP2 SWAP1 POP JUMP JUMPDEST PUSH1 0x0 PUSH1 0x20 DUP3 ADD SWAP1 POP DUP2 DUP2 SUB PUSH1 0x0 DUP4 ADD MSTORE PUSH2 0x224C DUP2 PUSH2 0x2210 JUMP JUMPDEST SWAP1 POP SWAP2 SWAP1 POP JUMP JUMPDEST PUSH32 0x43616D706169676E20676F616C2069732079657420746F207375636365656400 PUSH1 0x0 DUP3 ADD MSTORE POP JUMP JUMPDEST PUSH1 0x0 PUSH2 0x2289 PUSH1 0x1F DUP4 PUSH2 0x1B31 JUMP JUMPDEST SWAP2 POP PUSH2 0x2294 DUP3 PUSH2 0x2253 JUMP JUMPDEST PUSH1 0x20 DUP3 ADD SWAP1 POP SWAP2 SWAP1 POP JUMP JUMPDEST PUSH1 0x0 PUSH1 0x20 DUP3 ADD SWAP1 POP DUP2 DUP2 SUB PUSH1 0x0 DUP4 ADD MSTORE PUSH2 0x22B8 DUP2 PUSH2 0x227C JUMP JUMPDEST SWAP1 POP SWAP2 SWAP1 POP JUMP JUMPDEST PUSH32 0x46756E64732061726520616C726561647920636C61696D656400000000000000 PUSH1 0x0 DUP3 ADD MSTORE POP JUMP JUMPDEST PUSH1 0x0 PUSH2 0x22F5 PUSH1 0x19 DUP4 PUSH2 0x1B31 JUMP JUMPDEST SWAP2 POP PUSH2 0x2300 DUP3 PUSH2 0x22BF JUMP JUMPDEST PUSH1 0x20 DUP3 ADD SWAP1 POP SWAP2 SWAP1 POP JUMP JUMPDEST PUSH1 0x0 PUSH1 0x20 DUP3 ADD SWAP1 POP DUP2 DUP2 SUB PUSH1 0x0 DUP4 ADD MSTORE PUSH2 0x2324 DUP2 PUSH2 0x22E8 JUMP JUMPDEST SWAP1 POP SWAP2 SWAP1 POP JUMP JUMPDEST PUSH32 0x546F6B656E732061726520636C61696D6564207375636365737366756C6C7900 PUSH1 0x0 DUP3 ADD MSTORE POP JUMP JUMPDEST PUSH1 0x0 PUSH2 0x2361 PUSH1 0x1F DUP4 PUSH2 0x1B31 JUMP JUMPDEST SWAP2 POP PUSH2 0x236C DUP3 PUSH2 0x232B JUMP JUMPDEST PUSH1 0x20 DUP3 ADD SWAP1 POP SWAP2 SWAP1 POP JUMP JUMPDEST PUSH1 0x0 PUSH1 0x40 DUP3 ADD SWAP1 POP PUSH2 0x238C PUSH1 0x0 DUP4 ADD DUP5 PUSH2 0x1A4E JUMP JUMPDEST DUP2 DUP2 SUB PUSH1 0x20 DUP4 ADD MSTORE PUSH2 0x239D DUP2 PUSH2 0x2354 JUMP JUMPDEST SWAP1 POP SWAP3 SWAP2 POP POP JUMP JUMPDEST PUSH32 0x43616D706169676E2068617320616C7265616479207374617274656400000000 PUSH1 0x0 DUP3 ADD MSTORE POP JUMP JUMPDEST PUSH1 0x0 PUSH2 0x23DB PUSH1 0x1C DUP4 PUSH2 0x1B31 JUMP JUMPDEST SWAP2 POP PUSH2 0x23E6 DUP3 PUSH2 0x23A5 JUMP JUMPDEST PUSH1 0x20 DUP3 ADD SWAP1 POP SWAP2 SWAP1 POP JUMP JUMPDEST PUSH1 0x0 PUSH1 0x20 DUP3 ADD SWAP1 POP DUP2 DUP2 SUB PUSH1 0x0 DUP4 ADD MSTORE PUSH2 0x240A DUP2 PUSH2 0x23CE JUMP JUMPDEST SWAP1 POP SWAP2 SWAP1 POP JUMP JUMPDEST PUSH32 0x43616D706169676E2063616E63656C6C6564207375636365737366756C6C7900 PUSH1 0x0 DUP3 ADD MSTORE POP JUMP JUMPDEST PUSH1 0x0 PUSH2 0x2447 PUSH1 0x1F DUP4 PUSH2 0x1B31 JUMP JUMPDEST SWAP2 POP PUSH2 0x2452 DUP3 PUSH2 0x2411 JUMP JUMPDEST PUSH1 0x20 DUP3 ADD SWAP1 POP SWAP2 SWAP1 POP JUMP JUMPDEST PUSH1 0x0 PUSH1 0x40 DUP3 ADD SWAP1 POP PUSH2 0x2472 PUSH1 0x0 DUP4 ADD DUP5 PUSH2 0x1A4E JUMP JUMPDEST DUP2 DUP2 SUB PUSH1 0x20 DUP4 ADD MSTORE PUSH2 0x2483 DUP2 PUSH2 0x243A JUMP JUMPDEST SWAP1 POP SWAP3 SWAP2 POP POP JUMP JUMPDEST PUSH32 0x43616D706169676E20686173206E6F7420537461727465642079657400000000 PUSH1 0x0 DUP3 ADD MSTORE POP JUMP JUMPDEST PUSH1 0x0 PUSH2 0x24C1 PUSH1 0x1C DUP4 PUSH2 0x1B31 JUMP JUMPDEST SWAP2 POP PUSH2 0x24CC DUP3 PUSH2 0x248B JUMP JUMPDEST PUSH1 0x20 DUP3 ADD SWAP1 POP SWAP2 SWAP1 POP JUMP JUMPDEST PUSH1 0x0 PUSH1 0x20 DUP3 ADD SWAP1 POP DUP2 DUP2 SUB PUSH1 0x0 DUP4 ADD MSTORE PUSH2 0x24F0 DUP2 PUSH2 0x24B4 JUMP JUMPDEST SWAP1 POP SWAP2 SWAP1 POP JUMP JUMPDEST PUSH32 0x43616D706169676E2068617320616C726561647920656E646564000000000000 PUSH1 0x0 DUP3 ADD MSTORE POP JUMP JUMPDEST PUSH1 0x0 PUSH2 0x252D PUSH1 0x1A DUP4 PUSH2 0x1B31 JUMP JUMPDEST SWAP2 POP PUSH2 0x2538 DUP3 PUSH2 0x24F7 JUMP JUMPDEST PUSH1 0x20 DUP3 ADD SWAP1 POP SWAP2 SWAP1 POP JUMP JUMPDEST PUSH1 0x0 PUSH1 0x20 DUP3 ADD SWAP1 POP DUP2 DUP2 SUB PUSH1 0x0 DUP4 ADD MSTORE PUSH2 0x255C DUP2 PUSH2 0x2520 JUMP JUMPDEST SWAP1 POP SWAP2 SWAP1 POP JUMP JUMPDEST PUSH32 0x596F7520646F206E6F74206861766520656E6F75676820746F6B656E7320506C PUSH1 0x0 DUP3 ADD MSTORE PUSH32 0x656467656420746F207769746872617700000000000000000000000000000000 PUSH1 0x20 DUP3 ADD MSTORE POP JUMP JUMPDEST PUSH1 0x0 PUSH2 0x25BF PUSH1 0x30 DUP4 PUSH2 0x1B31 JUMP JUMPDEST SWAP2 POP PUSH2 0x25CA DUP3 PUSH2 0x2563 JUMP JUMPDEST PUSH1 0x40 DUP3 ADD SWAP1 POP SWAP2 SWAP1 POP JUMP JUMPDEST PUSH1 0x0 PUSH1 0x20 DUP3 ADD SWAP1 POP DUP2 DUP2 SUB PUSH1 0x0 DUP4 ADD MSTORE PUSH2 0x25EE DUP2 PUSH2 0x25B2 JUMP JUMPDEST SWAP1 POP SWAP2 SWAP1 POP JUMP JUMPDEST PUSH32 0x4E487B7100000000000000000000000000000000000000000000000000000000 PUSH1 0x0 MSTORE PUSH1 0x11 PUSH1 0x4 MSTORE PUSH1 0x24 PUSH1 0x0 REVERT JUMPDEST PUSH1 0x0 PUSH2 0x262F DUP3 PUSH2 0x1A44 JUMP JUMPDEST SWAP2 POP PUSH2 0x263A DUP4 PUSH2 0x1A44 JUMP JUMPDEST SWAP3 POP DUP3 DUP3 SUB SWAP1 POP DUP2 DUP2 GT ISZERO PUSH2 0x2652 JUMPI PUSH2 0x2651 PUSH2 0x25F5 JUMP JUMPDEST JUMPDEST SWAP3 SWAP2 POP POP JUMP JUMPDEST PUSH32 0x546F6B656E2061726520756E706C6564676564207375636365737366756C6C79 PUSH1 0x0 DUP3 ADD MSTORE POP JUMP JUMPDEST PUSH1 0x0 PUSH2 0x268E PUSH1 0x20 DUP4 PUSH2 0x1B31 JUMP JUMPDEST SWAP2 POP PUSH2 0x2699 DUP3 PUSH2 0x2658 JUMP JUMPDEST PUSH1 0x20 DUP3 ADD SWAP1 POP SWAP2 SWAP1 POP JUMP JUMPDEST PUSH1 0x0 PUSH1 0x40 DUP3 ADD SWAP1 POP PUSH2 0x26B9 PUSH1 0x0 DUP4 ADD DUP5 PUSH2 0x1A4E JUMP JUMPDEST DUP2 DUP2 SUB PUSH1 0x20 DUP4 ADD MSTORE PUSH2 0x26CA DUP2 PUSH2 0x2681 JUMP JUMPDEST SWAP1 POP SWAP3 SWAP2 POP POP JUMP JUMPDEST PUSH32 0x43616D706169676E2073746172742074696D65206973206C657373207468616E PUSH1 0x0 DUP3 ADD MSTORE PUSH32 0x2063757272656E7420426C6F636B2054696D657374616D700000000000000000 PUSH1 0x20 DUP3 ADD MSTORE POP JUMP JUMPDEST PUSH1 0x0 PUSH2 0x272E PUSH1 0x38 DUP4 PUSH2 0x1B31 JUMP JUMPDEST SWAP2 POP PUSH2 0x2739 DUP3 PUSH2 0x26D2 JUMP JUMPDEST PUSH1 0x40 DUP3 ADD SWAP1 POP SWAP2 SWAP1 POP JUMP JUMPDEST PUSH1 0x0 PUSH1 0x20 DUP3 ADD SWAP1 POP DUP2 DUP2 SUB PUSH1 0x0 DUP4 ADD MSTORE PUSH2 0x275D DUP2 PUSH2 0x2721 JUMP JUMPDEST SWAP1 POP SWAP2 SWAP1 POP JUMP JUMPDEST PUSH32 0x43616D706169676E20656E642074696D65206973206C657373207468616E2073 PUSH1 0x0 DUP3 ADD MSTORE PUSH32 0x746172742074696D650000000000000000000000000000000000000000000000 PUSH1 0x20 DUP3 ADD MSTORE POP JUMP JUMPDEST PUSH1 0x0 PUSH2 0x27C0 PUSH1 0x29 DUP4 PUSH2 0x1B31 JUMP JUMPDEST SWAP2 POP PUSH2 0x27CB DUP3 PUSH2 0x2764 JUMP JUMPDEST PUSH1 0x40 DUP3 ADD SWAP1 POP SWAP2 SWAP1 POP JUMP JUMPDEST PUSH1 0x0 PUSH1 0x20 DUP3 ADD SWAP1 POP DUP2 DUP2 SUB PUSH1 0x0 DUP4 ADD MSTORE PUSH2 0x27EF DUP2 PUSH2 0x27B3 JUMP JUMPDEST SWAP1 POP SWAP2 SWAP1 POP JUMP JUMPDEST PUSH1 0x0 PUSH2 0x2801 DUP3 PUSH2 0x1A44 JUMP JUMPDEST SWAP2 POP PUSH2 0x280C DUP4 PUSH2 0x1A44 JUMP JUMPDEST SWAP3 POP DUP3 DUP3 ADD SWAP1 POP DUP1 DUP3 GT ISZERO PUSH2 0x2824 JUMPI PUSH2 0x2823 PUSH2 0x25F5 JUMP JUMPDEST JUMPDEST SWAP3 SWAP2 POP POP JUMP JUMPDEST PUSH32 0x43616D706169676E20656E642074696D65206578636565647320746865206465 PUSH1 0x0 DUP3 ADD MSTORE PUSH32 0x61646C696E650000000000000000000000000000000000000000000000000000 PUSH1 0x20 DUP3 ADD MSTORE POP JUMP JUMPDEST PUSH1 0x0 PUSH2 0x2886 PUSH1 0x26 DUP4 PUSH2 0x1B31 JUMP JUMPDEST SWAP2 POP PUSH2 0x2891 DUP3 PUSH2 0x282A JUMP JUMPDEST PUSH1 0x40 DUP3 ADD SWAP1 POP SWAP2 SWAP1 POP JUMP JUMPDEST PUSH1 0x0 PUSH1 0x20 DUP3 ADD SWAP1 POP DUP2 DUP2 SUB PUSH1 0x0 DUP4 ADD MSTORE PUSH2 0x28B5 DUP2 PUSH2 0x2879 JUMP JUMPDEST SWAP1 POP SWAP2 SWAP1 POP JUMP JUMPDEST PUSH1 0x0 DUP2 SWAP1 POP DUP2 PUSH1 0x0 MSTORE PUSH1 0x20 PUSH1 0x0 KECCAK256 SWAP1 POP SWAP2 SWAP1 POP JUMP JUMPDEST PUSH1 0x0 PUSH1 0x20 PUSH1 0x1F DUP4 ADD DIV SWAP1 POP SWAP2 SWAP1 POP JUMP JUMPDEST PUSH1 0x0 DUP3 DUP3 SHL SWAP1 POP SWAP3 SWAP2 POP POP JUMP JUMPDEST PUSH1 0x0 PUSH1 0x8 DUP4 MUL PUSH2 0x291E PUSH32 0xFFFFFFFFFFFFFFFFFFFFFFFFFFFFFFFFFFFFFFFFFFFFFFFFFFFFFFFFFFFFFFFF DUP3 PUSH2 0x28E1 JUMP JUMPDEST PUSH2 0x2928 DUP7 DUP4 PUSH2 0x28E1 JUMP JUMPDEST SWAP6 POP DUP1 NOT DUP5 AND SWAP4 POP DUP1 DUP7 AND DUP5 OR SWAP3 POP POP POP SWAP4 SWAP3 POP POP POP JUMP JUMPDEST PUSH1 0x0 DUP2 SWAP1 POP SWAP2 SWAP1 POP JUMP JUMPDEST PUSH1 0x0 PUSH2 0x2965 PUSH2 0x2960 PUSH2 0x295B DUP5 PUSH2 0x1A44 JUMP JUMPDEST PUSH2 0x2940 JUMP JUMPDEST PUSH2 0x1A44 JUMP JUMPDEST SWAP1 POP SWAP2 SWAP1 POP JUMP JUMPDEST PUSH1 0x0 DUP2 SWAP1 POP SWAP2 SWAP1 POP JUMP JUMPDEST PUSH2 0x297F DUP4 PUSH2 0x294A JUMP JUMPDEST PUSH2 0x2993 PUSH2 0x298B DUP3 PUSH2 0x296C JUMP JUMPDEST DUP5 DUP5 SLOAD PUSH2 0x28EE JUMP JUMPDEST DUP3 SSTORE POP POP POP POP JUMP JUMPDEST PUSH1 0x0 SWAP1 JUMP JUMPDEST PUSH2 0x29A8 PUSH2 0x299B JUMP JUMPDEST PUSH2 0x29B3 DUP2 DUP5 DUP5 PUSH2 0x2976 JUMP JUMPDEST POP POP POP JUMP JUMPDEST JUMPDEST DUP2 DUP2 LT ISZERO PUSH2 0x29D7 JUMPI PUSH2 0x29CC PUSH1 0x0 DUP3 PUSH2 0x29A0 JUMP JUMPDEST PUSH1 0x1 DUP2 ADD SWAP1 POP PUSH2 0x29B9 JUMP JUMPDEST POP POP JUMP JUMPDEST PUSH1 0x1F DUP3 GT ISZERO PUSH2 0x2A1C JUMPI PUSH2 0x29ED DUP2 PUSH2 0x28BC JUMP JUMPDEST PUSH2 0x29F6 DUP5 PUSH2 0x28D1 JUMP JUMPDEST DUP2 ADD PUSH1 0x20 DUP6 LT ISZERO PUSH2 0x2A05 JUMPI DUP2 SWAP1 POP JUMPDEST PUSH2 0x2A19 PUSH2 0x2A11 DUP6 PUSH2 0x28D1 JUMP JUMPDEST DUP4 ADD DUP3 PUSH2 0x29B8 JUMP JUMPDEST POP POP JUMPDEST POP POP POP JUMP JUMPDEST PUSH1 0x0 DUP3 DUP3 SHR SWAP1 POP SWAP3 SWAP2 POP POP JUMP JUMPDEST PUSH1 0x0 PUSH2 0x2A3F PUSH1 0x0 NOT DUP5 PUSH1 0x8 MUL PUSH2 0x2A21 JUMP JUMPDEST NOT DUP1 DUP4 AND SWAP2 POP POP SWAP3 SWAP2 POP POP JUMP JUMPDEST PUSH1 0x0 PUSH2 0x2A58 DUP4 DUP4 PUSH2 0x2A2E JUMP JUMPDEST SWAP2 POP DUP3 PUSH1 0x2 MUL DUP3 OR SWAP1 POP SWAP3 SWAP2 POP POP JUMP JUMPDEST PUSH2 0x2A71 DUP3 PUSH2 0x1B26 JUMP JUMPDEST PUSH8 0xFFFFFFFFFFFFFFFF DUP2 GT ISZERO PUSH2 0x2A8A JUMPI PUSH2 0x2A89 PUSH2 0x1D38 JUMP JUMPDEST JUMPDEST PUSH2 0x2A94 DUP3 SLOAD PUSH2 0x1F88 JUMP JUMPDEST PUSH2 0x2A9F DUP3 DUP3 DUP6 PUSH2 0x29DB JUMP JUMPDEST PUSH1 0x0 PUSH1 0x20 SWAP1 POP PUSH1 0x1F DUP4 GT PUSH1 0x1 DUP2 EQ PUSH2 0x2AD2 JUMPI PUSH1 0x0 DUP5 ISZERO PUSH2 0x2AC0 JUMPI DUP3 DUP8 ADD MLOAD SWAP1 POP JUMPDEST PUSH2 0x2ACA DUP6 DUP3 PUSH2 0x2A4C JUMP JUMPDEST DUP7 SSTORE POP PUSH2 0x2B32 JUMP JUMPDEST PUSH1 0x1F NOT DUP5 AND PUSH2 0x2AE0 DUP7 PUSH2 0x28BC JUMP JUMPDEST PUSH1 0x0 JUMPDEST DUP3 DUP2 LT ISZERO PUSH2 0x2B08 JUMPI DUP5 DUP10 ADD MLOAD DUP3 SSTORE PUSH1 0x1 DUP3 ADD SWAP2 POP PUSH1 0x20 DUP6 ADD SWAP5 POP PUSH1 0x20 DUP2 ADD SWAP1 POP PUSH2 0x2AE3 JUMP JUMPDEST DUP7 DUP4 LT ISZERO PUSH2 0x2B25 JUMPI DUP5 DUP10 ADD MLOAD PUSH2 0x2B21 PUSH1 0x1F DUP10 AND DUP3 PUSH2 0x2A2E JUMP JUMPDEST DUP4 SSTORE POP JUMPDEST PUSH1 0x1 PUSH1 0x2 DUP9 MUL ADD DUP9 SSTORE POP POP POP JUMPDEST POP POP POP POP POP POP JUMP JUMPDEST PUSH32 0x43616D706169676E2063726561746564207375636365737366756C6C79000000 PUSH1 0x0 DUP3 ADD MSTORE POP JUMP JUMPDEST PUSH1 0x0 PUSH2 0x2B70 PUSH1 0x1D DUP4 PUSH2 0x1B31 JUMP JUMPDEST SWAP2 POP PUSH2 0x2B7B DUP3 PUSH2 0x2B3A JUMP JUMPDEST PUSH1 0x20 DUP3 ADD SWAP1 POP SWAP2 SWAP1 POP JUMP JUMPDEST PUSH1 0x0 PUSH1 0xA0 DUP3 ADD SWAP1 POP PUSH2 0x2B9B PUSH1 0x0 DUP4 ADD DUP8 PUSH2 0x1A4E JUMP JUMPDEST PUSH2 0x2BA8 PUSH1 0x20 DUP4 ADD DUP7 PUSH2 0x1A4E JUMP JUMPDEST PUSH2 0x2BB5 PUSH1 0x40 DUP4 ADD DUP6 PUSH2 0x1A4E JUMP JUMPDEST PUSH2 0x2BC2 PUSH1 0x60 DUP4 ADD DUP5 PUSH2 0x1A4E JUMP JUMPDEST DUP2 DUP2 SUB PUSH1 0x80 DUP4 ADD MSTORE PUSH2 0x2BD3 DUP2 PUSH2 0x2B63 JUMP JUMPDEST SWAP1 POP SWAP6 SWAP5 POP POP POP POP POP JUMP JUMPDEST PUSH1 0x0 PUSH1 0x60 DUP3 ADD SWAP1 POP PUSH2 0x2BF3 PUSH1 0x0 DUP4 ADD DUP7 PUSH2 0x1B17 JUMP JUMPDEST PUSH2 0x2C00 PUSH1 0x20 DUP4 ADD DUP6 PUSH2 0x1B17 JUMP JUMPDEST PUSH2 0x2C0D PUSH1 0x40 DUP4 ADD DUP5 PUSH2 0x1A4E JUMP JUMPDEST SWAP5 SWAP4 POP POP POP POP JUMP JUMPDEST PUSH32 0x546F6B656E732061726520706C6564676564207375636365737366756C6C7900 PUSH1 0x0 DUP3 ADD MSTORE POP JUMP JUMPDEST PUSH1 0x0 PUSH2 0x2C4B PUSH1 0x1F DUP4 PUSH2 0x1B31 JUMP JUMPDEST SWAP2 POP PUSH2 0x2C56 DUP3 PUSH2 0x2C15 JUMP JUMPDEST PUSH1 0x20 DUP3 ADD SWAP1 POP SWAP2 SWAP1 POP JUMP JUMPDEST PUSH1 0x0 PUSH1 0x40 DUP3 ADD SWAP1 POP PUSH2 0x2C76 PUSH1 0x0 DUP4 ADD DUP5 PUSH2 0x1A4E JUMP JUMPDEST DUP2 DUP2 SUB PUSH1 0x20 DUP4 ADD MSTORE PUSH2 0x2C87 DUP2 PUSH2 0x2C3E JUMP JUMPDEST SWAP1 POP SWAP3 SWAP2 POP POP JUMP JUMPDEST PUSH32 0x496E697469616C697A61626C653A20636F6E747261637420697320616C726561 PUSH1 0x0 DUP3 ADD MSTORE PUSH32 0x647920696E697469616C697A6564000000000000000000000000000000000000 PUSH1 0x20 DUP3 ADD MSTORE POP JUMP JUMPDEST PUSH1 0x0 PUSH2 0x2CEB PUSH1 0x2E DUP4 PUSH2 0x1B31 JUMP JUMPDEST SWAP2 POP PUSH2 0x2CF6 DUP3 PUSH2 0x2C8F JUMP JUMPDEST PUSH1 0x40 DUP3 ADD SWAP1 POP SWAP2 SWAP1 POP JUMP JUMPDEST PUSH1 0x0 PUSH1 0x20 DUP3 ADD SWAP1 POP DUP2 DUP2 SUB PUSH1 0x0 DUP4 ADD MSTORE PUSH2 0x2D1A DUP2 PUSH2 0x2CDE JUMP JUMPDEST SWAP1 POP SWAP2 SWAP1 POP JUMP JUMPDEST PUSH1 0x0 DUP2 SWAP1 POP SWAP2 SWAP1 POP JUMP JUMPDEST PUSH1 0x0 PUSH1 0xFF DUP3 AND SWAP1 POP SWAP2 SWAP1 POP JUMP JUMPDEST PUSH1 0x0 PUSH2 0x2D53 PUSH2 0x2D4E PUSH2 0x2D49 DUP5 PUSH2 0x2D21 JUMP JUMPDEST PUSH2 0x2940 JUMP JUMPDEST PUSH2 0x2D2B JUMP JUMPDEST SWAP1 POP SWAP2 SWAP1 POP JUMP JUMPDEST PUSH2 0x2D63 DUP2 PUSH2 0x2D38 JUMP JUMPDEST DUP3 MSTORE POP POP JUMP JUMPDEST PUSH1 0x0 PUSH1 0x20 DUP3 ADD SWAP1 POP PUSH2 0x2D7E PUSH1 0x0 DUP4 ADD DUP5 PUSH2 0x2D5A JUMP JUMPDEST SWAP3 SWAP2 POP POP JUMP INVALID LOG2 PUSH5 0x6970667358 0x22 SLT KECCAK256 0xD5 0xE9 0x5D CODESIZE 0x2B PUSH21 0x5ACE374F80A338FFC191D13FCCE13F021538ADE446 0xB0 PUSH4 0x4691D064 PUSH20 0x6F6C634300081100330000000000000000000000 "},"methodIdentifiers":{"campaigns(uint256)":"141961bc","cancelCampaign(uint256)":"45598b4a","changeDeadline(uint256)":"7aca97b5","claim(uint256)":"379607f5","createCampaign(string,string,string,uint256,address,uint256,uint256)":"adb1be40","deadline()":"29dcb0cf","initialize(uint256)":"fe4b84df","numberOfCampaigns()":"07ca140d","pledge(uint256,uint256)":"fde327be","pledgedAmount(uint256,address)":"aa4fb63a","refund(uint256)":"278ecde1","unPledge(uint256,uint256)":"a3a0e936"}},"storageLayout":{"storage":[{"astId":6,"contract":"contracts/Crowdfunding_Version2.sol:Crowdfunding_Version2","label":"_initialized","offset":0,"slot":"0","type":"t_uint8"},{"astId":9,"contract":"contracts/Crowdfunding_Version2.sol:Crowdfunding_Version2","label":"_initializing","offset":1,"slot":"0","type":"t_bool"},{"astId":3702,"contract":"contracts/Crowdfunding_Version2.sol:Crowdfunding_Version2","label":"numberOfCampaigns","offset":0,"slot":"1","type":"t_uint256"},{"astId":3704,"contract":"contracts/Crowdfunding_Version2.sol:Crowdfunding_Version2","label":"deadline","offset":0,"slot":"2","type":"t_uint256"},{"astId":3709,"contract":"contracts/Crowdfunding_Version2.sol:Crowdfunding_Version2","label":"campaigns","offset":0,"slot":"3","type":"t_mapping(t_uint256,t_struct(Campaign)3700_storage)"},{"astId":3715,"contract":"contracts/Crowdfunding_Version2.sol:Crowdfunding_Version2","label":"pledgedAmount","offset":0,"slot":"4","type":"t_mapping(t_uint256,t_mapping(t_address,t_uint256))"}],"types":{"t_address":{"encoding":"inplace","label":"address","numberOfBytes":"20"},"t_bool":{"encoding":"inplace","label":"bool","numberOfBytes":"1"},"t_mapping(t_address,t_uint256)":{"encoding":"mapping","key":"t_address","label":"mapping(address => uint256)","numberOfBytes":"32","value":"t_uint256"},"t_mapping(t_uint256,t_mapping(t_address,t_uint256))":{"encoding":"mapping","key":"t_uint256","label":"mapping(uint256 => mapping(address => uint256))","numberOfBytes":"32","value":"t_mapping(t_address,t_uint256)"},"t_mapping(t_uint256,t_struct(Campaign)3700_storage)":{"encoding":"mapping","key":"t_uint256","label":"mapping(uint256 => struct Crowdfunding_Version2.Campaign)","numberOfBytes":"32","value":"t_struct(Campaign)3700_storage"},"t_string_storage":{"encoding":"bytes","label":"string","numberOfBytes":"32"},"t_struct(Campaign)3700_storage":{"encoding":"inplace","label":"struct Crowdfunding_Version2.Campaign","members":[{"astId":3681,"contract":"contracts/Crowdfunding_Version2.sol:Crowdfunding_Version2","label":"owner","offset":0,"slot":"0","type":"t_address"},{"astId":3683,"contract":"contracts/Crowdfunding_Version2.sol:Crowdfunding_Version2","label":"title","offset":0,"slot":"1","type":"t_string_storage"},{"astId":3685,"contract":"contracts/Crowdfunding_Version2.sol:Crowdfunding_Version2","label":"description","offset":0,"slot":"2","type":"t_string_storage"},{"astId":3687,"contract":"contracts/Crowdfunding_Version2.sol:Crowdfunding_Version2","label":"campaignImage","offset":0,"slot":"3","type":"t_string_storage"},{"astId":3689,"contract":"contracts/Crowdfunding_Version2.sol:Crowdfunding_Version2","label":"goal","offset":0,"slot":"4","type":"t_uint256"},{"astId":3691,"contract":"contracts/Crowdfunding_Version2.sol:Crowdfunding_Version2","label":"pledged","offset":0,"slot":"5","type":"t_uint256"},{"astId":3693,"contract":"contracts/Crowdfunding_Version2.sol:Crowdfunding_Version2","label":"startCampaign","offset":0,"slot":"6","type":"t_uint256"},{"astId":3695,"contract":"contracts/Crowdfunding_Version2.sol:Crowdfunding_Version2","label":"endCampaign","offset":0,"slot":"7","type":"t_uint256"},{"astId":3697,"contract":"contracts/Crowdfunding_Version2.sol:Crowdfunding_Version2","label":"token","offset":0,"slot":"8","type":"t_address"},{"astId":3699,"contract":"contracts/Crowdfunding_Version2.sol:Crowdfunding_Version2","label":"claimed","offset":20,"slot":"8","type":"t_bool"}],"numberOfBytes":"288"},"t_uint256":{"encoding":"inplace","label":"uint256","numberOfBytes":"32"},"t_uint8":{"encoding":"inplace","label":"uint8","numberOfBytes":"1"}}}}}}