{"contracts/MetaToken.sol":{"MetaToken":{"abi":[{"inputs":[],"stateMutability":"nonpayable","type":"constructor"},{"anonymous":false,"inputs":[{"indexed":true,"internalType":"address","name":"owner","type":"address"},{"indexed":true,"internalType":"address","name":"spender","type":"address"},{"indexed":false,"internalType":"uint256","name":"value","type":"uint256"}],"name":"Approval","type":"event"},{"anonymous":false,"inputs":[{"indexed":true,"internalType":"address","name":"previousOwner","type":"address"},{"indexed":true,"internalType":"address","name":"newOwner","type":"address"}],"name":"OwnershipTransferred","type":"event"},{"anonymous":false,"inputs":[{"indexed":true,"internalType":"address","name":"from","type":"address"},{"indexed":true,"internalType":"address","name":"to","type":"address"},{"indexed":false,"internalType":"uint256","name":"value","type":"uint256"}],"name":"Transfer","type":"event"},{"inputs":[],"name":"DOMAIN_SEPARATOR","outputs":[{"internalType":"bytes32","name":"","type":"bytes32"}],"stateMutability":"view","type":"function"},{"inputs":[{"internalType":"address","name":"owner","type":"address"},{"internalType":"address","name":"spender","type":"address"}],"name":"allowance","outputs":[{"internalType":"uint256","name":"","type":"uint256"}],"stateMutability":"view","type":"function"},{"inputs":[{"internalType":"address","name":"spender","type":"address"},{"internalType":"uint256","name":"amount","type":"uint256"}],"name":"approve","outputs":[{"internalType":"bool","name":"","type":"bool"}],"stateMutability":"nonpayable","type":"function"},{"inputs":[{"internalType":"address","name":"account","type":"address"}],"name":"balanceOf","outputs":[{"internalType":"uint256","name":"","type":"uint256"}],"stateMutability":"view","type":"function"},{"inputs":[],"name":"decimals","outputs":[{"internalType":"uint8","name":"","type":"uint8"}],"stateMutability":"view","type":"function"},{"inputs":[{"internalType":"address","name":"spender","type":"address"},{"internalType":"uint256","name":"subtractedValue","type":"uint256"}],"name":"decreaseAllowance","outputs":[{"internalType":"bool","name":"","type":"bool"}],"stateMutability":"nonpayable","type":"function"},{"inputs":[{"internalType":"address","name":"spender","type":"address"},{"internalType":"uint256","name":"addedValue","type":"uint256"}],"name":"increaseAllowance","outputs":[{"internalType":"bool","name":"","type":"bool"}],"stateMutability":"nonpayable","type":"function"},{"inputs":[{"internalType":"address","name":"to","type":"address"},{"internalType":"uint256","name":"amount","type":"uint256"}],"name":"mint","outputs":[],"stateMutability":"nonpayable","type":"function"},{"inputs":[],"name":"name","outputs":[{"internalType":"string","name":"","type":"string"}],"stateMutability":"view","type":"function"},{"inputs":[{"internalType":"address","name":"owner","type":"address"}],"name":"nonces","outputs":[{"internalType":"uint256","name":"","type":"uint256"}],"stateMutability":"view","type":"function"},{"inputs":[],"name":"owner","outputs":[{"internalType":"address","name":"","type":"address"}],"stateMutability":"view","type":"function"},{"inputs":[{"internalType":"address","name":"owner","type":"address"},{"internalType":"address","name":"spender","type":"address"},{"internalType":"uint256","name":"value","type":"uint256"},{"internalType":"uint256","name":"deadline","type":"uint256"},{"internalType":"uint8","name":"v","type":"uint8"},{"internalType":"bytes32","name":"r","type":"bytes32"},{"internalType":"bytes32","name":"s","type":"bytes32"}],"name":"permit","outputs":[],"stateMutability":"nonpayable","type":"function"},{"inputs":[],"name":"renounceOwnership","outputs":[],"stateMutability":"nonpayable","type":"function"},{"inputs":[],"name":"symbol","outputs":[{"internalType":"string","name":"","type":"string"}],"stateMutability":"view","type":"function"},{"inputs":[],"name":"totalSupply","outputs":[{"internalType":"uint256","name":"","type":"uint256"}],"stateMutability":"view","type":"function"},{"inputs":[{"internalType":"address","name":"to","type":"address"},{"internalType":"uint256","name":"amount","type":"uint256"}],"name":"transfer","outputs":[{"internalType":"bool","name":"","type":"bool"}],"stateMutability":"nonpayable","type":"function"},{"inputs":[{"internalType":"address","name":"from","type":"address"},{"internalType":"address","name":"to","type":"address"},{"internalType":"uint256","name":"amount","type":"uint256"}],"name":"transferFrom","outputs":[{"internalType":"bool","name":"","type":"bool"}],"stateMutability":"nonpayable","type":"function"},{"inputs":[{"internalType":"address","name":"newOwner","type":"address"}],"name":"transferOwnership","outputs":[],"stateMutability":"nonpayable","type":"function"}],"evm":{"bytecode":{"linkReferences":{},"object":"6101406040523480156200001257600080fd5b506040518060400160405280600981526020017f4d657461546f6b656e0000000000000000000000000000000000000000000000815250806040518060400160405280600181526020017f31000000000000000000000000000000000000000000000000000000000000008152506040518060400160405280600981526020017f4d657461546f6b656e00000000000000000000000000000000000000000000008152506040518060400160405280600381526020017f4d545400000000000000000000000000000000000000000000000000000000008152508160039081620000fd91906200056f565b5080600490816200010f91906200056f565b5050506200013262000126620001eb60201b60201c565b620001f360201b60201c565b60008280519060200120905060008280519060200120905060007f8b73c3c69bb8fe3d512ecc4cf759cc79239f7b179b0ffacaa9a75d522b39400f90508260e081815250508161010081815250504660a081815250506200019b818484620002b960201b60201c565b608081815250503073ffffffffffffffffffffffffffffffffffffffff1660c08173ffffffffffffffffffffffffffffffffffffffff168152505080610120818152505050505050505062000724565b600033905090565b6000600560009054906101000a900473ffffffffffffffffffffffffffffffffffffffff16905081600560006101000a81548173ffffffffffffffffffffffffffffffffffffffff021916908373ffffffffffffffffffffffffffffffffffffffff1602179055508173ffffffffffffffffffffffffffffffffffffffff168173ffffffffffffffffffffffffffffffffffffffff167f8be0079c531659141344cd1fd0a4f28419497f9722a3daafe3b4186f6b6457e060405160405180910390a35050565b60008383834630604051602001620002d6959493929190620006c7565b6040516020818303038152906040528051906020012090509392505050565b600081519050919050565b7f4e487b7100000000000000000000000000000000000000000000000000000000600052604160045260246000fd5b7f4e487b7100000000000000000000000000000000000000000000000000000000600052602260045260246000fd5b600060028204905060018216806200037757607f821691505b6020821081036200038d576200038c6200032f565b5b50919050565b60008190508160005260206000209050919050565b60006020601f8301049050919050565b600082821b905092915050565b600060088302620003f77fffffffffffffffffffffffffffffffffffffffffffffffffffffffffffffffff82620003b8565b620004038683620003b8565b95508019841693508086168417925050509392505050565b6000819050919050565b6000819050919050565b6000620004506200044a62000444846200041b565b62000425565b6200041b565b9050919050565b6000819050919050565b6200046c836200042f565b620004846200047b8262000457565b848454620003c5565b825550505050565b600090565b6200049b6200048c565b620004a881848462000461565b505050565b5b81811015620004d057620004c460008262000491565b600181019050620004ae565b5050565b601f8211156200051f57620004e98162000393565b620004f484620003a8565b8101602085101562000504578190505b6200051c6200051385620003a8565b830182620004ad565b50505b505050565b600082821c905092915050565b6000620005446000198460080262000524565b1980831691505092915050565b60006200055f838362000531565b9150826002028217905092915050565b6200057a82620002f5565b67ffffffffffffffff81111562000596576200059562000300565b5b620005a282546200035e565b620005af828285620004d4565b600060209050601f831160018114620005e75760008415620005d2578287015190505b620005de858262000551565b8655506200064e565b601f198416620005f78662000393565b60005b828110156200062157848901518255600182019150602085019450602081019050620005fa565b868310156200064157848901516200063d601f89168262000531565b8355505b6001600288020188555050505b505050505050565b6000819050919050565b6200066b8162000656565b82525050565b6200067c816200041b565b82525050565b600073ffffffffffffffffffffffffffffffffffffffff82169050919050565b6000620006af8262000682565b9050919050565b620006c181620006a2565b82525050565b600060a082019050620006de600083018862000660565b620006ed602083018762000660565b620006fc604083018662000660565b6200070b606083018562000671565b6200071a6080830184620006b6565b9695505050505050565b60805160a05160c05160e05161010051610120516123e9620007746000396000610ecf01526000610f1101526000610ef001526000610e2501526000610e7b01526000610ea401526123e96000f3fe608060405234801561001057600080fd5b50600436106101165760003560e01c8063715018a6116100a2578063a457c2d711610071578063a457c2d7146102e5578063a9059cbb14610315578063d505accf14610345578063dd62ed3e14610361578063f2fde38b1461039157610116565b8063715018a61461026f5780637ecebe00146102795780638da5cb5b146102a957806395d89b41146102c757610116565b8063313ce567116100e9578063313ce567146101b75780633644e515146101d557806339509351146101f357806340c10f191461022357806370a082311461023f57610116565b806306fdde031461011b578063095ea7b31461013957806318160ddd1461016957806323b872dd14610187575b600080fd5b6101236103ad565b60405161013091906115eb565b60405180910390f35b610153600480360381019061014e91906116a6565b61043f565b6040516101609190611701565b60405180910390f35b610171610462565b60405161017e919061172b565b60405180910390f35b6101a1600480360381019061019c9190611746565b61046c565b6040516101ae9190611701565b60405180910390f35b6101bf61049b565b6040516101cc91906117b5565b60405180910390f35b6101dd6104a4565b6040516101ea91906117e9565b60405180910390f35b61020d600480360381019061020891906116a6565b6104b3565b60405161021a9190611701565b60405180910390f35b61023d600480360381019061023891906116a6565b6104ea565b005b61025960048036038101906102549190611804565b610500565b604051610266919061172b565b60405180910390f35b610277610548565b005b610293600480360381019061028e9190611804565b61055c565b6040516102a0919061172b565b60405180910390f35b6102b16105ac565b6040516102be9190611840565b60405180910390f35b6102cf6105d6565b6040516102dc91906115eb565b60405180910390f35b6102ff60048036038101906102fa91906116a6565b610668565b60405161030c9190611701565b60405180910390f35b61032f600480360381019061032a91906116a6565b6106df565b60405161033c9190611701565b60405180910390f35b61035f600480360381019061035a91906118b3565b610702565b005b61037b60048036038101906103769190611955565b610844565b604051610388919061172b565b60405180910390f35b6103ab60048036038101906103a69190611804565b6108cb565b005b6060600380546103bc906119c4565b80601f01602080910402602001604051908101604052809291908181526020018280546103e8906119c4565b80156104355780601f1061040a57610100808354040283529160200191610435565b820191906000526020600020905b81548152906001019060200180831161041857829003601f168201915b5050505050905090565b60008061044a61094e565b9050610457818585610956565b600191505092915050565b6000600254905090565b60008061047761094e565b9050610484858285610b1f565b61048f858585610bab565b60019150509392505050565b60006012905090565b60006104ae610e21565b905090565b6000806104be61094e565b90506104df8185856104d08589610844565b6104da9190611a24565b610956565b600191505092915050565b6104f2610f3b565b6104fc8282610fb9565b5050565b60008060008373ffffffffffffffffffffffffffffffffffffffff1673ffffffffffffffffffffffffffffffffffffffff168152602001908152602001600020549050919050565b610550610f3b565b61055a600061110f565b565b60006105a5600660008473ffffffffffffffffffffffffffffffffffffffff1673ffffffffffffffffffffffffffffffffffffffff1681526020019081526020016000206111d5565b9050919050565b6000600560009054906101000a900473ffffffffffffffffffffffffffffffffffffffff16905090565b6060600480546105e5906119c4565b80601f0160208091040260200160405190810160405280929190818152602001828054610611906119c4565b801561065e5780601f106106335761010080835404028352916020019161065e565b820191906000526020600020905b81548152906001019060200180831161064157829003601f168201915b5050505050905090565b60008061067361094e565b905060006106818286610844565b9050838110156106c6576040517f08c379a00000000000000000000000000000000000000000000000000000000081526004016106bd90611aca565b60405180910390fd5b6106d38286868403610956565b60019250505092915050565b6000806106ea61094e565b90506106f7818585610bab565b600191505092915050565b83421115610745576040517f08c379a000000000000000000000000000000000000000000000000000000000815260040161073c90611b36565b60405180910390fd5b60007f6e71edae12b1b97f4d1f60370fef10105fa2faae0126114a169c64845d6126c98888886107748c6111e3565b8960405160200161078a96959493929190611b56565b60405160208183030381529060405280519060200120905060006107ad82611241565b905060006107bd8287878761125b565b90508973ffffffffffffffffffffffffffffffffffffffff168173ffffffffffffffffffffffffffffffffffffffff161461082d576040517f08c379a000000000000000000000000000000000000000000000000000000000815260040161082490611c03565b60405180910390fd5b6108388a8a8a610956565b50505050505050505050565b6000600160008473ffffffffffffffffffffffffffffffffffffffff1673ffffffffffffffffffffffffffffffffffffffff16815260200190815260200160002060008373ffffffffffffffffffffffffffffffffffffffff1673ffffffffffffffffffffffffffffffffffffffff16815260200190815260200160002054905092915050565b6108d3610f3b565b600073ffffffffffffffffffffffffffffffffffffffff168173ffffffffffffffffffffffffffffffffffffffff1603610942576040517f08c379a000000000000000000000000000000000000000000000000000000000815260040161093990611c95565b60405180910390fd5b61094b8161110f565b50565b600033905090565b600073ffffffffffffffffffffffffffffffffffffffff168373ffffffffffffffffffffffffffffffffffffffff16036109c5576040517f08c379a00000000000000000000000000000000000000000000000000000000081526004016109bc90611d27565b60405180910390fd5b600073ffffffffffffffffffffffffffffffffffffffff168273ffffffffffffffffffffffffffffffffffffffff1603610a34576040517f08c379a0000000000000000000000000000000000000000000000000000000008152600401610a2b90611db9565b60405180910390fd5b80600160008573ffffffffffffffffffffffffffffffffffffffff1673ffffffffffffffffffffffffffffffffffffffff16815260200190815260200160002060008473ffffffffffffffffffffffffffffffffffffffff1673ffffffffffffffffffffffffffffffffffffffff168152602001908152602001600020819055508173ffffffffffffffffffffffffffffffffffffffff168373ffffffffffffffffffffffffffffffffffffffff167f8c5be1e5ebec7d5bd14f71427d1e84f3dd0314c0f7b2291e5b200ac8c7c3b92583604051610b12919061172b565b60405180910390a3505050565b6000610b2b8484610844565b90507fffffffffffffffffffffffffffffffffffffffffffffffffffffffffffffffff8114610ba55781811015610b97576040517f08c379a0000000000000000000000000000000000000000000000000000000008152600401610b8e90611e25565b60405180910390fd5b610ba48484848403610956565b5b50505050565b600073ffffffffffffffffffffffffffffffffffffffff168373ffffffffffffffffffffffffffffffffffffffff1603610c1a576040517f08c379a0000000000000000000000000000000000000000000000000000000008152600401610c1190611eb7565b60405180910390fd5b600073ffffffffffffffffffffffffffffffffffffffff168273ffffffffffffffffffffffffffffffffffffffff1603610c89576040517f08c379a0000000000000000000000000000000000000000000000000000000008152600401610c8090611f49565b60405180910390fd5b610c94838383611286565b60008060008573ffffffffffffffffffffffffffffffffffffffff1673ffffffffffffffffffffffffffffffffffffffff16815260200190815260200160002054905081811015610d1a576040517f08c379a0000000000000000000000000000000000000000000000000000000008152600401610d1190611fdb565b60405180910390fd5b8181036000808673ffffffffffffffffffffffffffffffffffffffff1673ffffffffffffffffffffffffffffffffffffffff16815260200190815260200160002081905550816000808573ffffffffffffffffffffffffffffffffffffffff1673ffffffffffffffffffffffffffffffffffffffff168152602001908152602001600020600082825401925050819055508273ffffffffffffffffffffffffffffffffffffffff168473ffffffffffffffffffffffffffffffffffffffff167fddf252ad1be2c89b69c2b068fc378daa952ba7f163c4a11628f55a4df523b3ef84604051610e08919061172b565b60405180910390a3610e1b84848461128b565b50505050565b60007f000000000000000000000000000000000000000000000000000000000000000073ffffffffffffffffffffffffffffffffffffffff163073ffffffffffffffffffffffffffffffffffffffff16148015610e9d57507f000000000000000000000000000000000000000000000000000000000000000046145b15610eca577f00000000000000000000000000000000000000000000000000000000000000009050610f38565b610f357f00000000000000000000000000000000000000000000000000000000000000007f00000000000000000000000000000000000000000000000000000000000000007f0000000000000000000000000000000000000000000000000000000000000000611290565b90505b90565b610f4361094e565b73ffffffffffffffffffffffffffffffffffffffff16610f616105ac565b73ffffffffffffffffffffffffffffffffffffffff1614610fb7576040517f08c379a0000000000000000000000000000000000000000000000000000000008152600401610fae90612047565b60405180910390fd5b565b600073ffffffffffffffffffffffffffffffffffffffff168273ffffffffffffffffffffffffffffffffffffffff1603611028576040517f08c379a000000000000000000000000000000000000000000000000000000000815260040161101f906120b3565b60405180910390fd5b61103460008383611286565b80600260008282546110469190611a24565b92505081905550806000808473ffffffffffffffffffffffffffffffffffffffff1673ffffffffffffffffffffffffffffffffffffffff168152602001908152602001600020600082825401925050819055508173ffffffffffffffffffffffffffffffffffffffff16600073ffffffffffffffffffffffffffffffffffffffff167fddf252ad1be2c89b69c2b068fc378daa952ba7f163c4a11628f55a4df523b3ef836040516110f7919061172b565b60405180910390a361110b6000838361128b565b5050565b6000600560009054906101000a900473ffffffffffffffffffffffffffffffffffffffff16905081600560006101000a81548173ffffffffffffffffffffffffffffffffffffffff021916908373ffffffffffffffffffffffffffffffffffffffff1602179055508173ffffffffffffffffffffffffffffffffffffffff168173ffffffffffffffffffffffffffffffffffffffff167f8be0079c531659141344cd1fd0a4f28419497f9722a3daafe3b4186f6b6457e060405160405180910390a35050565b600081600001549050919050565b600080600660008473ffffffffffffffffffffffffffffffffffffffff1673ffffffffffffffffffffffffffffffffffffffff1681526020019081526020016000209050611230816111d5565b915061123b816112ca565b50919050565b600061125461124e610e21565b836112e0565b9050919050565b600080600061126c87878787611313565b91509150611279816113f5565b8192505050949350505050565b505050565b505050565b600083838346306040516020016112ab9594939291906120d3565b6040516020818303038152906040528051906020012090509392505050565b6001816000016000828254019250508190555050565b600082826040516020016112f592919061219e565b60405160208183030381529060405280519060200120905092915050565b6000807f7fffffffffffffffffffffffffffffff5d576e7357a4501ddfe92f46681b20a08360001c111561134e5760006003915091506113ec565b60006001878787876040516000815260200160405260405161137394939291906121d5565b6020604051602081039080840390855afa158015611395573d6000803e3d6000fd5b505050602060405103519050600073ffffffffffffffffffffffffffffffffffffffff168173ffffffffffffffffffffffffffffffffffffffff16036113e3576000600192509250506113ec565b80600092509250505b94509492505050565b600060048111156114095761140861221a565b5b81600481111561141c5761141b61221a565b5b031561155857600160048111156114365761143561221a565b5b8160048111156114495761144861221a565b5b03611489576040517f08c379a000000000000000000000000000000000000000000000000000000000815260040161148090612295565b60405180910390fd5b6002600481111561149d5761149c61221a565b5b8160048111156114b0576114af61221a565b5b036114f0576040517f08c379a00000000000000000000000000000000000000000000000000000000081526004016114e790612301565b60405180910390fd5b600360048111156115045761150361221a565b5b8160048111156115175761151661221a565b5b03611557576040517f08c379a000000000000000000000000000000000000000000000000000000000815260040161154e90612393565b60405180910390fd5b5b50565b600081519050919050565b600082825260208201905092915050565b60005b8381101561159557808201518184015260208101905061157a565b60008484015250505050565b6000601f19601f8301169050919050565b60006115bd8261155b565b6115c78185611566565b93506115d7818560208601611577565b6115e0816115a1565b840191505092915050565b6000602082019050818103600083015261160581846115b2565b905092915050565b600080fd5b600073ffffffffffffffffffffffffffffffffffffffff82169050919050565b600061163d82611612565b9050919050565b61164d81611632565b811461165857600080fd5b50565b60008135905061166a81611644565b92915050565b6000819050919050565b61168381611670565b811461168e57600080fd5b50565b6000813590506116a08161167a565b92915050565b600080604083850312156116bd576116bc61160d565b5b60006116cb8582860161165b565b92505060206116dc85828601611691565b9150509250929050565b60008115159050919050565b6116fb816116e6565b82525050565b600060208201905061171660008301846116f2565b92915050565b61172581611670565b82525050565b6000602082019050611740600083018461171c565b92915050565b60008060006060848603121561175f5761175e61160d565b5b600061176d8682870161165b565b935050602061177e8682870161165b565b925050604061178f86828701611691565b9150509250925092565b600060ff82169050919050565b6117af81611799565b82525050565b60006020820190506117ca60008301846117a6565b92915050565b6000819050919050565b6117e3816117d0565b82525050565b60006020820190506117fe60008301846117da565b92915050565b60006020828403121561181a5761181961160d565b5b60006118288482850161165b565b91505092915050565b61183a81611632565b82525050565b60006020820190506118556000830184611831565b92915050565b61186481611799565b811461186f57600080fd5b50565b6000813590506118818161185b565b92915050565b611890816117d0565b811461189b57600080fd5b50565b6000813590506118ad81611887565b92915050565b600080600080600080600060e0888a0312156118d2576118d161160d565b5b60006118e08a828b0161165b565b97505060206118f18a828b0161165b565b96505060406119028a828b01611691565b95505060606119138a828b01611691565b94505060806119248a828b01611872565b93505060a06119358a828b0161189e565b92505060c06119468a828b0161189e565b91505092959891949750929550565b6000806040838503121561196c5761196b61160d565b5b600061197a8582860161165b565b925050602061198b8582860161165b565b9150509250929050565b7f4e487b7100000000000000000000000000000000000000000000000000000000600052602260045260246000fd5b600060028204905060018216806119dc57607f821691505b6020821081036119ef576119ee611995565b5b50919050565b7f4e487b7100000000000000000000000000000000000000000000000000000000600052601160045260246000fd5b6000611a2f82611670565b9150611a3a83611670565b9250828201905080821115611a5257611a516119f5565b5b92915050565b7f45524332303a2064656372656173656420616c6c6f77616e63652062656c6f7760008201527f207a65726f000000000000000000000000000000000000000000000000000000602082015250565b6000611ab4602583611566565b9150611abf82611a58565b604082019050919050565b60006020820190508181036000830152611ae381611aa7565b9050919050565b7f45524332305065726d69743a206578706972656420646561646c696e65000000600082015250565b6000611b20601d83611566565b9150611b2b82611aea565b602082019050919050565b60006020820190508181036000830152611b4f81611b13565b9050919050565b600060c082019050611b6b60008301896117da565b611b786020830188611831565b611b856040830187611831565b611b92606083018661171c565b611b9f608083018561171c565b611bac60a083018461171c565b979650505050505050565b7f45524332305065726d69743a20696e76616c6964207369676e61747572650000600082015250565b6000611bed601e83611566565b9150611bf882611bb7565b602082019050919050565b60006020820190508181036000830152611c1c81611be0565b9050919050565b7f4f776e61626c653a206e6577206f776e657220697320746865207a65726f206160008201527f6464726573730000000000000000000000000000000000000000000000000000602082015250565b6000611c7f602683611566565b9150611c8a82611c23565b604082019050919050565b60006020820190508181036000830152611cae81611c72565b9050919050565b7f45524332303a20617070726f76652066726f6d20746865207a65726f2061646460008201527f7265737300000000000000000000000000000000000000000000000000000000602082015250565b6000611d11602483611566565b9150611d1c82611cb5565b604082019050919050565b60006020820190508181036000830152611d4081611d04565b9050919050565b7f45524332303a20617070726f766520746f20746865207a65726f20616464726560008201527f7373000000000000000000000000000000000000000000000000000000000000602082015250565b6000611da3602283611566565b9150611dae82611d47565b604082019050919050565b60006020820190508181036000830152611dd281611d96565b9050919050565b7f45524332303a20696e73756666696369656e7420616c6c6f77616e6365000000600082015250565b6000611e0f601d83611566565b9150611e1a82611dd9565b602082019050919050565b60006020820190508181036000830152611e3e81611e02565b9050919050565b7f45524332303a207472616e736665722066726f6d20746865207a65726f20616460008201527f6472657373000000000000000000000000000000000000000000000000000000602082015250565b6000611ea1602583611566565b9150611eac82611e45565b604082019050919050565b60006020820190508181036000830152611ed081611e94565b9050919050565b7f45524332303a207472616e7366657220746f20746865207a65726f206164647260008201527f6573730000000000000000000000000000000000000000000000000000000000602082015250565b6000611f33602383611566565b9150611f3e82611ed7565b604082019050919050565b60006020820190508181036000830152611f6281611f26565b9050919050565b7f45524332303a207472616e7366657220616d6f756e742065786365656473206260008201527f616c616e63650000000000000000000000000000000000000000000000000000602082015250565b6000611fc5602683611566565b9150611fd082611f69565b604082019050919050565b60006020820190508181036000830152611ff481611fb8565b9050919050565b7f4f776e61626c653a2063616c6c6572206973206e6f7420746865206f776e6572600082015250565b6000612031602083611566565b915061203c82611ffb565b602082019050919050565b6000602082019050818103600083015261206081612024565b9050919050565b7f45524332303a206d696e7420746f20746865207a65726f206164647265737300600082015250565b600061209d601f83611566565b91506120a882612067565b602082019050919050565b600060208201905081810360008301526120cc81612090565b9050919050565b600060a0820190506120e860008301886117da565b6120f560208301876117da565b61210260408301866117da565b61210f606083018561171c565b61211c6080830184611831565b9695505050505050565b600081905092915050565b7f1901000000000000000000000000000000000000000000000000000000000000600082015250565b6000612167600283612126565b915061217282612131565b600282019050919050565b6000819050919050565b612198612193826117d0565b61217d565b82525050565b60006121a98261215a565b91506121b58285612187565b6020820191506121c58284612187565b6020820191508190509392505050565b60006080820190506121ea60008301876117da565b6121f760208301866117a6565b61220460408301856117da565b61221160608301846117da565b95945050505050565b7f4e487b7100000000000000000000000000000000000000000000000000000000600052602160045260246000fd5b7f45434453413a20696e76616c6964207369676e61747572650000000000000000600082015250565b600061227f601883611566565b915061228a82612249565b602082019050919050565b600060208201905081810360008301526122ae81612272565b9050919050565b7f45434453413a20696e76616c6964207369676e6174757265206c656e67746800600082015250565b60006122eb601f83611566565b91506122f6826122b5565b602082019050919050565b6000602082019050818103600083015261231a816122de565b9050919050565b7f45434453413a20696e76616c6964207369676e6174757265202773272076616c60008201527f7565000000000000000000000000000000000000000000000000000000000000602082015250565b600061237d602283611566565b915061238882612321565b604082019050919050565b600060208201905081810360008301526123ac81612370565b905091905056fea2646970667358221220c4d80b132db5ab0df109651be664343b5c6642afbd159b94a0417182b87d983164736f6c63430008110033","opcodes":"PUSH2 0x140 PUSH1 0x40 MSTORE CALLVALUE DUP1 ISZERO PUSH3 0x12 JUMPI PUSH1 0x0 DUP1 REVERT JUMPDEST POP PUSH1 0x40 MLOAD DUP1 PUSH1 0x40 ADD PUSH1 0x40 MSTORE DUP1 PUSH1 0x9 DUP2 MSTORE PUSH1 0x20 ADD PUSH32 0x4D657461546F6B656E0000000000000000000000000000000000000000000000 DUP2 MSTORE POP DUP1 PUSH1 0x40 MLOAD DUP1 PUSH1 0x40 ADD PUSH1 0x40 MSTORE DUP1 PUSH1 0x1 DUP2 MSTORE PUSH1 0x20 ADD PUSH32 0x3100000000000000000000000000000000000000000000000000000000000000 DUP2 MSTORE POP PUSH1 0x40 MLOAD DUP1 PUSH1 0x40 ADD PUSH1 0x40 MSTORE DUP1 PUSH1 0x9 DUP2 MSTORE PUSH1 0x20 ADD PUSH32 0x4D657461546F6B656E0000000000000000000000000000000000000000000000 DUP2 MSTORE POP PUSH1 0x40 MLOAD DUP1 PUSH1 0x40 ADD PUSH1 0x40 MSTORE DUP1 PUSH1 0x3 DUP2 MSTORE PUSH1 0x20 ADD PUSH32 0x4D54540000000000000000000000000000000000000000000000000000000000 DUP2 MSTORE POP DUP2 PUSH1 0x3 SWAP1 DUP2 PUSH3 0xFD SWAP2 SWAP1 PUSH3 0x56F JUMP JUMPDEST POP DUP1 PUSH1 0x4 SWAP1 DUP2 PUSH3 0x10F SWAP2 SWAP1 PUSH3 0x56F JUMP JUMPDEST POP POP POP PUSH3 0x132 PUSH3 0x126 PUSH3 0x1EB PUSH1 0x20 SHL PUSH1 0x20 SHR JUMP JUMPDEST PUSH3 0x1F3 PUSH1 0x20 SHL PUSH1 0x20 SHR JUMP JUMPDEST PUSH1 0x0 DUP3 DUP1 MLOAD SWAP1 PUSH1 0x20 ADD KECCAK256 SWAP1 POP PUSH1 0x0 DUP3 DUP1 MLOAD SWAP1 PUSH1 0x20 ADD KECCAK256 SWAP1 POP PUSH1 0x0 PUSH32 0x8B73C3C69BB8FE3D512ECC4CF759CC79239F7B179B0FFACAA9A75D522B39400F SWAP1 POP DUP3 PUSH1 0xE0 DUP2 DUP2 MSTORE POP POP DUP2 PUSH2 0x100 DUP2 DUP2 MSTORE POP POP CHAINID PUSH1 0xA0 DUP2 DUP2 MSTORE POP POP PUSH3 0x19B DUP2 DUP5 DUP5 PUSH3 0x2B9 PUSH1 0x20 SHL PUSH1 0x20 SHR JUMP JUMPDEST PUSH1 0x80 DUP2 DUP2 MSTORE POP POP ADDRESS PUSH20 0xFFFFFFFFFFFFFFFFFFFFFFFFFFFFFFFFFFFFFFFF AND PUSH1 0xC0 DUP2 PUSH20 0xFFFFFFFFFFFFFFFFFFFFFFFFFFFFFFFFFFFFFFFF AND DUP2 MSTORE POP POP DUP1 PUSH2 0x120 DUP2 DUP2 MSTORE POP POP POP POP POP POP POP POP PUSH3 0x724 JUMP JUMPDEST PUSH1 0x0 CALLER SWAP1 POP SWAP1 JUMP JUMPDEST PUSH1 0x0 PUSH1 0x5 PUSH1 0x0 SWAP1 SLOAD SWAP1 PUSH2 0x100 EXP SWAP1 DIV PUSH20 0xFFFFFFFFFFFFFFFFFFFFFFFFFFFFFFFFFFFFFFFF AND SWAP1 POP DUP2 PUSH1 0x5 PUSH1 0x0 PUSH2 0x100 EXP DUP2 SLOAD DUP2 PUSH20 0xFFFFFFFFFFFFFFFFFFFFFFFFFFFFFFFFFFFFFFFF MUL NOT AND SWAP1 DUP4 PUSH20 0xFFFFFFFFFFFFFFFFFFFFFFFFFFFFFFFFFFFFFFFF AND MUL OR SWAP1 SSTORE POP DUP2 PUSH20 0xFFFFFFFFFFFFFFFFFFFFFFFFFFFFFFFFFFFFFFFF AND DUP2 PUSH20 0xFFFFFFFFFFFFFFFFFFFFFFFFFFFFFFFFFFFFFFFF AND PUSH32 0x8BE0079C531659141344CD1FD0A4F28419497F9722A3DAAFE3B4186F6B6457E0 PUSH1 0x40 MLOAD PUSH1 0x40 MLOAD DUP1 SWAP2 SUB SWAP1 LOG3 POP POP JUMP JUMPDEST PUSH1 0x0 DUP4 DUP4 DUP4 CHAINID ADDRESS PUSH1 0x40 MLOAD PUSH1 0x20 ADD PUSH3 0x2D6 SWAP6 SWAP5 SWAP4 SWAP3 SWAP2 SWAP1 PUSH3 0x6C7 JUMP JUMPDEST PUSH1 0x40 MLOAD PUSH1 0x20 DUP2 DUP4 SUB SUB DUP2 MSTORE SWAP1 PUSH1 0x40 MSTORE DUP1 MLOAD SWAP1 PUSH1 0x20 ADD KECCAK256 SWAP1 POP SWAP4 SWAP3 POP POP POP JUMP JUMPDEST PUSH1 0x0 DUP2 MLOAD SWAP1 POP SWAP2 SWAP1 POP JUMP JUMPDEST PUSH32 0x4E487B7100000000000000000000000000000000000000000000000000000000 PUSH1 0x0 MSTORE PUSH1 0x41 PUSH1 0x4 MSTORE PUSH1 0x24 PUSH1 0x0 REVERT JUMPDEST PUSH32 0x4E487B7100000000000000000000000000000000000000000000000000000000 PUSH1 0x0 MSTORE PUSH1 0x22 PUSH1 0x4 MSTORE PUSH1 0x24 PUSH1 0x0 REVERT JUMPDEST PUSH1 0x0 PUSH1 0x2 DUP3 DIV SWAP1 POP PUSH1 0x1 DUP3 AND DUP1 PUSH3 0x377 JUMPI PUSH1 0x7F DUP3 AND SWAP2 POP JUMPDEST PUSH1 0x20 DUP3 LT DUP2 SUB PUSH3 0x38D JUMPI PUSH3 0x38C PUSH3 0x32F JUMP JUMPDEST JUMPDEST POP SWAP2 SWAP1 POP JUMP JUMPDEST PUSH1 0x0 DUP2 SWAP1 POP DUP2 PUSH1 0x0 MSTORE PUSH1 0x20 PUSH1 0x0 KECCAK256 SWAP1 POP SWAP2 SWAP1 POP JUMP JUMPDEST PUSH1 0x0 PUSH1 0x20 PUSH1 0x1F DUP4 ADD DIV SWAP1 POP SWAP2 SWAP1 POP JUMP JUMPDEST PUSH1 0x0 DUP3 DUP3 SHL SWAP1 POP SWAP3 SWAP2 POP POP JUMP JUMPDEST PUSH1 0x0 PUSH1 0x8 DUP4 MUL PUSH3 0x3F7 PUSH32 0xFFFFFFFFFFFFFFFFFFFFFFFFFFFFFFFFFFFFFFFFFFFFFFFFFFFFFFFFFFFFFFFF DUP3 PUSH3 0x3B8 JUMP JUMPDEST PUSH3 0x403 DUP7 DUP4 PUSH3 0x3B8 JUMP JUMPDEST SWAP6 POP DUP1 NOT DUP5 AND SWAP4 POP DUP1 DUP7 AND DUP5 OR SWAP3 POP POP POP SWAP4 SWAP3 POP POP POP JUMP JUMPDEST PUSH1 0x0 DUP2 SWAP1 POP SWAP2 SWAP1 POP JUMP JUMPDEST PUSH1 0x0 DUP2 SWAP1 POP SWAP2 SWAP1 POP JUMP JUMPDEST PUSH1 0x0 PUSH3 0x450 PUSH3 0x44A PUSH3 0x444 DUP5 PUSH3 0x41B JUMP JUMPDEST PUSH3 0x425 JUMP JUMPDEST PUSH3 0x41B JUMP JUMPDEST SWAP1 POP SWAP2 SWAP1 POP JUMP JUMPDEST PUSH1 0x0 DUP2 SWAP1 POP SWAP2 SWAP1 POP JUMP JUMPDEST PUSH3 0x46C DUP4 PUSH3 0x42F JUMP JUMPDEST PUSH3 0x484 PUSH3 0x47B DUP3 PUSH3 0x457 JUMP JUMPDEST DUP5 DUP5 SLOAD PUSH3 0x3C5 JUMP JUMPDEST DUP3 SSTORE POP POP POP POP JUMP JUMPDEST PUSH1 0x0 SWAP1 JUMP JUMPDEST PUSH3 0x49B PUSH3 0x48C JUMP JUMPDEST PUSH3 0x4A8 DUP2 DUP5 DUP5 PUSH3 0x461 JUMP JUMPDEST POP POP POP JUMP JUMPDEST JUMPDEST DUP2 DUP2 LT ISZERO PUSH3 0x4D0 JUMPI PUSH3 0x4C4 PUSH1 0x0 DUP3 PUSH3 0x491 JUMP JUMPDEST PUSH1 0x1 DUP2 ADD SWAP1 POP PUSH3 0x4AE JUMP JUMPDEST POP POP JUMP JUMPDEST PUSH1 0x1F DUP3 GT ISZERO PUSH3 0x51F JUMPI PUSH3 0x4E9 DUP2 PUSH3 0x393 JUMP JUMPDEST PUSH3 0x4F4 DUP5 PUSH3 0x3A8 JUMP JUMPDEST DUP2 ADD PUSH1 0x20 DUP6 LT ISZERO PUSH3 0x504 JUMPI DUP2 SWAP1 POP JUMPDEST PUSH3 0x51C PUSH3 0x513 DUP6 PUSH3 0x3A8 JUMP JUMPDEST DUP4 ADD DUP3 PUSH3 0x4AD JUMP JUMPDEST POP POP JUMPDEST POP POP POP JUMP JUMPDEST PUSH1 0x0 DUP3 DUP3 SHR SWAP1 POP SWAP3 SWAP2 POP POP JUMP JUMPDEST PUSH1 0x0 PUSH3 0x544 PUSH1 0x0 NOT DUP5 PUSH1 0x8 MUL PUSH3 0x524 JUMP JUMPDEST NOT DUP1 DUP4 AND SWAP2 POP POP SWAP3 SWAP2 POP POP JUMP JUMPDEST PUSH1 0x0 PUSH3 0x55F DUP4 DUP4 PUSH3 0x531 JUMP JUMPDEST SWAP2 POP DUP3 PUSH1 0x2 MUL DUP3 OR SWAP1 POP SWAP3 SWAP2 POP POP JUMP JUMPDEST PUSH3 0x57A DUP3 PUSH3 0x2F5 JUMP JUMPDEST PUSH8 0xFFFFFFFFFFFFFFFF DUP2 GT ISZERO PUSH3 0x596 JUMPI PUSH3 0x595 PUSH3 0x300 JUMP JUMPDEST JUMPDEST PUSH3 0x5A2 DUP3 SLOAD PUSH3 0x35E JUMP JUMPDEST PUSH3 0x5AF DUP3 DUP3 DUP6 PUSH3 0x4D4 JUMP JUMPDEST PUSH1 0x0 PUSH1 0x20 SWAP1 POP PUSH1 0x1F DUP4 GT PUSH1 0x1 DUP2 EQ PUSH3 0x5E7 JUMPI PUSH1 0x0 DUP5 ISZERO PUSH3 0x5D2 JUMPI DUP3 DUP8 ADD MLOAD SWAP1 POP JUMPDEST PUSH3 0x5DE DUP6 DUP3 PUSH3 0x551 JUMP JUMPDEST DUP7 SSTORE POP PUSH3 0x64E JUMP JUMPDEST PUSH1 0x1F NOT DUP5 AND PUSH3 0x5F7 DUP7 PUSH3 0x393 JUMP JUMPDEST PUSH1 0x0 JUMPDEST DUP3 DUP2 LT ISZERO PUSH3 0x621 JUMPI DUP5 DUP10 ADD MLOAD DUP3 SSTORE PUSH1 0x1 DUP3 ADD SWAP2 POP PUSH1 0x20 DUP6 ADD SWAP5 POP PUSH1 0x20 DUP2 ADD SWAP1 POP PUSH3 0x5FA JUMP JUMPDEST DUP7 DUP4 LT ISZERO PUSH3 0x641 JUMPI DUP5 DUP10 ADD MLOAD PUSH3 0x63D PUSH1 0x1F DUP10 AND DUP3 PUSH3 0x531 JUMP JUMPDEST DUP4 SSTORE POP JUMPDEST PUSH1 0x1 PUSH1 0x2 DUP9 MUL ADD DUP9 SSTORE POP POP POP JUMPDEST POP POP POP POP POP POP JUMP JUMPDEST PUSH1 0x0 DUP2 SWAP1 POP SWAP2 SWAP1 POP JUMP JUMPDEST PUSH3 0x66B DUP2 PUSH3 0x656 JUMP JUMPDEST DUP3 MSTORE POP POP JUMP JUMPDEST PUSH3 0x67C DUP2 PUSH3 0x41B JUMP JUMPDEST DUP3 MSTORE POP POP JUMP JUMPDEST PUSH1 0x0 PUSH20 0xFFFFFFFFFFFFFFFFFFFFFFFFFFFFFFFFFFFFFFFF DUP3 AND SWAP1 POP SWAP2 SWAP1 POP JUMP JUMPDEST PUSH1 0x0 PUSH3 0x6AF DUP3 PUSH3 0x682 JUMP JUMPDEST SWAP1 POP SWAP2 SWAP1 POP JUMP JUMPDEST PUSH3 0x6C1 DUP2 PUSH3 0x6A2 JUMP JUMPDEST DUP3 MSTORE POP POP JUMP JUMPDEST PUSH1 0x0 PUSH1 0xA0 DUP3 ADD SWAP1 POP PUSH3 0x6DE PUSH1 0x0 DUP4 ADD DUP9 PUSH3 0x660 JUMP JUMPDEST PUSH3 0x6ED PUSH1 0x20 DUP4 ADD DUP8 PUSH3 0x660 JUMP JUMPDEST PUSH3 0x6FC PUSH1 0x40 DUP4 ADD DUP7 PUSH3 0x660 JUMP JUMPDEST PUSH3 0x70B PUSH1 0x60 DUP4 ADD DUP6 PUSH3 0x671 JUMP JUMPDEST PUSH3 0x71A PUSH1 0x80 DUP4 ADD DUP5 PUSH3 0x6B6 JUMP JUMPDEST SWAP7 SWAP6 POP POP POP POP POP POP JUMP JUMPDEST PUSH1 0x80 MLOAD PUSH1 0xA0 MLOAD PUSH1 0xC0 MLOAD PUSH1 0xE0 MLOAD PUSH2 0x100 MLOAD PUSH2 0x120 MLOAD PUSH2 0x23E9 PUSH3 0x774 PUSH1 0x0 CODECOPY PUSH1 0x0 PUSH2 0xECF ADD MSTORE PUSH1 0x0 PUSH2 0xF11 ADD MSTORE PUSH1 0x0 PUSH2 0xEF0 ADD MSTORE PUSH1 0x0 PUSH2 0xE25 ADD MSTORE PUSH1 0x0 PUSH2 0xE7B ADD MSTORE PUSH1 0x0 PUSH2 0xEA4 ADD MSTORE PUSH2 0x23E9 PUSH1 0x0 RETURN INVALID PUSH1 0x80 PUSH1 0x40 MSTORE CALLVALUE DUP1 ISZERO PUSH2 0x10 JUMPI PUSH1 0x0 DUP1 REVERT JUMPDEST POP PUSH1 0x4 CALLDATASIZE LT PUSH2 0x116 JUMPI PUSH1 0x0 CALLDATALOAD PUSH1 0xE0 SHR DUP1 PUSH4 0x715018A6 GT PUSH2 0xA2 JUMPI DUP1 PUSH4 0xA457C2D7 GT PUSH2 0x71 JUMPI DUP1 PUSH4 0xA457C2D7 EQ PUSH2 0x2E5 JUMPI DUP1 PUSH4 0xA9059CBB EQ PUSH2 0x315 JUMPI DUP1 PUSH4 0xD505ACCF EQ PUSH2 0x345 JUMPI DUP1 PUSH4 0xDD62ED3E EQ PUSH2 0x361 JUMPI DUP1 PUSH4 0xF2FDE38B EQ PUSH2 0x391 JUMPI PUSH2 0x116 JUMP JUMPDEST DUP1 PUSH4 0x715018A6 EQ PUSH2 0x26F JUMPI DUP1 PUSH4 0x7ECEBE00 EQ PUSH2 0x279 JUMPI DUP1 PUSH4 0x8DA5CB5B EQ PUSH2 0x2A9 JUMPI DUP1 PUSH4 0x95D89B41 EQ PUSH2 0x2C7 JUMPI PUSH2 0x116 JUMP JUMPDEST DUP1 PUSH4 0x313CE567 GT PUSH2 0xE9 JUMPI DUP1 PUSH4 0x313CE567 EQ PUSH2 0x1B7 JUMPI DUP1 PUSH4 0x3644E515 EQ PUSH2 0x1D5 JUMPI DUP1 PUSH4 0x39509351 EQ PUSH2 0x1F3 JUMPI DUP1 PUSH4 0x40C10F19 EQ PUSH2 0x223 JUMPI DUP1 PUSH4 0x70A08231 EQ PUSH2 0x23F JUMPI PUSH2 0x116 JUMP JUMPDEST DUP1 PUSH4 0x6FDDE03 EQ PUSH2 0x11B JUMPI DUP1 PUSH4 0x95EA7B3 EQ PUSH2 0x139 JUMPI DUP1 PUSH4 0x18160DDD EQ PUSH2 0x169 JUMPI DUP1 PUSH4 0x23B872DD EQ PUSH2 0x187 JUMPI JUMPDEST PUSH1 0x0 DUP1 REVERT JUMPDEST PUSH2 0x123 PUSH2 0x3AD JUMP JUMPDEST PUSH1 0x40 MLOAD PUSH2 0x130 SWAP2 SWAP1 PUSH2 0x15EB JUMP JUMPDEST PUSH1 0x40 MLOAD DUP1 SWAP2 SUB SWAP1 RETURN JUMPDEST PUSH2 0x153 PUSH1 0x4 DUP1 CALLDATASIZE SUB DUP2 ADD SWAP1 PUSH2 0x14E SWAP2 SWAP1 PUSH2 0x16A6 JUMP JUMPDEST PUSH2 0x43F JUMP JUMPDEST PUSH1 0x40 MLOAD PUSH2 0x160 SWAP2 SWAP1 PUSH2 0x1701 JUMP JUMPDEST PUSH1 0x40 MLOAD DUP1 SWAP2 SUB SWAP1 RETURN JUMPDEST PUSH2 0x171 PUSH2 0x462 JUMP JUMPDEST PUSH1 0x40 MLOAD PUSH2 0x17E SWAP2 SWAP1 PUSH2 0x172B JUMP JUMPDEST PUSH1 0x40 MLOAD DUP1 SWAP2 SUB SWAP1 RETURN JUMPDEST PUSH2 0x1A1 PUSH1 0x4 DUP1 CALLDATASIZE SUB DUP2 ADD SWAP1 PUSH2 0x19C SWAP2 SWAP1 PUSH2 0x1746 JUMP JUMPDEST PUSH2 0x46C JUMP JUMPDEST PUSH1 0x40 MLOAD PUSH2 0x1AE SWAP2 SWAP1 PUSH2 0x1701 JUMP JUMPDEST PUSH1 0x40 MLOAD DUP1 SWAP2 SUB SWAP1 RETURN JUMPDEST PUSH2 0x1BF PUSH2 0x49B JUMP JUMPDEST PUSH1 0x40 MLOAD PUSH2 0x1CC SWAP2 SWAP1 PUSH2 0x17B5 JUMP JUMPDEST PUSH1 0x40 MLOAD DUP1 SWAP2 SUB SWAP1 RETURN JUMPDEST PUSH2 0x1DD PUSH2 0x4A4 JUMP JUMPDEST PUSH1 0x40 MLOAD PUSH2 0x1EA SWAP2 SWAP1 PUSH2 0x17E9 JUMP JUMPDEST PUSH1 0x40 MLOAD DUP1 SWAP2 SUB SWAP1 RETURN JUMPDEST PUSH2 0x20D PUSH1 0x4 DUP1 CALLDATASIZE SUB DUP2 ADD SWAP1 PUSH2 0x208 SWAP2 SWAP1 PUSH2 0x16A6 JUMP JUMPDEST PUSH2 0x4B3 JUMP JUMPDEST PUSH1 0x40 MLOAD PUSH2 0x21A SWAP2 SWAP1 PUSH2 0x1701 JUMP JUMPDEST PUSH1 0x40 MLOAD DUP1 SWAP2 SUB SWAP1 RETURN JUMPDEST PUSH2 0x23D PUSH1 0x4 DUP1 CALLDATASIZE SUB DUP2 ADD SWAP1 PUSH2 0x238 SWAP2 SWAP1 PUSH2 0x16A6 JUMP JUMPDEST PUSH2 0x4EA JUMP JUMPDEST STOP JUMPDEST PUSH2 0x259 PUSH1 0x4 DUP1 CALLDATASIZE SUB DUP2 ADD SWAP1 PUSH2 0x254 SWAP2 SWAP1 PUSH2 0x1804 JUMP JUMPDEST PUSH2 0x500 JUMP JUMPDEST PUSH1 0x40 MLOAD PUSH2 0x266 SWAP2 SWAP1 PUSH2 0x172B JUMP JUMPDEST PUSH1 0x40 MLOAD DUP1 SWAP2 SUB SWAP1 RETURN JUMPDEST PUSH2 0x277 PUSH2 0x548 JUMP JUMPDEST STOP JUMPDEST PUSH2 0x293 PUSH1 0x4 DUP1 CALLDATASIZE SUB DUP2 ADD SWAP1 PUSH2 0x28E SWAP2 SWAP1 PUSH2 0x1804 JUMP JUMPDEST PUSH2 0x55C JUMP JUMPDEST PUSH1 0x40 MLOAD PUSH2 0x2A0 SWAP2 SWAP1 PUSH2 0x172B JUMP JUMPDEST PUSH1 0x40 MLOAD DUP1 SWAP2 SUB SWAP1 RETURN JUMPDEST PUSH2 0x2B1 PUSH2 0x5AC JUMP JUMPDEST PUSH1 0x40 MLOAD PUSH2 0x2BE SWAP2 SWAP1 PUSH2 0x1840 JUMP JUMPDEST PUSH1 0x40 MLOAD DUP1 SWAP2 SUB SWAP1 RETURN JUMPDEST PUSH2 0x2CF PUSH2 0x5D6 JUMP JUMPDEST PUSH1 0x40 MLOAD PUSH2 0x2DC SWAP2 SWAP1 PUSH2 0x15EB JUMP JUMPDEST PUSH1 0x40 MLOAD DUP1 SWAP2 SUB SWAP1 RETURN JUMPDEST PUSH2 0x2FF PUSH1 0x4 DUP1 CALLDATASIZE SUB DUP2 ADD SWAP1 PUSH2 0x2FA SWAP2 SWAP1 PUSH2 0x16A6 JUMP JUMPDEST PUSH2 0x668 JUMP JUMPDEST PUSH1 0x40 MLOAD PUSH2 0x30C SWAP2 SWAP1 PUSH2 0x1701 JUMP JUMPDEST PUSH1 0x40 MLOAD DUP1 SWAP2 SUB SWAP1 RETURN JUMPDEST PUSH2 0x32F PUSH1 0x4 DUP1 CALLDATASIZE SUB DUP2 ADD SWAP1 PUSH2 0x32A SWAP2 SWAP1 PUSH2 0x16A6 JUMP JUMPDEST PUSH2 0x6DF JUMP JUMPDEST PUSH1 0x40 MLOAD PUSH2 0x33C SWAP2 SWAP1 PUSH2 0x1701 JUMP JUMPDEST PUSH1 0x40 MLOAD DUP1 SWAP2 SUB SWAP1 RETURN JUMPDEST PUSH2 0x35F PUSH1 0x4 DUP1 CALLDATASIZE SUB DUP2 ADD SWAP1 PUSH2 0x35A SWAP2 SWAP1 PUSH2 0x18B3 JUMP JUMPDEST PUSH2 0x702 JUMP JUMPDEST STOP JUMPDEST PUSH2 0x37B PUSH1 0x4 DUP1 CALLDATASIZE SUB DUP2 ADD SWAP1 PUSH2 0x376 SWAP2 SWAP1 PUSH2 0x1955 JUMP JUMPDEST PUSH2 0x844 JUMP JUMPDEST PUSH1 0x40 MLOAD PUSH2 0x388 SWAP2 SWAP1 PUSH2 0x172B JUMP JUMPDEST PUSH1 0x40 MLOAD DUP1 SWAP2 SUB SWAP1 RETURN JUMPDEST PUSH2 0x3AB PUSH1 0x4 DUP1 CALLDATASIZE SUB DUP2 ADD SWAP1 PUSH2 0x3A6 SWAP2 SWAP1 PUSH2 0x1804 JUMP JUMPDEST PUSH2 0x8CB JUMP JUMPDEST STOP JUMPDEST PUSH1 0x60 PUSH1 0x3 DUP1 SLOAD PUSH2 0x3BC SWAP1 PUSH2 0x19C4 JUMP JUMPDEST DUP1 PUSH1 0x1F ADD PUSH1 0x20 DUP1 SWAP2 DIV MUL PUSH1 0x20 ADD PUSH1 0x40 MLOAD SWAP1 DUP2 ADD PUSH1 0x40 MSTORE DUP1 SWAP3 SWAP2 SWAP1 DUP2 DUP2 MSTORE PUSH1 0x20 ADD DUP3 DUP1 SLOAD PUSH2 0x3E8 SWAP1 PUSH2 0x19C4 JUMP JUMPDEST DUP1 ISZERO PUSH2 0x435 JUMPI DUP1 PUSH1 0x1F LT PUSH2 0x40A JUMPI PUSH2 0x100 DUP1 DUP4 SLOAD DIV MUL DUP4 MSTORE SWAP2 PUSH1 0x20 ADD SWAP2 PUSH2 0x435 JUMP JUMPDEST DUP3 ADD SWAP2 SWAP1 PUSH1 0x0 MSTORE PUSH1 0x20 PUSH1 0x0 KECCAK256 SWAP1 JUMPDEST DUP2 SLOAD DUP2 MSTORE SWAP1 PUSH1 0x1 ADD SWAP1 PUSH1 0x20 ADD DUP1 DUP4 GT PUSH2 0x418 JUMPI DUP3 SWAP1 SUB PUSH1 0x1F AND DUP3 ADD SWAP2 JUMPDEST POP POP POP POP POP SWAP1 POP SWAP1 JUMP JUMPDEST PUSH1 0x0 DUP1 PUSH2 0x44A PUSH2 0x94E JUMP JUMPDEST SWAP1 POP PUSH2 0x457 DUP2 DUP6 DUP6 PUSH2 0x956 JUMP JUMPDEST PUSH1 0x1 SWAP2 POP POP SWAP3 SWAP2 POP POP JUMP JUMPDEST PUSH1 0x0 PUSH1 0x2 SLOAD SWAP1 POP SWAP1 JUMP JUMPDEST PUSH1 0x0 DUP1 PUSH2 0x477 PUSH2 0x94E JUMP JUMPDEST SWAP1 POP PUSH2 0x484 DUP6 DUP3 DUP6 PUSH2 0xB1F JUMP JUMPDEST PUSH2 0x48F DUP6 DUP6 DUP6 PUSH2 0xBAB JUMP JUMPDEST PUSH1 0x1 SWAP2 POP POP SWAP4 SWAP3 POP POP POP JUMP JUMPDEST PUSH1 0x0 PUSH1 0x12 SWAP1 POP SWAP1 JUMP JUMPDEST PUSH1 0x0 PUSH2 0x4AE PUSH2 0xE21 JUMP JUMPDEST SWAP1 POP SWAP1 JUMP JUMPDEST PUSH1 0x0 DUP1 PUSH2 0x4BE PUSH2 0x94E JUMP JUMPDEST SWAP1 POP PUSH2 0x4DF DUP2 DUP6 DUP6 PUSH2 0x4D0 DUP6 DUP10 PUSH2 0x844 JUMP JUMPDEST PUSH2 0x4DA SWAP2 SWAP1 PUSH2 0x1A24 JUMP JUMPDEST PUSH2 0x956 JUMP JUMPDEST PUSH1 0x1 SWAP2 POP POP SWAP3 SWAP2 POP POP JUMP JUMPDEST PUSH2 0x4F2 PUSH2 0xF3B JUMP JUMPDEST PUSH2 0x4FC DUP3 DUP3 PUSH2 0xFB9 JUMP JUMPDEST POP POP JUMP JUMPDEST PUSH1 0x0 DUP1 PUSH1 0x0 DUP4 PUSH20 0xFFFFFFFFFFFFFFFFFFFFFFFFFFFFFFFFFFFFFFFF AND PUSH20 0xFFFFFFFFFFFFFFFFFFFFFFFFFFFFFFFFFFFFFFFF AND DUP2 MSTORE PUSH1 0x20 ADD SWAP1 DUP2 MSTORE PUSH1 0x20 ADD PUSH1 0x0 KECCAK256 SLOAD SWAP1 POP SWAP2 SWAP1 POP JUMP JUMPDEST PUSH2 0x550 PUSH2 0xF3B JUMP JUMPDEST PUSH2 0x55A PUSH1 0x0 PUSH2 0x110F JUMP JUMPDEST JUMP JUMPDEST PUSH1 0x0 PUSH2 0x5A5 PUSH1 0x6 PUSH1 0x0 DUP5 PUSH20 0xFFFFFFFFFFFFFFFFFFFFFFFFFFFFFFFFFFFFFFFF AND PUSH20 0xFFFFFFFFFFFFFFFFFFFFFFFFFFFFFFFFFFFFFFFF AND DUP2 MSTORE PUSH1 0x20 ADD SWAP1 DUP2 MSTORE PUSH1 0x20 ADD PUSH1 0x0 KECCAK256 PUSH2 0x11D5 JUMP JUMPDEST SWAP1 POP SWAP2 SWAP1 POP JUMP JUMPDEST PUSH1 0x0 PUSH1 0x5 PUSH1 0x0 SWAP1 SLOAD SWAP1 PUSH2 0x100 EXP SWAP1 DIV PUSH20 0xFFFFFFFFFFFFFFFFFFFFFFFFFFFFFFFFFFFFFFFF AND SWAP1 POP SWAP1 JUMP JUMPDEST PUSH1 0x60 PUSH1 0x4 DUP1 SLOAD PUSH2 0x5E5 SWAP1 PUSH2 0x19C4 JUMP JUMPDEST DUP1 PUSH1 0x1F ADD PUSH1 0x20 DUP1 SWAP2 DIV MUL PUSH1 0x20 ADD PUSH1 0x40 MLOAD SWAP1 DUP2 ADD PUSH1 0x40 MSTORE DUP1 SWAP3 SWAP2 SWAP1 DUP2 DUP2 MSTORE PUSH1 0x20 ADD DUP3 DUP1 SLOAD PUSH2 0x611 SWAP1 PUSH2 0x19C4 JUMP JUMPDEST DUP1 ISZERO PUSH2 0x65E JUMPI DUP1 PUSH1 0x1F LT PUSH2 0x633 JUMPI PUSH2 0x100 DUP1 DUP4 SLOAD DIV MUL DUP4 MSTORE SWAP2 PUSH1 0x20 ADD SWAP2 PUSH2 0x65E JUMP JUMPDEST DUP3 ADD SWAP2 SWAP1 PUSH1 0x0 MSTORE PUSH1 0x20 PUSH1 0x0 KECCAK256 SWAP1 JUMPDEST DUP2 SLOAD DUP2 MSTORE SWAP1 PUSH1 0x1 ADD SWAP1 PUSH1 0x20 ADD DUP1 DUP4 GT PUSH2 0x641 JUMPI DUP3 SWAP1 SUB PUSH1 0x1F AND DUP3 ADD SWAP2 JUMPDEST POP POP POP POP POP SWAP1 POP SWAP1 JUMP JUMPDEST PUSH1 0x0 DUP1 PUSH2 0x673 PUSH2 0x94E JUMP JUMPDEST SWAP1 POP PUSH1 0x0 PUSH2 0x681 DUP3 DUP7 PUSH2 0x844 JUMP JUMPDEST SWAP1 POP DUP4 DUP2 LT ISZERO PUSH2 0x6C6 JUMPI PUSH1 0x40 MLOAD PUSH32 0x8C379A000000000000000000000000000000000000000000000000000000000 DUP2 MSTORE PUSH1 0x4 ADD PUSH2 0x6BD SWAP1 PUSH2 0x1ACA JUMP JUMPDEST PUSH1 0x40 MLOAD DUP1 SWAP2 SUB SWAP1 REVERT JUMPDEST PUSH2 0x6D3 DUP3 DUP7 DUP7 DUP5 SUB PUSH2 0x956 JUMP JUMPDEST PUSH1 0x1 SWAP3 POP POP POP SWAP3 SWAP2 POP POP JUMP JUMPDEST PUSH1 0x0 DUP1 PUSH2 0x6EA PUSH2 0x94E JUMP JUMPDEST SWAP1 POP PUSH2 0x6F7 DUP2 DUP6 DUP6 PUSH2 0xBAB JUMP JUMPDEST PUSH1 0x1 SWAP2 POP POP SWAP3 SWAP2 POP POP JUMP JUMPDEST DUP4 TIMESTAMP GT ISZERO PUSH2 0x745 JUMPI PUSH1 0x40 MLOAD PUSH32 0x8C379A000000000000000000000000000000000000000000000000000000000 DUP2 MSTORE PUSH1 0x4 ADD PUSH2 0x73C SWAP1 PUSH2 0x1B36 JUMP JUMPDEST PUSH1 0x40 MLOAD DUP1 SWAP2 SUB SWAP1 REVERT JUMPDEST PUSH1 0x0 PUSH32 0x6E71EDAE12B1B97F4D1F60370FEF10105FA2FAAE0126114A169C64845D6126C9 DUP9 DUP9 DUP9 PUSH2 0x774 DUP13 PUSH2 0x11E3 JUMP JUMPDEST DUP10 PUSH1 0x40 MLOAD PUSH1 0x20 ADD PUSH2 0x78A SWAP7 SWAP6 SWAP5 SWAP4 SWAP3 SWAP2 SWAP1 PUSH2 0x1B56 JUMP JUMPDEST PUSH1 0x40 MLOAD PUSH1 0x20 DUP2 DUP4 SUB SUB DUP2 MSTORE SWAP1 PUSH1 0x40 MSTORE DUP1 MLOAD SWAP1 PUSH1 0x20 ADD KECCAK256 SWAP1 POP PUSH1 0x0 PUSH2 0x7AD DUP3 PUSH2 0x1241 JUMP JUMPDEST SWAP1 POP PUSH1 0x0 PUSH2 0x7BD DUP3 DUP8 DUP8 DUP8 PUSH2 0x125B JUMP JUMPDEST SWAP1 POP DUP10 PUSH20 0xFFFFFFFFFFFFFFFFFFFFFFFFFFFFFFFFFFFFFFFF AND DUP2 PUSH20 0xFFFFFFFFFFFFFFFFFFFFFFFFFFFFFFFFFFFFFFFF AND EQ PUSH2 0x82D JUMPI PUSH1 0x40 MLOAD PUSH32 0x8C379A000000000000000000000000000000000000000000000000000000000 DUP2 MSTORE PUSH1 0x4 ADD PUSH2 0x824 SWAP1 PUSH2 0x1C03 JUMP JUMPDEST PUSH1 0x40 MLOAD DUP1 SWAP2 SUB SWAP1 REVERT JUMPDEST PUSH2 0x838 DUP11 DUP11 DUP11 PUSH2 0x956 JUMP JUMPDEST POP POP POP POP POP POP POP POP POP POP JUMP JUMPDEST PUSH1 0x0 PUSH1 0x1 PUSH1 0x0 DUP5 PUSH20 0xFFFFFFFFFFFFFFFFFFFFFFFFFFFFFFFFFFFFFFFF AND PUSH20 0xFFFFFFFFFFFFFFFFFFFFFFFFFFFFFFFFFFFFFFFF AND DUP2 MSTORE PUSH1 0x20 ADD SWAP1 DUP2 MSTORE PUSH1 0x20 ADD PUSH1 0x0 KECCAK256 PUSH1 0x0 DUP4 PUSH20 0xFFFFFFFFFFFFFFFFFFFFFFFFFFFFFFFFFFFFFFFF AND PUSH20 0xFFFFFFFFFFFFFFFFFFFFFFFFFFFFFFFFFFFFFFFF AND DUP2 MSTORE PUSH1 0x20 ADD SWAP1 DUP2 MSTORE PUSH1 0x20 ADD PUSH1 0x0 KECCAK256 SLOAD SWAP1 POP SWAP3 SWAP2 POP POP JUMP JUMPDEST PUSH2 0x8D3 PUSH2 0xF3B JUMP JUMPDEST PUSH1 0x0 PUSH20 0xFFFFFFFFFFFFFFFFFFFFFFFFFFFFFFFFFFFFFFFF AND DUP2 PUSH20 0xFFFFFFFFFFFFFFFFFFFFFFFFFFFFFFFFFFFFFFFF AND SUB PUSH2 0x942 JUMPI PUSH1 0x40 MLOAD PUSH32 0x8C379A000000000000000000000000000000000000000000000000000000000 DUP2 MSTORE PUSH1 0x4 ADD PUSH2 0x939 SWAP1 PUSH2 0x1C95 JUMP JUMPDEST PUSH1 0x40 MLOAD DUP1 SWAP2 SUB SWAP1 REVERT JUMPDEST PUSH2 0x94B DUP2 PUSH2 0x110F JUMP JUMPDEST POP JUMP JUMPDEST PUSH1 0x0 CALLER SWAP1 POP SWAP1 JUMP JUMPDEST PUSH1 0x0 PUSH20 0xFFFFFFFFFFFFFFFFFFFFFFFFFFFFFFFFFFFFFFFF AND DUP4 PUSH20 0xFFFFFFFFFFFFFFFFFFFFFFFFFFFFFFFFFFFFFFFF AND SUB PUSH2 0x9C5 JUMPI PUSH1 0x40 MLOAD PUSH32 0x8C379A000000000000000000000000000000000000000000000000000000000 DUP2 MSTORE PUSH1 0x4 ADD PUSH2 0x9BC SWAP1 PUSH2 0x1D27 JUMP JUMPDEST PUSH1 0x40 MLOAD DUP1 SWAP2 SUB SWAP1 REVERT JUMPDEST PUSH1 0x0 PUSH20 0xFFFFFFFFFFFFFFFFFFFFFFFFFFFFFFFFFFFFFFFF AND DUP3 PUSH20 0xFFFFFFFFFFFFFFFFFFFFFFFFFFFFFFFFFFFFFFFF AND SUB PUSH2 0xA34 JUMPI PUSH1 0x40 MLOAD PUSH32 0x8C379A000000000000000000000000000000000000000000000000000000000 DUP2 MSTORE PUSH1 0x4 ADD PUSH2 0xA2B SWAP1 PUSH2 0x1DB9 JUMP JUMPDEST PUSH1 0x40 MLOAD DUP1 SWAP2 SUB SWAP1 REVERT JUMPDEST DUP1 PUSH1 0x1 PUSH1 0x0 DUP6 PUSH20 0xFFFFFFFFFFFFFFFFFFFFFFFFFFFFFFFFFFFFFFFF AND PUSH20 0xFFFFFFFFFFFFFFFFFFFFFFFFFFFFFFFFFFFFFFFF AND DUP2 MSTORE PUSH1 0x20 ADD SWAP1 DUP2 MSTORE PUSH1 0x20 ADD PUSH1 0x0 KECCAK256 PUSH1 0x0 DUP5 PUSH20 0xFFFFFFFFFFFFFFFFFFFFFFFFFFFFFFFFFFFFFFFF AND PUSH20 0xFFFFFFFFFFFFFFFFFFFFFFFFFFFFFFFFFFFFFFFF AND DUP2 MSTORE PUSH1 0x20 ADD SWAP1 DUP2 MSTORE PUSH1 0x20 ADD PUSH1 0x0 KECCAK256 DUP2 SWAP1 SSTORE POP DUP2 PUSH20 0xFFFFFFFFFFFFFFFFFFFFFFFFFFFFFFFFFFFFFFFF AND DUP4 PUSH20 0xFFFFFFFFFFFFFFFFFFFFFFFFFFFFFFFFFFFFFFFF AND PUSH32 0x8C5BE1E5EBEC7D5BD14F71427D1E84F3DD0314C0F7B2291E5B200AC8C7C3B925 DUP4 PUSH1 0x40 MLOAD PUSH2 0xB12 SWAP2 SWAP1 PUSH2 0x172B JUMP JUMPDEST PUSH1 0x40 MLOAD DUP1 SWAP2 SUB SWAP1 LOG3 POP POP POP JUMP JUMPDEST PUSH1 0x0 PUSH2 0xB2B DUP5 DUP5 PUSH2 0x844 JUMP JUMPDEST SWAP1 POP PUSH32 0xFFFFFFFFFFFFFFFFFFFFFFFFFFFFFFFFFFFFFFFFFFFFFFFFFFFFFFFFFFFFFFFF DUP2 EQ PUSH2 0xBA5 JUMPI DUP2 DUP2 LT ISZERO PUSH2 0xB97 JUMPI PUSH1 0x40 MLOAD PUSH32 0x8C379A000000000000000000000000000000000000000000000000000000000 DUP2 MSTORE PUSH1 0x4 ADD PUSH2 0xB8E SWAP1 PUSH2 0x1E25 JUMP JUMPDEST PUSH1 0x40 MLOAD DUP1 SWAP2 SUB SWAP1 REVERT JUMPDEST PUSH2 0xBA4 DUP5 DUP5 DUP5 DUP5 SUB PUSH2 0x956 JUMP JUMPDEST JUMPDEST POP POP POP POP JUMP JUMPDEST PUSH1 0x0 PUSH20 0xFFFFFFFFFFFFFFFFFFFFFFFFFFFFFFFFFFFFFFFF AND DUP4 PUSH20 0xFFFFFFFFFFFFFFFFFFFFFFFFFFFFFFFFFFFFFFFF AND SUB PUSH2 0xC1A JUMPI PUSH1 0x40 MLOAD PUSH32 0x8C379A000000000000000000000000000000000000000000000000000000000 DUP2 MSTORE PUSH1 0x4 ADD PUSH2 0xC11 SWAP1 PUSH2 0x1EB7 JUMP JUMPDEST PUSH1 0x40 MLOAD DUP1 SWAP2 SUB SWAP1 REVERT JUMPDEST PUSH1 0x0 PUSH20 0xFFFFFFFFFFFFFFFFFFFFFFFFFFFFFFFFFFFFFFFF AND DUP3 PUSH20 0xFFFFFFFFFFFFFFFFFFFFFFFFFFFFFFFFFFFFFFFF AND SUB PUSH2 0xC89 JUMPI PUSH1 0x40 MLOAD PUSH32 0x8C379A000000000000000000000000000000000000000000000000000000000 DUP2 MSTORE PUSH1 0x4 ADD PUSH2 0xC80 SWAP1 PUSH2 0x1F49 JUMP JUMPDEST PUSH1 0x40 MLOAD DUP1 SWAP2 SUB SWAP1 REVERT JUMPDEST PUSH2 0xC94 DUP4 DUP4 DUP4 PUSH2 0x1286 JUMP JUMPDEST PUSH1 0x0 DUP1 PUSH1 0x0 DUP6 PUSH20 0xFFFFFFFFFFFFFFFFFFFFFFFFFFFFFFFFFFFFFFFF AND PUSH20 0xFFFFFFFFFFFFFFFFFFFFFFFFFFFFFFFFFFFFFFFF AND DUP2 MSTORE PUSH1 0x20 ADD SWAP1 DUP2 MSTORE PUSH1 0x20 ADD PUSH1 0x0 KECCAK256 SLOAD SWAP1 POP DUP2 DUP2 LT ISZERO PUSH2 0xD1A JUMPI PUSH1 0x40 MLOAD PUSH32 0x8C379A000000000000000000000000000000000000000000000000000000000 DUP2 MSTORE PUSH1 0x4 ADD PUSH2 0xD11 SWAP1 PUSH2 0x1FDB JUMP JUMPDEST PUSH1 0x40 MLOAD DUP1 SWAP2 SUB SWAP1 REVERT JUMPDEST DUP2 DUP2 SUB PUSH1 0x0 DUP1 DUP7 PUSH20 0xFFFFFFFFFFFFFFFFFFFFFFFFFFFFFFFFFFFFFFFF AND PUSH20 0xFFFFFFFFFFFFFFFFFFFFFFFFFFFFFFFFFFFFFFFF AND DUP2 MSTORE PUSH1 0x20 ADD SWAP1 DUP2 MSTORE PUSH1 0x20 ADD PUSH1 0x0 KECCAK256 DUP2 SWAP1 SSTORE POP DUP2 PUSH1 0x0 DUP1 DUP6 PUSH20 0xFFFFFFFFFFFFFFFFFFFFFFFFFFFFFFFFFFFFFFFF AND PUSH20 0xFFFFFFFFFFFFFFFFFFFFFFFFFFFFFFFFFFFFFFFF AND DUP2 MSTORE PUSH1 0x20 ADD SWAP1 DUP2 MSTORE PUSH1 0x20 ADD PUSH1 0x0 KECCAK256 PUSH1 0x0 DUP3 DUP3 SLOAD ADD SWAP3 POP POP DUP2 SWAP1 SSTORE POP DUP3 PUSH20 0xFFFFFFFFFFFFFFFFFFFFFFFFFFFFFFFFFFFFFFFF AND DUP5 PUSH20 0xFFFFFFFFFFFFFFFFFFFFFFFFFFFFFFFFFFFFFFFF AND PUSH32 0xDDF252AD1BE2C89B69C2B068FC378DAA952BA7F163C4A11628F55A4DF523B3EF DUP5 PUSH1 0x40 MLOAD PUSH2 0xE08 SWAP2 SWAP1 PUSH2 0x172B JUMP JUMPDEST PUSH1 0x40 MLOAD DUP1 SWAP2 SUB SWAP1 LOG3 PUSH2 0xE1B DUP5 DUP5 DUP5 PUSH2 0x128B JUMP JUMPDEST POP POP POP POP JUMP JUMPDEST PUSH1 0x0 PUSH32 0x0 PUSH20 0xFFFFFFFFFFFFFFFFFFFFFFFFFFFFFFFFFFFFFFFF AND ADDRESS PUSH20 0xFFFFFFFFFFFFFFFFFFFFFFFFFFFFFFFFFFFFFFFF AND EQ DUP1 ISZERO PUSH2 0xE9D JUMPI POP PUSH32 0x0 CHAINID EQ JUMPDEST ISZERO PUSH2 0xECA JUMPI PUSH32 0x0 SWAP1 POP PUSH2 0xF38 JUMP JUMPDEST PUSH2 0xF35 PUSH32 0x0 PUSH32 0x0 PUSH32 0x0 PUSH2 0x1290 JUMP JUMPDEST SWAP1 POP JUMPDEST SWAP1 JUMP JUMPDEST PUSH2 0xF43 PUSH2 0x94E JUMP JUMPDEST PUSH20 0xFFFFFFFFFFFFFFFFFFFFFFFFFFFFFFFFFFFFFFFF AND PUSH2 0xF61 PUSH2 0x5AC JUMP JUMPDEST PUSH20 0xFFFFFFFFFFFFFFFFFFFFFFFFFFFFFFFFFFFFFFFF AND EQ PUSH2 0xFB7 JUMPI PUSH1 0x40 MLOAD PUSH32 0x8C379A000000000000000000000000000000000000000000000000000000000 DUP2 MSTORE PUSH1 0x4 ADD PUSH2 0xFAE SWAP1 PUSH2 0x2047 JUMP JUMPDEST PUSH1 0x40 MLOAD DUP1 SWAP2 SUB SWAP1 REVERT JUMPDEST JUMP JUMPDEST PUSH1 0x0 PUSH20 0xFFFFFFFFFFFFFFFFFFFFFFFFFFFFFFFFFFFFFFFF AND DUP3 PUSH20 0xFFFFFFFFFFFFFFFFFFFFFFFFFFFFFFFFFFFFFFFF AND SUB PUSH2 0x1028 JUMPI PUSH1 0x40 MLOAD PUSH32 0x8C379A000000000000000000000000000000000000000000000000000000000 DUP2 MSTORE PUSH1 0x4 ADD PUSH2 0x101F SWAP1 PUSH2 0x20B3 JUMP JUMPDEST PUSH1 0x40 MLOAD DUP1 SWAP2 SUB SWAP1 REVERT JUMPDEST PUSH2 0x1034 PUSH1 0x0 DUP4 DUP4 PUSH2 0x1286 JUMP JUMPDEST DUP1 PUSH1 0x2 PUSH1 0x0 DUP3 DUP3 SLOAD PUSH2 0x1046 SWAP2 SWAP1 PUSH2 0x1A24 JUMP JUMPDEST SWAP3 POP POP DUP2 SWAP1 SSTORE POP DUP1 PUSH1 0x0 DUP1 DUP5 PUSH20 0xFFFFFFFFFFFFFFFFFFFFFFFFFFFFFFFFFFFFFFFF AND PUSH20 0xFFFFFFFFFFFFFFFFFFFFFFFFFFFFFFFFFFFFFFFF AND DUP2 MSTORE PUSH1 0x20 ADD SWAP1 DUP2 MSTORE PUSH1 0x20 ADD PUSH1 0x0 KECCAK256 PUSH1 0x0 DUP3 DUP3 SLOAD ADD SWAP3 POP POP DUP2 SWAP1 SSTORE POP DUP2 PUSH20 0xFFFFFFFFFFFFFFFFFFFFFFFFFFFFFFFFFFFFFFFF AND PUSH1 0x0 PUSH20 0xFFFFFFFFFFFFFFFFFFFFFFFFFFFFFFFFFFFFFFFF AND PUSH32 0xDDF252AD1BE2C89B69C2B068FC378DAA952BA7F163C4A11628F55A4DF523B3EF DUP4 PUSH1 0x40 MLOAD PUSH2 0x10F7 SWAP2 SWAP1 PUSH2 0x172B JUMP JUMPDEST PUSH1 0x40 MLOAD DUP1 SWAP2 SUB SWAP1 LOG3 PUSH2 0x110B PUSH1 0x0 DUP4 DUP4 PUSH2 0x128B JUMP JUMPDEST POP POP JUMP JUMPDEST PUSH1 0x0 PUSH1 0x5 PUSH1 0x0 SWAP1 SLOAD SWAP1 PUSH2 0x100 EXP SWAP1 DIV PUSH20 0xFFFFFFFFFFFFFFFFFFFFFFFFFFFFFFFFFFFFFFFF AND SWAP1 POP DUP2 PUSH1 0x5 PUSH1 0x0 PUSH2 0x100 EXP DUP2 SLOAD DUP2 PUSH20 0xFFFFFFFFFFFFFFFFFFFFFFFFFFFFFFFFFFFFFFFF MUL NOT AND SWAP1 DUP4 PUSH20 0xFFFFFFFFFFFFFFFFFFFFFFFFFFFFFFFFFFFFFFFF AND MUL OR SWAP1 SSTORE POP DUP2 PUSH20 0xFFFFFFFFFFFFFFFFFFFFFFFFFFFFFFFFFFFFFFFF AND DUP2 PUSH20 0xFFFFFFFFFFFFFFFFFFFFFFFFFFFFFFFFFFFFFFFF AND PUSH32 0x8BE0079C531659141344CD1FD0A4F28419497F9722A3DAAFE3B4186F6B6457E0 PUSH1 0x40 MLOAD PUSH1 0x40 MLOAD DUP1 SWAP2 SUB SWAP1 LOG3 POP POP JUMP JUMPDEST PUSH1 0x0 DUP2 PUSH1 0x0 ADD SLOAD SWAP1 POP SWAP2 SWAP1 POP JUMP JUMPDEST PUSH1 0x0 DUP1 PUSH1 0x6 PUSH1 0x0 DUP5 PUSH20 0xFFFFFFFFFFFFFFFFFFFFFFFFFFFFFFFFFFFFFFFF AND PUSH20 0xFFFFFFFFFFFFFFFFFFFFFFFFFFFFFFFFFFFFFFFF AND DUP2 MSTORE PUSH1 0x20 ADD SWAP1 DUP2 MSTORE PUSH1 0x20 ADD PUSH1 0x0 KECCAK256 SWAP1 POP PUSH2 0x1230 DUP2 PUSH2 0x11D5 JUMP JUMPDEST SWAP2 POP PUSH2 0x123B DUP2 PUSH2 0x12CA JUMP JUMPDEST POP SWAP2 SWAP1 POP JUMP JUMPDEST PUSH1 0x0 PUSH2 0x1254 PUSH2 0x124E PUSH2 0xE21 JUMP JUMPDEST DUP4 PUSH2 0x12E0 JUMP JUMPDEST SWAP1 POP SWAP2 SWAP1 POP JUMP JUMPDEST PUSH1 0x0 DUP1 PUSH1 0x0 PUSH2 0x126C DUP8 DUP8 DUP8 DUP8 PUSH2 0x1313 JUMP JUMPDEST SWAP2 POP SWAP2 POP PUSH2 0x1279 DUP2 PUSH2 0x13F5 JUMP JUMPDEST DUP2 SWAP3 POP POP POP SWAP5 SWAP4 POP POP POP POP JUMP JUMPDEST POP POP POP JUMP JUMPDEST POP POP POP JUMP JUMPDEST PUSH1 0x0 DUP4 DUP4 DUP4 CHAINID ADDRESS PUSH1 0x40 MLOAD PUSH1 0x20 ADD PUSH2 0x12AB SWAP6 SWAP5 SWAP4 SWAP3 SWAP2 SWAP1 PUSH2 0x20D3 JUMP JUMPDEST PUSH1 0x40 MLOAD PUSH1 0x20 DUP2 DUP4 SUB SUB DUP2 MSTORE SWAP1 PUSH1 0x40 MSTORE DUP1 MLOAD SWAP1 PUSH1 0x20 ADD KECCAK256 SWAP1 POP SWAP4 SWAP3 POP POP POP JUMP JUMPDEST PUSH1 0x1 DUP2 PUSH1 0x0 ADD PUSH1 0x0 DUP3 DUP3 SLOAD ADD SWAP3 POP POP DUP2 SWAP1 SSTORE POP POP JUMP JUMPDEST PUSH1 0x0 DUP3 DUP3 PUSH1 0x40 MLOAD PUSH1 0x20 ADD PUSH2 0x12F5 SWAP3 SWAP2 SWAP1 PUSH2 0x219E JUMP JUMPDEST PUSH1 0x40 MLOAD PUSH1 0x20 DUP2 DUP4 SUB SUB DUP2 MSTORE SWAP1 PUSH1 0x40 MSTORE DUP1 MLOAD SWAP1 PUSH1 0x20 ADD KECCAK256 SWAP1 POP SWAP3 SWAP2 POP POP JUMP JUMPDEST PUSH1 0x0 DUP1 PUSH32 0x7FFFFFFFFFFFFFFFFFFFFFFFFFFFFFFF5D576E7357A4501DDFE92F46681B20A0 DUP4 PUSH1 0x0 SHR GT ISZERO PUSH2 0x134E JUMPI PUSH1 0x0 PUSH1 0x3 SWAP2 POP SWAP2 POP PUSH2 0x13EC JUMP JUMPDEST PUSH1 0x0 PUSH1 0x1 DUP8 DUP8 DUP8 DUP8 PUSH1 0x40 MLOAD PUSH1 0x0 DUP2 MSTORE PUSH1 0x20 ADD PUSH1 0x40 MSTORE PUSH1 0x40 MLOAD PUSH2 0x1373 SWAP5 SWAP4 SWAP3 SWAP2 SWAP1 PUSH2 0x21D5 JUMP JUMPDEST PUSH1 0x20 PUSH1 0x40 MLOAD PUSH1 0x20 DUP2 SUB SWAP1 DUP1 DUP5 SUB SWAP1 DUP6 GAS STATICCALL ISZERO DUP1 ISZERO PUSH2 0x1395 JUMPI RETURNDATASIZE PUSH1 0x0 DUP1 RETURNDATACOPY RETURNDATASIZE PUSH1 0x0 REVERT JUMPDEST POP POP POP PUSH1 0x20 PUSH1 0x40 MLOAD SUB MLOAD SWAP1 POP PUSH1 0x0 PUSH20 0xFFFFFFFFFFFFFFFFFFFFFFFFFFFFFFFFFFFFFFFF AND DUP2 PUSH20 0xFFFFFFFFFFFFFFFFFFFFFFFFFFFFFFFFFFFFFFFF AND SUB PUSH2 0x13E3 JUMPI PUSH1 0x0 PUSH1 0x1 SWAP3 POP SWAP3 POP POP PUSH2 0x13EC JUMP JUMPDEST DUP1 PUSH1 0x0 SWAP3 POP SWAP3 POP POP JUMPDEST SWAP5 POP SWAP5 SWAP3 POP POP POP JUMP JUMPDEST PUSH1 0x0 PUSH1 0x4 DUP2 GT ISZERO PUSH2 0x1409 JUMPI PUSH2 0x1408 PUSH2 0x221A JUMP JUMPDEST JUMPDEST DUP2 PUSH1 0x4 DUP2 GT ISZERO PUSH2 0x141C JUMPI PUSH2 0x141B PUSH2 0x221A JUMP JUMPDEST JUMPDEST SUB ISZERO PUSH2 0x1558 JUMPI PUSH1 0x1 PUSH1 0x4 DUP2 GT ISZERO PUSH2 0x1436 JUMPI PUSH2 0x1435 PUSH2 0x221A JUMP JUMPDEST JUMPDEST DUP2 PUSH1 0x4 DUP2 GT ISZERO PUSH2 0x1449 JUMPI PUSH2 0x1448 PUSH2 0x221A JUMP JUMPDEST JUMPDEST SUB PUSH2 0x1489 JUMPI PUSH1 0x40 MLOAD PUSH32 0x8C379A000000000000000000000000000000000000000000000000000000000 DUP2 MSTORE PUSH1 0x4 ADD PUSH2 0x1480 SWAP1 PUSH2 0x2295 JUMP JUMPDEST PUSH1 0x40 MLOAD DUP1 SWAP2 SUB SWAP1 REVERT JUMPDEST PUSH1 0x2 PUSH1 0x4 DUP2 GT ISZERO PUSH2 0x149D JUMPI PUSH2 0x149C PUSH2 0x221A JUMP JUMPDEST JUMPDEST DUP2 PUSH1 0x4 DUP2 GT ISZERO PUSH2 0x14B0 JUMPI PUSH2 0x14AF PUSH2 0x221A JUMP JUMPDEST JUMPDEST SUB PUSH2 0x14F0 JUMPI PUSH1 0x40 MLOAD PUSH32 0x8C379A000000000000000000000000000000000000000000000000000000000 DUP2 MSTORE PUSH1 0x4 ADD PUSH2 0x14E7 SWAP1 PUSH2 0x2301 JUMP JUMPDEST PUSH1 0x40 MLOAD DUP1 SWAP2 SUB SWAP1 REVERT JUMPDEST PUSH1 0x3 PUSH1 0x4 DUP2 GT ISZERO PUSH2 0x1504 JUMPI PUSH2 0x1503 PUSH2 0x221A JUMP JUMPDEST JUMPDEST DUP2 PUSH1 0x4 DUP2 GT ISZERO PUSH2 0x1517 JUMPI PUSH2 0x1516 PUSH2 0x221A JUMP JUMPDEST JUMPDEST SUB PUSH2 0x1557 JUMPI PUSH1 0x40 MLOAD PUSH32 0x8C379A000000000000000000000000000000000000000000000000000000000 DUP2 MSTORE PUSH1 0x4 ADD PUSH2 0x154E SWAP1 PUSH2 0x2393 JUMP JUMPDEST PUSH1 0x40 MLOAD DUP1 SWAP2 SUB SWAP1 REVERT JUMPDEST JUMPDEST POP JUMP JUMPDEST PUSH1 0x0 DUP2 MLOAD SWAP1 POP SWAP2 SWAP1 POP JUMP JUMPDEST PUSH1 0x0 DUP3 DUP3 MSTORE PUSH1 0x20 DUP3 ADD SWAP1 POP SWAP3 SWAP2 POP POP JUMP JUMPDEST PUSH1 0x0 JUMPDEST DUP4 DUP2 LT ISZERO PUSH2 0x1595 JUMPI DUP1 DUP3 ADD MLOAD DUP2 DUP5 ADD MSTORE PUSH1 0x20 DUP2 ADD SWAP1 POP PUSH2 0x157A JUMP JUMPDEST PUSH1 0x0 DUP5 DUP5 ADD MSTORE POP POP POP POP JUMP JUMPDEST PUSH1 0x0 PUSH1 0x1F NOT PUSH1 0x1F DUP4 ADD AND SWAP1 POP SWAP2 SWAP1 POP JUMP JUMPDEST PUSH1 0x0 PUSH2 0x15BD DUP3 PUSH2 0x155B JUMP JUMPDEST PUSH2 0x15C7 DUP2 DUP6 PUSH2 0x1566 JUMP JUMPDEST SWAP4 POP PUSH2 0x15D7 DUP2 DUP6 PUSH1 0x20 DUP7 ADD PUSH2 0x1577 JUMP JUMPDEST PUSH2 0x15E0 DUP2 PUSH2 0x15A1 JUMP JUMPDEST DUP5 ADD SWAP2 POP POP SWAP3 SWAP2 POP POP JUMP JUMPDEST PUSH1 0x0 PUSH1 0x20 DUP3 ADD SWAP1 POP DUP2 DUP2 SUB PUSH1 0x0 DUP4 ADD MSTORE PUSH2 0x1605 DUP2 DUP5 PUSH2 0x15B2 JUMP JUMPDEST SWAP1 POP SWAP3 SWAP2 POP POP JUMP JUMPDEST PUSH1 0x0 DUP1 REVERT JUMPDEST PUSH1 0x0 PUSH20 0xFFFFFFFFFFFFFFFFFFFFFFFFFFFFFFFFFFFFFFFF DUP3 AND SWAP1 POP SWAP2 SWAP1 POP JUMP JUMPDEST PUSH1 0x0 PUSH2 0x163D DUP3 PUSH2 0x1612 JUMP JUMPDEST SWAP1 POP SWAP2 SWAP1 POP JUMP JUMPDEST PUSH2 0x164D DUP2 PUSH2 0x1632 JUMP JUMPDEST DUP2 EQ PUSH2 0x1658 JUMPI PUSH1 0x0 DUP1 REVERT JUMPDEST POP JUMP JUMPDEST PUSH1 0x0 DUP2 CALLDATALOAD SWAP1 POP PUSH2 0x166A DUP2 PUSH2 0x1644 JUMP JUMPDEST SWAP3 SWAP2 POP POP JUMP JUMPDEST PUSH1 0x0 DUP2 SWAP1 POP SWAP2 SWAP1 POP JUMP JUMPDEST PUSH2 0x1683 DUP2 PUSH2 0x1670 JUMP JUMPDEST DUP2 EQ PUSH2 0x168E JUMPI PUSH1 0x0 DUP1 REVERT JUMPDEST POP JUMP JUMPDEST PUSH1 0x0 DUP2 CALLDATALOAD SWAP1 POP PUSH2 0x16A0 DUP2 PUSH2 0x167A JUMP JUMPDEST SWAP3 SWAP2 POP POP JUMP JUMPDEST PUSH1 0x0 DUP1 PUSH1 0x40 DUP4 DUP6 SUB SLT ISZERO PUSH2 0x16BD JUMPI PUSH2 0x16BC PUSH2 0x160D JUMP JUMPDEST JUMPDEST PUSH1 0x0 PUSH2 0x16CB DUP6 DUP3 DUP7 ADD PUSH2 0x165B JUMP JUMPDEST SWAP3 POP POP PUSH1 0x20 PUSH2 0x16DC DUP6 DUP3 DUP7 ADD PUSH2 0x1691 JUMP JUMPDEST SWAP2 POP POP SWAP3 POP SWAP3 SWAP1 POP JUMP JUMPDEST PUSH1 0x0 DUP2 ISZERO ISZERO SWAP1 POP SWAP2 SWAP1 POP JUMP JUMPDEST PUSH2 0x16FB DUP2 PUSH2 0x16E6 JUMP JUMPDEST DUP3 MSTORE POP POP JUMP JUMPDEST PUSH1 0x0 PUSH1 0x20 DUP3 ADD SWAP1 POP PUSH2 0x1716 PUSH1 0x0 DUP4 ADD DUP5 PUSH2 0x16F2 JUMP JUMPDEST SWAP3 SWAP2 POP POP JUMP JUMPDEST PUSH2 0x1725 DUP2 PUSH2 0x1670 JUMP JUMPDEST DUP3 MSTORE POP POP JUMP JUMPDEST PUSH1 0x0 PUSH1 0x20 DUP3 ADD SWAP1 POP PUSH2 0x1740 PUSH1 0x0 DUP4 ADD DUP5 PUSH2 0x171C JUMP JUMPDEST SWAP3 SWAP2 POP POP JUMP JUMPDEST PUSH1 0x0 DUP1 PUSH1 0x0 PUSH1 0x60 DUP5 DUP7 SUB SLT ISZERO PUSH2 0x175F JUMPI PUSH2 0x175E PUSH2 0x160D JUMP JUMPDEST JUMPDEST PUSH1 0x0 PUSH2 0x176D DUP7 DUP3 DUP8 ADD PUSH2 0x165B JUMP JUMPDEST SWAP4 POP POP PUSH1 0x20 PUSH2 0x177E DUP7 DUP3 DUP8 ADD PUSH2 0x165B JUMP JUMPDEST SWAP3 POP POP PUSH1 0x40 PUSH2 0x178F DUP7 DUP3 DUP8 ADD PUSH2 0x1691 JUMP JUMPDEST SWAP2 POP POP SWAP3 POP SWAP3 POP SWAP3 JUMP JUMPDEST PUSH1 0x0 PUSH1 0xFF DUP3 AND SWAP1 POP SWAP2 SWAP1 POP JUMP JUMPDEST PUSH2 0x17AF DUP2 PUSH2 0x1799 JUMP JUMPDEST DUP3 MSTORE POP POP JUMP JUMPDEST PUSH1 0x0 PUSH1 0x20 DUP3 ADD SWAP1 POP PUSH2 0x17CA PUSH1 0x0 DUP4 ADD DUP5 PUSH2 0x17A6 JUMP JUMPDEST SWAP3 SWAP2 POP POP JUMP JUMPDEST PUSH1 0x0 DUP2 SWAP1 POP SWAP2 SWAP1 POP JUMP JUMPDEST PUSH2 0x17E3 DUP2 PUSH2 0x17D0 JUMP JUMPDEST DUP3 MSTORE POP POP JUMP JUMPDEST PUSH1 0x0 PUSH1 0x20 DUP3 ADD SWAP1 POP PUSH2 0x17FE PUSH1 0x0 DUP4 ADD DUP5 PUSH2 0x17DA JUMP JUMPDEST SWAP3 SWAP2 POP POP JUMP JUMPDEST PUSH1 0x0 PUSH1 0x20 DUP3 DUP5 SUB SLT ISZERO PUSH2 0x181A JUMPI PUSH2 0x1819 PUSH2 0x160D JUMP JUMPDEST JUMPDEST PUSH1 0x0 PUSH2 0x1828 DUP5 DUP3 DUP6 ADD PUSH2 0x165B JUMP JUMPDEST SWAP2 POP POP SWAP3 SWAP2 POP POP JUMP JUMPDEST PUSH2 0x183A DUP2 PUSH2 0x1632 JUMP JUMPDEST DUP3 MSTORE POP POP JUMP JUMPDEST PUSH1 0x0 PUSH1 0x20 DUP3 ADD SWAP1 POP PUSH2 0x1855 PUSH1 0x0 DUP4 ADD DUP5 PUSH2 0x1831 JUMP JUMPDEST SWAP3 SWAP2 POP POP JUMP JUMPDEST PUSH2 0x1864 DUP2 PUSH2 0x1799 JUMP JUMPDEST DUP2 EQ PUSH2 0x186F JUMPI PUSH1 0x0 DUP1 REVERT JUMPDEST POP JUMP JUMPDEST PUSH1 0x0 DUP2 CALLDATALOAD SWAP1 POP PUSH2 0x1881 DUP2 PUSH2 0x185B JUMP JUMPDEST SWAP3 SWAP2 POP POP JUMP JUMPDEST PUSH2 0x1890 DUP2 PUSH2 0x17D0 JUMP JUMPDEST DUP2 EQ PUSH2 0x189B JUMPI PUSH1 0x0 DUP1 REVERT JUMPDEST POP JUMP JUMPDEST PUSH1 0x0 DUP2 CALLDATALOAD SWAP1 POP PUSH2 0x18AD DUP2 PUSH2 0x1887 JUMP JUMPDEST SWAP3 SWAP2 POP POP JUMP JUMPDEST PUSH1 0x0 DUP1 PUSH1 0x0 DUP1 PUSH1 0x0 DUP1 PUSH1 0x0 PUSH1 0xE0 DUP9 DUP11 SUB SLT ISZERO PUSH2 0x18D2 JUMPI PUSH2 0x18D1 PUSH2 0x160D JUMP JUMPDEST JUMPDEST PUSH1 0x0 PUSH2 0x18E0 DUP11 DUP3 DUP12 ADD PUSH2 0x165B JUMP JUMPDEST SWAP8 POP POP PUSH1 0x20 PUSH2 0x18F1 DUP11 DUP3 DUP12 ADD PUSH2 0x165B JUMP JUMPDEST SWAP7 POP POP PUSH1 0x40 PUSH2 0x1902 DUP11 DUP3 DUP12 ADD PUSH2 0x1691 JUMP JUMPDEST SWAP6 POP POP PUSH1 0x60 PUSH2 0x1913 DUP11 DUP3 DUP12 ADD PUSH2 0x1691 JUMP JUMPDEST SWAP5 POP POP PUSH1 0x80 PUSH2 0x1924 DUP11 DUP3 DUP12 ADD PUSH2 0x1872 JUMP JUMPDEST SWAP4 POP POP PUSH1 0xA0 PUSH2 0x1935 DUP11 DUP3 DUP12 ADD PUSH2 0x189E JUMP JUMPDEST SWAP3 POP POP PUSH1 0xC0 PUSH2 0x1946 DUP11 DUP3 DUP12 ADD PUSH2 0x189E JUMP JUMPDEST SWAP2 POP POP SWAP3 SWAP6 SWAP9 SWAP2 SWAP5 SWAP8 POP SWAP3 SWAP6 POP JUMP JUMPDEST PUSH1 0x0 DUP1 PUSH1 0x40 DUP4 DUP6 SUB SLT ISZERO PUSH2 0x196C JUMPI PUSH2 0x196B PUSH2 0x160D JUMP JUMPDEST JUMPDEST PUSH1 0x0 PUSH2 0x197A DUP6 DUP3 DUP7 ADD PUSH2 0x165B JUMP JUMPDEST SWAP3 POP POP PUSH1 0x20 PUSH2 0x198B DUP6 DUP3 DUP7 ADD PUSH2 0x165B JUMP JUMPDEST SWAP2 POP POP SWAP3 POP SWAP3 SWAP1 POP JUMP JUMPDEST PUSH32 0x4E487B7100000000000000000000000000000000000000000000000000000000 PUSH1 0x0 MSTORE PUSH1 0x22 PUSH1 0x4 MSTORE PUSH1 0x24 PUSH1 0x0 REVERT JUMPDEST PUSH1 0x0 PUSH1 0x2 DUP3 DIV SWAP1 POP PUSH1 0x1 DUP3 AND DUP1 PUSH2 0x19DC JUMPI PUSH1 0x7F DUP3 AND SWAP2 POP JUMPDEST PUSH1 0x20 DUP3 LT DUP2 SUB PUSH2 0x19EF JUMPI PUSH2 0x19EE PUSH2 0x1995 JUMP JUMPDEST JUMPDEST POP SWAP2 SWAP1 POP JUMP JUMPDEST PUSH32 0x4E487B7100000000000000000000000000000000000000000000000000000000 PUSH1 0x0 MSTORE PUSH1 0x11 PUSH1 0x4 MSTORE PUSH1 0x24 PUSH1 0x0 REVERT JUMPDEST PUSH1 0x0 PUSH2 0x1A2F DUP3 PUSH2 0x1670 JUMP JUMPDEST SWAP2 POP PUSH2 0x1A3A DUP4 PUSH2 0x1670 JUMP JUMPDEST SWAP3 POP DUP3 DUP3 ADD SWAP1 POP DUP1 DUP3 GT ISZERO PUSH2 0x1A52 JUMPI PUSH2 0x1A51 PUSH2 0x19F5 JUMP JUMPDEST JUMPDEST SWAP3 SWAP2 POP POP JUMP JUMPDEST PUSH32 0x45524332303A2064656372656173656420616C6C6F77616E63652062656C6F77 PUSH1 0x0 DUP3 ADD MSTORE PUSH32 0x207A65726F000000000000000000000000000000000000000000000000000000 PUSH1 0x20 DUP3 ADD MSTORE POP JUMP JUMPDEST PUSH1 0x0 PUSH2 0x1AB4 PUSH1 0x25 DUP4 PUSH2 0x1566 JUMP JUMPDEST SWAP2 POP PUSH2 0x1ABF DUP3 PUSH2 0x1A58 JUMP JUMPDEST PUSH1 0x40 DUP3 ADD SWAP1 POP SWAP2 SWAP1 POP JUMP JUMPDEST PUSH1 0x0 PUSH1 0x20 DUP3 ADD SWAP1 POP DUP2 DUP2 SUB PUSH1 0x0 DUP4 ADD MSTORE PUSH2 0x1AE3 DUP2 PUSH2 0x1AA7 JUMP JUMPDEST SWAP1 POP SWAP2 SWAP1 POP JUMP JUMPDEST PUSH32 0x45524332305065726D69743A206578706972656420646561646C696E65000000 PUSH1 0x0 DUP3 ADD MSTORE POP JUMP JUMPDEST PUSH1 0x0 PUSH2 0x1B20 PUSH1 0x1D DUP4 PUSH2 0x1566 JUMP JUMPDEST SWAP2 POP PUSH2 0x1B2B DUP3 PUSH2 0x1AEA JUMP JUMPDEST PUSH1 0x20 DUP3 ADD SWAP1 POP SWAP2 SWAP1 POP JUMP JUMPDEST PUSH1 0x0 PUSH1 0x20 DUP3 ADD SWAP1 POP DUP2 DUP2 SUB PUSH1 0x0 DUP4 ADD MSTORE PUSH2 0x1B4F DUP2 PUSH2 0x1B13 JUMP JUMPDEST SWAP1 POP SWAP2 SWAP1 POP JUMP JUMPDEST PUSH1 0x0 PUSH1 0xC0 DUP3 ADD SWAP1 POP PUSH2 0x1B6B PUSH1 0x0 DUP4 ADD DUP10 PUSH2 0x17DA JUMP JUMPDEST PUSH2 0x1B78 PUSH1 0x20 DUP4 ADD DUP9 PUSH2 0x1831 JUMP JUMPDEST PUSH2 0x1B85 PUSH1 0x40 DUP4 ADD DUP8 PUSH2 0x1831 JUMP JUMPDEST PUSH2 0x1B92 PUSH1 0x60 DUP4 ADD DUP7 PUSH2 0x171C JUMP JUMPDEST PUSH2 0x1B9F PUSH1 0x80 DUP4 ADD DUP6 PUSH2 0x171C JUMP JUMPDEST PUSH2 0x1BAC PUSH1 0xA0 DUP4 ADD DUP5 PUSH2 0x171C JUMP JUMPDEST SWAP8 SWAP7 POP POP POP POP POP POP POP JUMP JUMPDEST PUSH32 0x45524332305065726D69743A20696E76616C6964207369676E61747572650000 PUSH1 0x0 DUP3 ADD MSTORE POP JUMP JUMPDEST PUSH1 0x0 PUSH2 0x1BED PUSH1 0x1E DUP4 PUSH2 0x1566 JUMP JUMPDEST SWAP2 POP PUSH2 0x1BF8 DUP3 PUSH2 0x1BB7 JUMP JUMPDEST PUSH1 0x20 DUP3 ADD SWAP1 POP SWAP2 SWAP1 POP JUMP JUMPDEST PUSH1 0x0 PUSH1 0x20 DUP3 ADD SWAP1 POP DUP2 DUP2 SUB PUSH1 0x0 DUP4 ADD MSTORE PUSH2 0x1C1C DUP2 PUSH2 0x1BE0 JUMP JUMPDEST SWAP1 POP SWAP2 SWAP1 POP JUMP JUMPDEST PUSH32 0x4F776E61626C653A206E6577206F776E657220697320746865207A65726F2061 PUSH1 0x0 DUP3 ADD MSTORE PUSH32 0x6464726573730000000000000000000000000000000000000000000000000000 PUSH1 0x20 DUP3 ADD MSTORE POP JUMP JUMPDEST PUSH1 0x0 PUSH2 0x1C7F PUSH1 0x26 DUP4 PUSH2 0x1566 JUMP JUMPDEST SWAP2 POP PUSH2 0x1C8A DUP3 PUSH2 0x1C23 JUMP JUMPDEST PUSH1 0x40 DUP3 ADD SWAP1 POP SWAP2 SWAP1 POP JUMP JUMPDEST PUSH1 0x0 PUSH1 0x20 DUP3 ADD SWAP1 POP DUP2 DUP2 SUB PUSH1 0x0 DUP4 ADD MSTORE PUSH2 0x1CAE DUP2 PUSH2 0x1C72 JUMP JUMPDEST SWAP1 POP SWAP2 SWAP1 POP JUMP JUMPDEST PUSH32 0x45524332303A20617070726F76652066726F6D20746865207A65726F20616464 PUSH1 0x0 DUP3 ADD MSTORE PUSH32 0x7265737300000000000000000000000000000000000000000000000000000000 PUSH1 0x20 DUP3 ADD MSTORE POP JUMP JUMPDEST PUSH1 0x0 PUSH2 0x1D11 PUSH1 0x24 DUP4 PUSH2 0x1566 JUMP JUMPDEST SWAP2 POP PUSH2 0x1D1C DUP3 PUSH2 0x1CB5 JUMP JUMPDEST PUSH1 0x40 DUP3 ADD SWAP1 POP SWAP2 SWAP1 POP JUMP JUMPDEST PUSH1 0x0 PUSH1 0x20 DUP3 ADD SWAP1 POP DUP2 DUP2 SUB PUSH1 0x0 DUP4 ADD MSTORE PUSH2 0x1D40 DUP2 PUSH2 0x1D04 JUMP JUMPDEST SWAP1 POP SWAP2 SWAP1 POP JUMP JUMPDEST PUSH32 0x45524332303A20617070726F766520746F20746865207A65726F206164647265 PUSH1 0x0 DUP3 ADD MSTORE PUSH32 0x7373000000000000000000000000000000000000000000000000000000000000 PUSH1 0x20 DUP3 ADD MSTORE POP JUMP JUMPDEST PUSH1 0x0 PUSH2 0x1DA3 PUSH1 0x22 DUP4 PUSH2 0x1566 JUMP JUMPDEST SWAP2 POP PUSH2 0x1DAE DUP3 PUSH2 0x1D47 JUMP JUMPDEST PUSH1 0x40 DUP3 ADD SWAP1 POP SWAP2 SWAP1 POP JUMP JUMPDEST PUSH1 0x0 PUSH1 0x20 DUP3 ADD SWAP1 POP DUP2 DUP2 SUB PUSH1 0x0 DUP4 ADD MSTORE PUSH2 0x1DD2 DUP2 PUSH2 0x1D96 JUMP JUMPDEST SWAP1 POP SWAP2 SWAP1 POP JUMP JUMPDEST PUSH32 0x45524332303A20696E73756666696369656E7420616C6C6F77616E6365000000 PUSH1 0x0 DUP3 ADD MSTORE POP JUMP JUMPDEST PUSH1 0x0 PUSH2 0x1E0F PUSH1 0x1D DUP4 PUSH2 0x1566 JUMP JUMPDEST SWAP2 POP PUSH2 0x1E1A DUP3 PUSH2 0x1DD9 JUMP JUMPDEST PUSH1 0x20 DUP3 ADD SWAP1 POP SWAP2 SWAP1 POP JUMP JUMPDEST PUSH1 0x0 PUSH1 0x20 DUP3 ADD SWAP1 POP DUP2 DUP2 SUB PUSH1 0x0 DUP4 ADD MSTORE PUSH2 0x1E3E DUP2 PUSH2 0x1E02 JUMP JUMPDEST SWAP1 POP SWAP2 SWAP1 POP JUMP JUMPDEST PUSH32 0x45524332303A207472616E736665722066726F6D20746865207A65726F206164 PUSH1 0x0 DUP3 ADD MSTORE PUSH32 0x6472657373000000000000000000000000000000000000000000000000000000 PUSH1 0x20 DUP3 ADD MSTORE POP JUMP JUMPDEST PUSH1 0x0 PUSH2 0x1EA1 PUSH1 0x25 DUP4 PUSH2 0x1566 JUMP JUMPDEST SWAP2 POP PUSH2 0x1EAC DUP3 PUSH2 0x1E45 JUMP JUMPDEST PUSH1 0x40 DUP3 ADD SWAP1 POP SWAP2 SWAP1 POP JUMP JUMPDEST PUSH1 0x0 PUSH1 0x20 DUP3 ADD SWAP1 POP DUP2 DUP2 SUB PUSH1 0x0 DUP4 ADD MSTORE PUSH2 0x1ED0 DUP2 PUSH2 0x1E94 JUMP JUMPDEST SWAP1 POP SWAP2 SWAP1 POP JUMP JUMPDEST PUSH32 0x45524332303A207472616E7366657220746F20746865207A65726F2061646472 PUSH1 0x0 DUP3 ADD MSTORE PUSH32 0x6573730000000000000000000000000000000000000000000000000000000000 PUSH1 0x20 DUP3 ADD MSTORE POP JUMP JUMPDEST PUSH1 0x0 PUSH2 0x1F33 PUSH1 0x23 DUP4 PUSH2 0x1566 JUMP JUMPDEST SWAP2 POP PUSH2 0x1F3E DUP3 PUSH2 0x1ED7 JUMP JUMPDEST PUSH1 0x40 DUP3 ADD SWAP1 POP SWAP2 SWAP1 POP JUMP JUMPDEST PUSH1 0x0 PUSH1 0x20 DUP3 ADD SWAP1 POP DUP2 DUP2 SUB PUSH1 0x0 DUP4 ADD MSTORE PUSH2 0x1F62 DUP2 PUSH2 0x1F26 JUMP JUMPDEST SWAP1 POP SWAP2 SWAP1 POP JUMP JUMPDEST PUSH32 0x45524332303A207472616E7366657220616D6F756E7420657863656564732062 PUSH1 0x0 DUP3 ADD MSTORE PUSH32 0x616C616E63650000000000000000000000000000000000000000000000000000 PUSH1 0x20 DUP3 ADD MSTORE POP JUMP JUMPDEST PUSH1 0x0 PUSH2 0x1FC5 PUSH1 0x26 DUP4 PUSH2 0x1566 JUMP JUMPDEST SWAP2 POP PUSH2 0x1FD0 DUP3 PUSH2 0x1F69 JUMP JUMPDEST PUSH1 0x40 DUP3 ADD SWAP1 POP SWAP2 SWAP1 POP JUMP JUMPDEST PUSH1 0x0 PUSH1 0x20 DUP3 ADD SWAP1 POP DUP2 DUP2 SUB PUSH1 0x0 DUP4 ADD MSTORE PUSH2 0x1FF4 DUP2 PUSH2 0x1FB8 JUMP JUMPDEST SWAP1 POP SWAP2 SWAP1 POP JUMP JUMPDEST PUSH32 0x4F776E61626C653A2063616C6C6572206973206E6F7420746865206F776E6572 PUSH1 0x0 DUP3 ADD MSTORE POP JUMP JUMPDEST PUSH1 0x0 PUSH2 0x2031 PUSH1 0x20 DUP4 PUSH2 0x1566 JUMP JUMPDEST SWAP2 POP PUSH2 0x203C DUP3 PUSH2 0x1FFB JUMP JUMPDEST PUSH1 0x20 DUP3 ADD SWAP1 POP SWAP2 SWAP1 POP JUMP JUMPDEST PUSH1 0x0 PUSH1 0x20 DUP3 ADD SWAP1 POP DUP2 DUP2 SUB PUSH1 0x0 DUP4 ADD MSTORE PUSH2 0x2060 DUP2 PUSH2 0x2024 JUMP JUMPDEST SWAP1 POP SWAP2 SWAP1 POP JUMP JUMPDEST PUSH32 0x45524332303A206D696E7420746F20746865207A65726F206164647265737300 PUSH1 0x0 DUP3 ADD MSTORE POP JUMP JUMPDEST PUSH1 0x0 PUSH2 0x209D PUSH1 0x1F DUP4 PUSH2 0x1566 JUMP JUMPDEST SWAP2 POP PUSH2 0x20A8 DUP3 PUSH2 0x2067 JUMP JUMPDEST PUSH1 0x20 DUP3 ADD SWAP1 POP SWAP2 SWAP1 POP JUMP JUMPDEST PUSH1 0x0 PUSH1 0x20 DUP3 ADD SWAP1 POP DUP2 DUP2 SUB PUSH1 0x0 DUP4 ADD MSTORE PUSH2 0x20CC DUP2 PUSH2 0x2090 JUMP JUMPDEST SWAP1 POP SWAP2 SWAP1 POP JUMP JUMPDEST PUSH1 0x0 PUSH1 0xA0 DUP3 ADD SWAP1 POP PUSH2 0x20E8 PUSH1 0x0 DUP4 ADD DUP9 PUSH2 0x17DA JUMP JUMPDEST PUSH2 0x20F5 PUSH1 0x20 DUP4 ADD DUP8 PUSH2 0x17DA JUMP JUMPDEST PUSH2 0x2102 PUSH1 0x40 DUP4 ADD DUP7 PUSH2 0x17DA JUMP JUMPDEST PUSH2 0x210F PUSH1 0x60 DUP4 ADD DUP6 PUSH2 0x171C JUMP JUMPDEST PUSH2 0x211C PUSH1 0x80 DUP4 ADD DUP5 PUSH2 0x1831 JUMP JUMPDEST SWAP7 SWAP6 POP POP POP POP POP POP JUMP JUMPDEST PUSH1 0x0 DUP2 SWAP1 POP SWAP3 SWAP2 POP POP JUMP JUMPDEST PUSH32 0x1901000000000000000000000000000000000000000000000000000000000000 PUSH1 0x0 DUP3 ADD MSTORE POP JUMP JUMPDEST PUSH1 0x0 PUSH2 0x2167 PUSH1 0x2 DUP4 PUSH2 0x2126 JUMP JUMPDEST SWAP2 POP PUSH2 0x2172 DUP3 PUSH2 0x2131 JUMP JUMPDEST PUSH1 0x2 DUP3 ADD SWAP1 POP SWAP2 SWAP1 POP JUMP JUMPDEST PUSH1 0x0 DUP2 SWAP1 POP SWAP2 SWAP1 POP JUMP JUMPDEST PUSH2 0x2198 PUSH2 0x2193 DUP3 PUSH2 0x17D0 JUMP JUMPDEST PUSH2 0x217D JUMP JUMPDEST DUP3 MSTORE POP POP JUMP JUMPDEST PUSH1 0x0 PUSH2 0x21A9 DUP3 PUSH2 0x215A JUMP JUMPDEST SWAP2 POP PUSH2 0x21B5 DUP3 DUP6 PUSH2 0x2187 JUMP JUMPDEST PUSH1 0x20 DUP3 ADD SWAP2 POP PUSH2 0x21C5 DUP3 DUP5 PUSH2 0x2187 JUMP JUMPDEST PUSH1 0x20 DUP3 ADD SWAP2 POP DUP2 SWAP1 POP SWAP4 SWAP3 POP POP POP JUMP JUMPDEST PUSH1 0x0 PUSH1 0x80 DUP3 ADD SWAP1 POP PUSH2 0x21EA PUSH1 0x0 DUP4 ADD DUP8 PUSH2 0x17DA JUMP JUMPDEST PUSH2 0x21F7 PUSH1 0x20 DUP4 ADD DUP7 PUSH2 0x17A6 JUMP JUMPDEST PUSH2 0x2204 PUSH1 0x40 DUP4 ADD DUP6 PUSH2 0x17DA JUMP JUMPDEST PUSH2 0x2211 PUSH1 0x60 DUP4 ADD DUP5 PUSH2 0x17DA JUMP JUMPDEST SWAP6 SWAP5 POP POP POP POP POP JUMP JUMPDEST PUSH32 0x4E487B7100000000000000000000000000000000000000000000000000000000 PUSH1 0x0 MSTORE PUSH1 0x21 PUSH1 0x4 MSTORE PUSH1 0x24 PUSH1 0x0 REVERT JUMPDEST PUSH32 0x45434453413A20696E76616C6964207369676E61747572650000000000000000 PUSH1 0x0 DUP3 ADD MSTORE POP JUMP JUMPDEST PUSH1 0x0 PUSH2 0x227F PUSH1 0x18 DUP4 PUSH2 0x1566 JUMP JUMPDEST SWAP2 POP PUSH2 0x228A DUP3 PUSH2 0x2249 JUMP JUMPDEST PUSH1 0x20 DUP3 ADD SWAP1 POP SWAP2 SWAP1 POP JUMP JUMPDEST PUSH1 0x0 PUSH1 0x20 DUP3 ADD SWAP1 POP DUP2 DUP2 SUB PUSH1 0x0 DUP4 ADD MSTORE PUSH2 0x22AE DUP2 PUSH2 0x2272 JUMP JUMPDEST SWAP1 POP SWAP2 SWAP1 POP JUMP JUMPDEST PUSH32 0x45434453413A20696E76616C6964207369676E6174757265206C656E67746800 PUSH1 0x0 DUP3 ADD MSTORE POP JUMP JUMPDEST PUSH1 0x0 PUSH2 0x22EB PUSH1 0x1F DUP4 PUSH2 0x1566 JUMP JUMPDEST SWAP2 POP PUSH2 0x22F6 DUP3 PUSH2 0x22B5 JUMP JUMPDEST PUSH1 0x20 DUP3 ADD SWAP1 POP SWAP2 SWAP1 POP JUMP JUMPDEST PUSH1 0x0 PUSH1 0x20 DUP3 ADD SWAP1 POP DUP2 DUP2 SUB PUSH1 0x0 DUP4 ADD MSTORE PUSH2 0x231A DUP2 PUSH2 0x22DE JUMP JUMPDEST SWAP1 POP SWAP2 SWAP1 POP JUMP JUMPDEST PUSH32 0x45434453413A20696E76616C6964207369676E6174757265202773272076616C PUSH1 0x0 DUP3 ADD MSTORE PUSH32 0x7565000000000000000000000000000000000000000000000000000000000000 PUSH1 0x20 DUP3 ADD MSTORE POP JUMP JUMPDEST PUSH1 0x0 PUSH2 0x237D PUSH1 0x22 DUP4 PUSH2 0x1566 JUMP JUMPDEST SWAP2 POP PUSH2 0x2388 DUP3 PUSH2 0x2321 JUMP JUMPDEST PUSH1 0x40 DUP3 ADD SWAP1 POP SWAP2 SWAP1 POP JUMP JUMPDEST PUSH1 0x0 PUSH1 0x20 DUP3 ADD SWAP1 POP DUP2 DUP2 SUB PUSH1 0x0 DUP4 ADD MSTORE PUSH2 0x23AC DUP2 PUSH2 0x2370 JUMP JUMPDEST SWAP1 POP SWAP2 SWAP1 POP JUMP INVALID LOG2 PUSH5 0x6970667358 0x22 SLT KECCAK256 0xC4 0xD8 SIGNEXTEND SGT 0x2D 0xB5 0xAB 0xD CALL MULMOD PUSH6 0x1BE664343B5C PUSH7 0x42AFBD159B94A0 COINBASE PUSH18 0x82B87D983164736F6C634300081100330000 "},"methodIdentifiers":{"DOMAIN_SEPARATOR()":"3644e515","allowance(address,address)":"dd62ed3e","approve(address,uint256)":"095ea7b3","balanceOf(address)":"70a08231","decimals()":"313ce567","decreaseAllowance(address,uint256)":"a457c2d7","increaseAllowance(address,uint256)":"39509351","mint(address,uint256)":"40c10f19","name()":"06fdde03","nonces(address)":"7ecebe00","owner()":"8da5cb5b","permit(address,address,uint256,uint256,uint8,bytes32,bytes32)":"d505accf","renounceOwnership()":"715018a6","symbol()":"95d89b41","totalSupply()":"18160ddd","transfer(address,uint256)":"a9059cbb","transferFrom(address,address,uint256)":"23b872dd","transferOwnership(address)":"f2fde38b"}},"storageLayout":{"storage":[{"astId":581,"contract":"contracts/MetaToken.sol:MetaToken","label":"_balances","offset":0,"slot":"0","type":"t_mapping(t_address,t_uint256)"},{"astId":587,"contract":"contracts/MetaToken.sol:MetaToken","label":"_allowances","offset":0,"slot":"1","type":"t_mapping(t_address,t_mapping(t_address,t_uint256))"},{"astId":589,"contract":"contracts/MetaToken.sol:MetaToken","label":"_totalSupply","offset":0,"slot":"2","type":"t_uint256"},{"astId":591,"contract":"contracts/MetaToken.sol:MetaToken","label":"_name","offset":0,"slot":"3","type":"t_string_storage"},{"astId":593,"contract":"contracts/MetaToken.sol:MetaToken","label":"_symbol","offset":0,"slot":"4","type":"t_string_storage"},{"astId":460,"contract":"contracts/MetaToken.sol:MetaToken","label":"_owner","offset":0,"slot":"5","type":"t_address"},{"astId":1278,"contract":"contracts/MetaToken.sol:MetaToken","label":"_nonces","offset":0,"slot":"6","type":"t_mapping(t_address,t_struct(Counter)1491_storage)"},{"astId":1286,"contract":"contracts/MetaToken.sol:MetaToken","label":"_PERMIT_TYPEHASH_DEPRECATED_SLOT","offset":0,"slot":"7","type":"t_bytes32"}],"types":{"t_address":{"encoding":"inplace","label":"address","numberOfBytes":"20"},"t_bytes32":{"encoding":"inplace","label":"bytes32","numberOfBytes":"32"},"t_mapping(t_address,t_mapping(t_address,t_uint256))":{"encoding":"mapping","key":"t_address","label":"mapping(address => mapping(address => uint256))","numberOfBytes":"32","value":"t_mapping(t_address,t_uint256)"},"t_mapping(t_address,t_struct(Counter)1491_storage)":{"encoding":"mapping","key":"t_address","label":"mapping(address => struct Counters.Counter)","numberOfBytes":"32","value":"t_struct(Counter)1491_storage"},"t_mapping(t_address,t_uint256)":{"encoding":"mapping","key":"t_address","label":"mapping(address => uint256)","numberOfBytes":"32","value":"t_uint256"},"t_string_storage":{"encoding":"bytes","label":"string","numberOfBytes":"32"},"t_struct(Counter)1491_storage":{"encoding":"inplace","label":"struct Counters.Counter","members":[{"astId":1490,"contract":"contracts/MetaToken.sol:MetaToken","label":"_value","offset":0,"slot":"0","type":"t_uint256"}],"numberOfBytes":"32"},"t_uint256":{"encoding":"inplace","label":"uint256","numberOfBytes":"32"}}}}}}