{
  "_format": "hh-sol-artifact-1",
  "contractName": "Crowdfunding_Version2",
  "sourceName": "contracts/Crowdfunding_Version2.sol",
  "abi": [
    {
      "inputs": [],
      "stateMutability": "nonpayable",
      "type": "constructor"
    },
    {
      "anonymous": false,
      "inputs": [
        {
          "indexed": false,
          "internalType": "uint256",
          "name": "id",
          "type": "uint256"
        },
        {
          "indexed": false,
          "internalType": "string",
          "name": "message",
          "type": "string"
        }
      ],
      "name": "CampaignCancelled",
      "type": "event"
    },
    {
      "anonymous": false,
      "inputs": [
        {
          "indexed": false,
          "internalType": "uint256",
          "name": "id",
          "type": "uint256"
        },
        {
          "indexed": true,
          "internalType": "address",
          "name": "owner",
          "type": "address"
        },
        {
          "indexed": false,
          "internalType": "uint256",
          "name": "goal",
          "type": "uint256"
        },
        {
          "indexed": false,
          "internalType": "uint256",
          "name": "startCampaign",
          "type": "uint256"
        },
        {
          "indexed": false,
          "internalType": "uint256",
          "name": "endCampaign",
          "type": "uint256"
        },
        {
          "indexed": false,
          "internalType": "string",
          "name": "message",
          "type": "string"
        }
      ],
      "name": "CampaignCreated",
      "type": "event"
    },
    {
      "anonymous": false,
      "inputs": [
        {
          "indexed": false,
          "internalType": "uint256",
          "name": "id",
          "type": "uint256"
        },
        {
          "indexed": false,
          "internalType": "string",
          "name": "message",
          "type": "string"
        }
      ],
      "name": "Claim",
      "type": "event"
    },
    {
      "anonymous": false,
      "inputs": [
        {
          "indexed": false,
          "internalType": "uint8",
          "name": "version",
          "type": "uint8"
        }
      ],
      "name": "Initialized",
      "type": "event"
    },
    {
      "anonymous": false,
      "inputs": [
        {
          "indexed": true,
          "internalType": "uint256",
          "name": "id",
          "type": "uint256"
        },
        {
          "indexed": true,
          "internalType": "address",
          "name": "pledger",
          "type": "address"
        },
        {
          "indexed": false,
          "internalType": "uint256",
          "name": "amount",
          "type": "uint256"
        },
        {
          "indexed": false,
          "internalType": "string",
          "name": "message",
          "type": "string"
        }
      ],
      "name": "Pledge",
      "type": "event"
    },
    {
      "anonymous": false,
      "inputs": [
        {
          "indexed": false,
          "internalType": "uint256",
          "name": "id",
          "type": "uint256"
        },
        {
          "indexed": true,
          "internalType": "address",
          "name": "pledger",
          "type": "address"
        },
        {
          "indexed": false,
          "internalType": "uint256",
          "name": "amount",
          "type": "uint256"
        },
        {
          "indexed": false,
          "internalType": "string",
          "name": "message",
          "type": "string"
        }
      ],
      "name": "Refund",
      "type": "event"
    },
    {
      "anonymous": false,
      "inputs": [
        {
          "indexed": true,
          "internalType": "uint256",
          "name": "id",
          "type": "uint256"
        },
        {
          "indexed": true,
          "internalType": "address",
          "name": "pledger",
          "type": "address"
        },
        {
          "indexed": false,
          "internalType": "uint256",
          "name": "amount",
          "type": "uint256"
        },
        {
          "indexed": false,
          "internalType": "string",
          "name": "message",
          "type": "string"
        }
      ],
      "name": "Unpledge",
      "type": "event"
    },
    {
      "inputs": [
        {
          "internalType": "uint256",
          "name": "",
          "type": "uint256"
        }
      ],
      "name": "campaigns",
      "outputs": [
        {
          "internalType": "address",
          "name": "owner",
          "type": "address"
        },
        {
          "internalType": "string",
          "name": "title",
          "type": "string"
        },
        {
          "internalType": "string",
          "name": "description",
          "type": "string"
        },
        {
          "internalType": "string",
          "name": "campaignImage",
          "type": "string"
        },
        {
          "internalType": "uint256",
          "name": "goal",
          "type": "uint256"
        },
        {
          "internalType": "uint256",
          "name": "pledged",
          "type": "uint256"
        },
        {
          "internalType": "uint256",
          "name": "startCampaign",
          "type": "uint256"
        },
        {
          "internalType": "uint256",
          "name": "endCampaign",
          "type": "uint256"
        },
        {
          "internalType": "address",
          "name": "token",
          "type": "address"
        },
        {
          "internalType": "bool",
          "name": "claimed",
          "type": "bool"
        }
      ],
      "stateMutability": "view",
      "type": "function"
    },
    {
      "inputs": [
        {
          "internalType": "uint256",
          "name": "_id",
          "type": "uint256"
        }
      ],
      "name": "cancelCampaign",
      "outputs": [],
      "stateMutability": "nonpayable",
      "type": "function"
    },
    {
      "inputs": [
        {
          "internalType": "uint256",
          "name": "_newDeadline",
          "type": "uint256"
        }
      ],
      "name": "changeDeadline",
      "outputs": [],
      "stateMutability": "nonpayable",
      "type": "function"
    },
    {
      "inputs": [
        {
          "internalType": "uint256",
          "name": "_id",
          "type": "uint256"
        }
      ],
      "name": "claim",
      "outputs": [],
      "stateMutability": "nonpayable",
      "type": "function"
    },
    {
      "inputs": [
        {
          "internalType": "string",
          "name": "_title",
          "type": "string"
        },
        {
          "internalType": "string",
          "name": "_description",
          "type": "string"
        },
        {
          "internalType": "string",
          "name": "_campaignImage",
          "type": "string"
        },
        {
          "internalType": "uint256",
          "name": "_goal",
          "type": "uint256"
        },
        {
          "internalType": "address",
          "name": "_token",
          "type": "address"
        },
        {
          "internalType": "uint256",
          "name": "_startCampaign",
          "type": "uint256"
        },
        {
          "internalType": "uint256",
          "name": "_endCampaign",
          "type": "uint256"
        }
      ],
      "name": "createCampaign",
      "outputs": [],
      "stateMutability": "nonpayable",
      "type": "function"
    },
    {
      "inputs": [],
      "name": "deadline",
      "outputs": [
        {
          "internalType": "uint256",
          "name": "",
          "type": "uint256"
        }
      ],
      "stateMutability": "view",
      "type": "function"
    },
    {
      "inputs": [
        {
          "internalType": "uint256",
          "name": "_deadline",
          "type": "uint256"
        }
      ],
      "name": "initialize",
      "outputs": [],
      "stateMutability": "nonpayable",
      "type": "function"
    },
    {
      "inputs": [],
      "name": "numberOfCampaigns",
      "outputs": [
        {
          "internalType": "uint256",
          "name": "",
          "type": "uint256"
        }
      ],
      "stateMutability": "view",
      "type": "function"
    },
    {
      "inputs": [
        {
          "internalType": "uint256",
          "name": "_id",
          "type": "uint256"
        },
        {
          "internalType": "uint256",
          "name": "_amount",
          "type": "uint256"
        }
      ],
      "name": "pledge",
      "outputs": [],
      "stateMutability": "nonpayable",
      "type": "function"
    },
    {
      "inputs": [
        {
          "internalType": "uint256",
          "name": "",
          "type": "uint256"
        },
        {
          "internalType": "address",
          "name": "",
          "type": "address"
        }
      ],
      "name": "pledgedAmount",
      "outputs": [
        {
          "internalType": "uint256",
          "name": "",
          "type": "uint256"
        }
      ],
      "stateMutability": "view",
      "type": "function"
    },
    {
      "inputs": [
        {
          "internalType": "uint256",
          "name": "_id",
          "type": "uint256"
        }
      ],
      "name": "refund",
      "outputs": [],
      "stateMutability": "nonpayable",
      "type": "function"
    },
    {
      "inputs": [
        {
          "internalType": "uint256",
          "name": "_id",
          "type": "uint256"
        },
        {
          "internalType": "uint256",
          "name": "_amount",
          "type": "uint256"
        }
      ],
      "name": "unPledge",
      "outputs": [],
      "stateMutability": "nonpayable",
      "type": "function"
    }
  ],
  "bytecode": "0x60806040523480156200001157600080fd5b50620000226200002860201b60201c565b620001d3565b600060019054906101000a900460ff16156200007b576040517f08c379a0000000000000000000000000000000000000000000000000000000008152600401620000729062000176565b60405180910390fd5b60ff801660008054906101000a900460ff1660ff161015620000ed5760ff6000806101000a81548160ff021916908360ff1602179055507f7f26b83ff96e1f2b6a682f133852f6798a09c465da95921460cefb384740249860ff604051620000e49190620001b6565b60405180910390a15b565b600082825260208201905092915050565b7f496e697469616c697a61626c653a20636f6e747261637420697320696e69746960008201527f616c697a696e6700000000000000000000000000000000000000000000000000602082015250565b60006200015e602783620000ef565b91506200016b8262000100565b604082019050919050565b6000602082019050818103600083015262000191816200014f565b9050919050565b600060ff82169050919050565b620001b08162000198565b82525050565b6000602082019050620001cd6000830184620001a5565b92915050565b612dba80620001e36000396000f3fe608060405234801561001057600080fd5b50600436106100b45760003560e01c80637aca97b5116100715780637aca97b514610182578063a3a0e9361461019e578063aa4fb63a146101ba578063adb1be40146101ea578063fde327be14610206578063fe4b84df14610222576100b4565b806307ca140d146100b9578063141961bc146100d7578063278ecde11461011057806329dcb0cf1461012c578063379607f51461014a57806345598b4a14610166575b600080fd5b6100c161023e565b6040516100ce9190611a5d565b60405180910390f35b6100f160048036038101906100ec9190611ab8565b610244565b6040516101079a99989796959493929190611bd1565b60405180910390f35b61012a60048036038101906101259190611ab8565b61047d565b005b610134610959565b6040516101419190611a5d565b60405180910390f35b610164600480360381019061015f9190611ab8565b61095f565b005b610180600480360381019061017b9190611ab8565b610c0e565b005b61019c60048036038101906101979190611ab8565b611091565b005b6101b860048036038101906101b39190611c82565b61109b565b005b6101d460048036038101906101cf9190611cee565b61134c565b6040516101e19190611a5d565b60405180910390f35b61020460048036038101906101ff9190611e63565b611371565b005b610220600480360381019061021b9190611c82565b611666565b005b61023c60048036038101906102379190611ab8565b611886565b005b60015481565b60036020528060005260406000206000915090508060000160009054906101000a900473ffffffffffffffffffffffffffffffffffffffff169080600101805461028d90611f88565b80601f01602080910402602001604051908101604052809291908181526020018280546102b990611f88565b80156103065780601f106102db57610100808354040283529160200191610306565b820191906000526020600020905b8154815290600101906020018083116102e957829003601f168201915b50505050509080600201805461031b90611f88565b80601f016020809104026020016040519081016040528092919081815260200182805461034790611f88565b80156103945780601f1061036957610100808354040283529160200191610394565b820191906000526020600020905b81548152906001019060200180831161037757829003601f168201915b5050505050908060030180546103a990611f88565b80601f01602080910402602001604051908101604052809291908181526020018280546103d590611f88565b80156104225780601f106103f757610100808354040283529160200191610422565b820191906000526020600020905b81548152906001019060200180831161040557829003601f168201915b5050505050908060040154908060050154908060060154908060070154908060080160009054906101000a900473ffffffffffffffffffffffffffffffffffffffff16908060080160149054906101000a900460ff1690508a565b600060036000838152602001908152602001600020604051806101400160405290816000820160009054906101000a900473ffffffffffffffffffffffffffffffffffffffff1673ffffffffffffffffffffffffffffffffffffffff1673ffffffffffffffffffffffffffffffffffffffff16815260200160018201805461050490611f88565b80601f016020809104026020016040519081016040528092919081815260200182805461053090611f88565b801561057d5780601f106105525761010080835404028352916020019161057d565b820191906000526020600020905b81548152906001019060200180831161056057829003601f168201915b5050505050815260200160028201805461059690611f88565b80601f01602080910402602001604051908101604052809291908181526020018280546105c290611f88565b801561060f5780601f106105e45761010080835404028352916020019161060f565b820191906000526020600020905b8154815290600101906020018083116105f257829003601f168201915b5050505050815260200160038201805461062890611f88565b80601f016020809104026020016040519081016040528092919081815260200182805461065490611f88565b80156106a15780601f10610676576101008083540402835291602001916106a1565b820191906000526020600020905b81548152906001019060200180831161068457829003601f168201915b50505050508152602001600482015481526020016005820154815260200160068201548152602001600782015481526020016008820160009054906101000a900473ffffffffffffffffffffffffffffffffffffffff1673ffffffffffffffffffffffffffffffffffffffff1673ffffffffffffffffffffffffffffffffffffffff1681526020016008820160149054906101000a900460ff16151515158152505090508060e00151421161078b576040517f08c379a000000000000000000000000000000000000000000000000000000000815260040161078290612005565b60405180910390fd5b80608001518160a00151106107d5576040517f08c379a00000000000000000000000000000000000000000000000000000000081526004016107cc90612097565b60405180910390fd5b60006004600084815260200190815260200160002060003373ffffffffffffffffffffffffffffffffffffffff1673ffffffffffffffffffffffffffffffffffffffff16815260200190815260200160002054905060006004600085815260200190815260200160002060003373ffffffffffffffffffffffffffffffffffffffff1673ffffffffffffffffffffffffffffffffffffffff1681526020019081526020016000208190555081610100015173ffffffffffffffffffffffffffffffffffffffff1663a9059cbb33836040518363ffffffff1660e01b81526004016108c09291906120b7565b6020604051808303816000875af11580156108df573d6000803e3d6000fd5b505050506040513d601f19601f82011682018060405250810190610903919061210c565b503373ffffffffffffffffffffffffffffffffffffffff167f8ece18c5319415fdd4c766cb302c9e3c7df75d2c2d72e628dc9f90234d532888848360405161094c9291906121ab565b60405180910390a2505050565b60025481565b60006003600083815260200190815260200160002090503373ffffffffffffffffffffffffffffffffffffffff168160000160009054906101000a900473ffffffffffffffffffffffffffffffffffffffff1673ffffffffffffffffffffffffffffffffffffffff1614610a08576040517f08c379a00000000000000000000000000000000000000000000000000000000081526004016109ff90612233565b60405180910390fd5b80600701544211610a4e576040517f08c379a0000000000000000000000000000000000000000000000000000000008152600401610a4590612005565b60405180910390fd5b806004015481600501541015610a99576040517f08c379a0000000000000000000000000000000000000000000000000000000008152600401610a909061229f565b60405180910390fd5b8060080160149054906101000a900460ff1615610aeb576040517f08c379a0000000000000000000000000000000000000000000000000000000008152600401610ae29061230b565b60405180910390fd5b60018160080160146101000a81548160ff0219169083151502179055508060080160009054906101000a900473ffffffffffffffffffffffffffffffffffffffff1673ffffffffffffffffffffffffffffffffffffffff1663a9059cbb8260000160009054906101000a900473ffffffffffffffffffffffffffffffffffffffff1683600501546040518363ffffffff1660e01b8152600401610b8f9291906120b7565b6020604051808303816000875af1158015610bae573d6000803e3d6000fd5b505050506040513d601f19601f82011682018060405250810190610bd2919061210c565b507feb319f97cf997e8e53ee0a45fd354ef78de6d5a4f8e78f1cfa61f6ddb87efadf82604051610c029190612377565b60405180910390a15050565b600060036000838152602001908152602001600020604051806101400160405290816000820160009054906101000a900473ffffffffffffffffffffffffffffffffffffffff1673ffffffffffffffffffffffffffffffffffffffff1673ffffffffffffffffffffffffffffffffffffffff168152602001600182018054610c9590611f88565b80601f0160208091040260200160405190810160405280929190818152602001828054610cc190611f88565b8015610d0e5780601f10610ce357610100808354040283529160200191610d0e565b820191906000526020600020905b815481529060010190602001808311610cf157829003601f168201915b50505050508152602001600282018054610d2790611f88565b80601f0160208091040260200160405190810160405280929190818152602001828054610d5390611f88565b8015610da05780601f10610d7557610100808354040283529160200191610da0565b820191906000526020600020905b815481529060010190602001808311610d8357829003601f168201915b50505050508152602001600382018054610db990611f88565b80601f0160208091040260200160405190810160405280929190818152602001828054610de590611f88565b8015610e325780601f10610e0757610100808354040283529160200191610e32565b820191906000526020600020905b815481529060010190602001808311610e1557829003601f168201915b50505050508152602001600482015481526020016005820154815260200160068201548152602001600782015481526020016008820160009054906101000a900473ffffffffffffffffffffffffffffffffffffffff1673ffffffffffffffffffffffffffffffffffffffff1673ffffffffffffffffffffffffffffffffffffffff1681526020016008820160149054906101000a900460ff16151515158152505090503373ffffffffffffffffffffffffffffffffffffffff16816000015173ffffffffffffffffffffffffffffffffffffffff1614610f48576040517f08c379a0000000000000000000000000000000000000000000000000000000008152600401610f3f90612233565b60405180910390fd5b8060c001514210610f8e576040517f08c379a0000000000000000000000000000000000000000000000000000000008152600401610f85906123f1565b60405180910390fd5b60036000838152602001908152602001600020600080820160006101000a81549073ffffffffffffffffffffffffffffffffffffffff0219169055600182016000610fd991906119e7565b600282016000610fe991906119e7565b600382016000610ff991906119e7565b60048201600090556005820160009055600682016000905560078201600090556008820160006101000a81549073ffffffffffffffffffffffffffffffffffffffff02191690556008820160146101000a81549060ff021916905550507ff021e62333cdfbbd34d095d4f9914d4a723cc108f866fba75fc4581b1a34fa1f82604051611085919061245d565b60405180910390a15050565b8060028190555050565b600060036000848152602001908152602001600020905080600601544210156110f9576040517f08c379a00000000000000000000000000000000000000000000000000000000081526004016110f0906124d7565b60405180910390fd5b8060070154421115611140576040517f08c379a000000000000000000000000000000000000000000000000000000000815260040161113790612543565b60405180910390fd5b816004600085815260200190815260200160002060003373ffffffffffffffffffffffffffffffffffffffff1673ffffffffffffffffffffffffffffffffffffffff1681526020019081526020016000205410156111d3576040517f08c379a00000000000000000000000000000000000000000000000000000000081526004016111ca906125d5565b60405180910390fd5b818160050160008282546111e79190612624565b92505081905550816004600085815260200190815260200160002060003373ffffffffffffffffffffffffffffffffffffffff1673ffffffffffffffffffffffffffffffffffffffff168152602001908152602001600020600082825461124e9190612624565b925050819055508060080160009054906101000a900473ffffffffffffffffffffffffffffffffffffffff1673ffffffffffffffffffffffffffffffffffffffff1663a9059cbb33846040518363ffffffff1660e01b81526004016112b49291906120b7565b6020604051808303816000875af11580156112d3573d6000803e3d6000fd5b505050506040513d601f19601f820116820180604052508101906112f7919061210c565b503373ffffffffffffffffffffffffffffffffffffffff16837f7fc41cf2a0f8c3cef90600a4ec4dbcb8f814b934f75969aac10cc061f30b6fc28460405161133f91906126a4565b60405180910390a3505050565b6004602052816000526040600020602052806000526040600020600091509150505481565b428210156113b4576040517f08c379a00000000000000000000000000000000000000000000000000000000081526004016113ab90612744565b60405180910390fd5b8181116113f6576040517f08c379a00000000000000000000000000000000000000000000000000000000081526004016113ed906127d6565b60405180910390fd5b6002544261140491906127f6565b811115611446576040517f08c379a000000000000000000000000000000000000000000000000000000000815260040161143d9061289c565b60405180910390fd5b600180600082825461145891906127f6565b925050819055506040518061014001604052803373ffffffffffffffffffffffffffffffffffffffff168152602001888152602001878152602001868152602001858152602001600081526020018381526020018281526020018473ffffffffffffffffffffffffffffffffffffffff1681526020016000151581525060036000600154815260200190815260200160002060008201518160000160006101000a81548173ffffffffffffffffffffffffffffffffffffffff021916908373ffffffffffffffffffffffffffffffffffffffff16021790555060208201518160010190816115469190612a68565b50604082015181600201908161155c9190612a68565b5060608201518160030190816115729190612a68565b506080820151816004015560a0820151816005015560c0820151816006015560e082015181600701556101008201518160080160006101000a81548173ffffffffffffffffffffffffffffffffffffffff021916908373ffffffffffffffffffffffffffffffffffffffff1602179055506101208201518160080160146101000a81548160ff0219169083151502179055509050503373ffffffffffffffffffffffffffffffffffffffff167fa7693ff5485219625fe509f2f6231903e55cb8b439a8c76607c0bcd5ece3df8f6001548685856040516116559493929190612b86565b60405180910390a250505050505050565b600060036000848152602001908152602001600020905080600601544210156116c4576040517f08c379a00000000000000000000000000000000000000000000000000000000081526004016116bb906124d7565b60405180910390fd5b806007015442111561170b576040517f08c379a000000000000000000000000000000000000000000000000000000000815260040161170290612543565b60405180910390fd5b8181600501600082825461171f91906127f6565b92505081905550816004600085815260200190815260200160002060003373ffffffffffffffffffffffffffffffffffffffff1673ffffffffffffffffffffffffffffffffffffffff168152602001908152602001600020600082825461178691906127f6565b925050819055508060080160009054906101000a900473ffffffffffffffffffffffffffffffffffffffff1673ffffffffffffffffffffffffffffffffffffffff166323b872dd3330856040518463ffffffff1660e01b81526004016117ee93929190612bde565b6020604051808303816000875af115801561180d573d6000803e3d6000fd5b505050506040513d601f19601f82011682018060405250810190611831919061210c565b503373ffffffffffffffffffffffffffffffffffffffff16837ffebcae76329e8ea12af0eda54f161fdb1f34de201cd457d831c5836eadb6706d846040516118799190612c61565b60405180910390a3505050565b60008060019054906101000a900460ff161590508080156118b75750600160008054906101000a900460ff1660ff16105b806118e457506118c6306119c4565b1580156118e35750600160008054906101000a900460ff1660ff16145b5b611923576040517f08c379a000000000000000000000000000000000000000000000000000000000815260040161191a90612d01565b60405180910390fd5b60016000806101000a81548160ff021916908360ff1602179055508015611960576001600060016101000a81548160ff0219169083151502179055505b8160028190555080156119c05760008060016101000a81548160ff0219169083151502179055507f7f26b83ff96e1f2b6a682f133852f6798a09c465da95921460cefb384740249860016040516119b79190612d69565b60405180910390a15b5050565b6000808273ffffffffffffffffffffffffffffffffffffffff163b119050919050565b5080546119f390611f88565b6000825580601f10611a055750611a24565b601f016020900490600052602060002090810190611a239190611a27565b5b50565b5b80821115611a40576000816000905550600101611a28565b5090565b6000819050919050565b611a5781611a44565b82525050565b6000602082019050611a726000830184611a4e565b92915050565b6000604051905090565b600080fd5b600080fd5b611a9581611a44565b8114611aa057600080fd5b50565b600081359050611ab281611a8c565b92915050565b600060208284031215611ace57611acd611a82565b5b6000611adc84828501611aa3565b91505092915050565b600073ffffffffffffffffffffffffffffffffffffffff82169050919050565b6000611b1082611ae5565b9050919050565b611b2081611b05565b82525050565b600081519050919050565b600082825260208201905092915050565b60005b83811015611b60578082015181840152602081019050611b45565b60008484015250505050565b6000601f19601f8301169050919050565b6000611b8882611b26565b611b928185611b31565b9350611ba2818560208601611b42565b611bab81611b6c565b840191505092915050565b60008115159050919050565b611bcb81611bb6565b82525050565b600061014082019050611be7600083018d611b17565b8181036020830152611bf9818c611b7d565b90508181036040830152611c0d818b611b7d565b90508181036060830152611c21818a611b7d565b9050611c306080830189611a4e565b611c3d60a0830188611a4e565b611c4a60c0830187611a4e565b611c5760e0830186611a4e565b611c65610100830185611b17565b611c73610120830184611bc2565b9b9a5050505050505050505050565b60008060408385031215611c9957611c98611a82565b5b6000611ca785828601611aa3565b9250506020611cb885828601611aa3565b9150509250929050565b611ccb81611b05565b8114611cd657600080fd5b50565b600081359050611ce881611cc2565b92915050565b60008060408385031215611d0557611d04611a82565b5b6000611d1385828601611aa3565b9250506020611d2485828601611cd9565b9150509250929050565b600080fd5b600080fd5b7f4e487b7100000000000000000000000000000000000000000000000000000000600052604160045260246000fd5b611d7082611b6c565b810181811067ffffffffffffffff82111715611d8f57611d8e611d38565b5b80604052505050565b6000611da2611a78565b9050611dae8282611d67565b919050565b600067ffffffffffffffff821115611dce57611dcd611d38565b5b611dd782611b6c565b9050602081019050919050565b82818337600083830152505050565b6000611e06611e0184611db3565b611d98565b905082815260208101848484011115611e2257611e21611d33565b5b611e2d848285611de4565b509392505050565b600082601f830112611e4a57611e49611d2e565b5b8135611e5a848260208601611df3565b91505092915050565b600080600080600080600060e0888a031215611e8257611e81611a82565b5b600088013567ffffffffffffffff811115611ea057611e9f611a87565b5b611eac8a828b01611e35565b975050602088013567ffffffffffffffff811115611ecd57611ecc611a87565b5b611ed98a828b01611e35565b965050604088013567ffffffffffffffff811115611efa57611ef9611a87565b5b611f068a828b01611e35565b9550506060611f178a828b01611aa3565b9450506080611f288a828b01611cd9565b93505060a0611f398a828b01611aa3565b92505060c0611f4a8a828b01611aa3565b91505092959891949750929550565b7f4e487b7100000000000000000000000000000000000000000000000000000000600052602260045260246000fd5b60006002820490506001821680611fa057607f821691505b602082108103611fb357611fb2611f59565b5b50919050565b7f43616d706169676e20686173206e6f7420656e64656400000000000000000000600082015250565b6000611fef601683611b31565b9150611ffa82611fb9565b602082019050919050565b6000602082019050818103600083015261201e81611fe2565b9050919050565b7f596f752063616e6e6f742057697468647261772c2043616d706169676e20686160008201527f732073756363656564656420616e6420636c61696d6564000000000000000000602082015250565b6000612081603783611b31565b915061208c82612025565b604082019050919050565b600060208201905081810360008301526120b081612074565b9050919050565b60006040820190506120cc6000830185611b17565b6120d96020830184611a4e565b9392505050565b6120e981611bb6565b81146120f457600080fd5b50565b600081519050612106816120e0565b92915050565b60006020828403121561212257612121611a82565b5b6000612130848285016120f7565b91505092915050565b7f596f757220546f6b656e732061726520726566756e646564207375636365737360008201527f66756c6c79000000000000000000000000000000000000000000000000000000602082015250565b6000612195602583611b31565b91506121a082612139565b604082019050919050565b60006060820190506121c06000830185611a4e565b6121cd6020830184611a4e565b81810360408301526121de81612188565b90509392505050565b7f596f7520646964206e6f742063726561746520746869732043616d706169676e600082015250565b600061221d602083611b31565b9150612228826121e7565b602082019050919050565b6000602082019050818103600083015261224c81612210565b9050919050565b7f43616d706169676e20676f616c2069732079657420746f207375636365656400600082015250565b6000612289601f83611b31565b915061229482612253565b602082019050919050565b600060208201905081810360008301526122b88161227c565b9050919050565b7f46756e64732061726520616c726561647920636c61696d656400000000000000600082015250565b60006122f5601983611b31565b9150612300826122bf565b602082019050919050565b60006020820190508181036000830152612324816122e8565b9050919050565b7f546f6b656e732061726520636c61696d6564207375636365737366756c6c7900600082015250565b6000612361601f83611b31565b915061236c8261232b565b602082019050919050565b600060408201905061238c6000830184611a4e565b818103602083015261239d81612354565b905092915050565b7f43616d706169676e2068617320616c7265616479207374617274656400000000600082015250565b60006123db601c83611b31565b91506123e6826123a5565b602082019050919050565b6000602082019050818103600083015261240a816123ce565b9050919050565b7f43616d706169676e2063616e63656c6c6564207375636365737366756c6c7900600082015250565b6000612447601f83611b31565b915061245282612411565b602082019050919050565b60006040820190506124726000830184611a4e565b81810360208301526124838161243a565b905092915050565b7f43616d706169676e20686173206e6f7420537461727465642079657400000000600082015250565b60006124c1601c83611b31565b91506124cc8261248b565b602082019050919050565b600060208201905081810360008301526124f0816124b4565b9050919050565b7f43616d706169676e2068617320616c726561647920656e646564000000000000600082015250565b600061252d601a83611b31565b9150612538826124f7565b602082019050919050565b6000602082019050818103600083015261255c81612520565b9050919050565b7f596f7520646f206e6f74206861766520656e6f75676820746f6b656e7320506c60008201527f656467656420746f207769746872617700000000000000000000000000000000602082015250565b60006125bf603083611b31565b91506125ca82612563565b604082019050919050565b600060208201905081810360008301526125ee816125b2565b9050919050565b7f4e487b7100000000000000000000000000000000000000000000000000000000600052601160045260246000fd5b600061262f82611a44565b915061263a83611a44565b9250828203905081811115612652576126516125f5565b5b92915050565b7f546f6b656e2061726520756e706c6564676564207375636365737366756c6c79600082015250565b600061268e602083611b31565b915061269982612658565b602082019050919050565b60006040820190506126b96000830184611a4e565b81810360208301526126ca81612681565b905092915050565b7f43616d706169676e2073746172742074696d65206973206c657373207468616e60008201527f2063757272656e7420426c6f636b2054696d657374616d700000000000000000602082015250565b600061272e603883611b31565b9150612739826126d2565b604082019050919050565b6000602082019050818103600083015261275d81612721565b9050919050565b7f43616d706169676e20656e642074696d65206973206c657373207468616e207360008201527f746172742074696d650000000000000000000000000000000000000000000000602082015250565b60006127c0602983611b31565b91506127cb82612764565b604082019050919050565b600060208201905081810360008301526127ef816127b3565b9050919050565b600061280182611a44565b915061280c83611a44565b9250828201905080821115612824576128236125f5565b5b92915050565b7f43616d706169676e20656e642074696d6520657863656564732074686520646560008201527f61646c696e650000000000000000000000000000000000000000000000000000602082015250565b6000612886602683611b31565b91506128918261282a565b604082019050919050565b600060208201905081810360008301526128b581612879565b9050919050565b60008190508160005260206000209050919050565b60006020601f8301049050919050565b600082821b905092915050565b60006008830261291e7fffffffffffffffffffffffffffffffffffffffffffffffffffffffffffffffff826128e1565b61292886836128e1565b95508019841693508086168417925050509392505050565b6000819050919050565b600061296561296061295b84611a44565b612940565b611a44565b9050919050565b6000819050919050565b61297f8361294a565b61299361298b8261296c565b8484546128ee565b825550505050565b600090565b6129a861299b565b6129b3818484612976565b505050565b5b818110156129d7576129cc6000826129a0565b6001810190506129b9565b5050565b601f821115612a1c576129ed816128bc565b6129f6846128d1565b81016020851015612a05578190505b612a19612a11856128d1565b8301826129b8565b50505b505050565b600082821c905092915050565b6000612a3f60001984600802612a21565b1980831691505092915050565b6000612a588383612a2e565b9150826002028217905092915050565b612a7182611b26565b67ffffffffffffffff811115612a8a57612a89611d38565b5b612a948254611f88565b612a9f8282856129db565b600060209050601f831160018114612ad25760008415612ac0578287015190505b612aca8582612a4c565b865550612b32565b601f198416612ae0866128bc565b60005b82811015612b0857848901518255600182019150602085019450602081019050612ae3565b86831015612b255784890151612b21601f891682612a2e565b8355505b6001600288020188555050505b505050505050565b7f43616d706169676e2063726561746564207375636365737366756c6c79000000600082015250565b6000612b70601d83611b31565b9150612b7b82612b3a565b602082019050919050565b600060a082019050612b9b6000830187611a4e565b612ba86020830186611a4e565b612bb56040830185611a4e565b612bc26060830184611a4e565b8181036080830152612bd381612b63565b905095945050505050565b6000606082019050612bf36000830186611b17565b612c006020830185611b17565b612c0d6040830184611a4e565b949350505050565b7f546f6b656e732061726520706c6564676564207375636365737366756c6c7900600082015250565b6000612c4b601f83611b31565b9150612c5682612c15565b602082019050919050565b6000604082019050612c766000830184611a4e565b8181036020830152612c8781612c3e565b905092915050565b7f496e697469616c697a61626c653a20636f6e747261637420697320616c72656160008201527f647920696e697469616c697a6564000000000000000000000000000000000000602082015250565b6000612ceb602e83611b31565b9150612cf682612c8f565b604082019050919050565b60006020820190508181036000830152612d1a81612cde565b9050919050565b6000819050919050565b600060ff82169050919050565b6000612d53612d4e612d4984612d21565b612940565b612d2b565b9050919050565b612d6381612d38565b82525050565b6000602082019050612d7e6000830184612d5a565b9291505056fea2646970667358221220d5e95d382b745ace374f80a338ffc191d13fcce13f021538ade446b0634691d064736f6c63430008110033",
  "linkReferences": {},
  "deployedLinkReferences": {}
}